{
  "_format": "hh-sol-artifact-1",
  "contractName": "BlockNewsMediaMarketPlace",
  "sourceName": "contracts/BlockNewsMediaMarketPlace.sol",
  "abi": [
    {
      "inputs": [],
      "stateMutability": "nonpayable",
      "type": "constructor"
    },
    {
      "anonymous": false,
      "inputs": [
        {
          "indexed": false,
          "internalType": "uint256",
          "name": "id",
          "type": "uint256"
        },
        {
          "indexed": false,
          "internalType": "uint256",
          "name": "tokenId",
          "type": "uint256"
        },
        {
          "indexed": false,
          "internalType": "address",
          "name": "tokenAddress",
          "type": "address"
        },
        {
          "indexed": false,
          "internalType": "uint256",
          "name": "askingPrice",
          "type": "uint256"
        }
      ],
      "name": "ItemAdded",
      "type": "event"
    },
    {
      "anonymous": false,
      "inputs": [
        {
          "indexed": false,
          "internalType": "uint256",
          "name": "id",
          "type": "uint256"
        },
        {
          "indexed": false,
          "internalType": "address",
          "name": "buyer",
          "type": "address"
        },
        {
          "indexed": false,
          "internalType": "uint256",
          "name": "askingPrice",
          "type": "uint256"
        }
      ],
      "name": "ItemSold",
      "type": "event"
    },
    {
      "anonymous": false,
      "inputs": [
        {
          "indexed": false,
          "internalType": "address",
          "name": "account",
          "type": "address"
        }
      ],
      "name": "Paused",
      "type": "event"
    },
    {
      "anonymous": false,
      "inputs": [
        {
          "indexed": true,
          "internalType": "bytes32",
          "name": "role",
          "type": "bytes32"
        },
        {
          "indexed": true,
          "internalType": "bytes32",
          "name": "previousAdminRole",
          "type": "bytes32"
        },
        {
          "indexed": true,
          "internalType": "bytes32",
          "name": "newAdminRole",
          "type": "bytes32"
        }
      ],
      "name": "RoleAdminChanged",
      "type": "event"
    },
    {
      "anonymous": false,
      "inputs": [
        {
          "indexed": true,
          "internalType": "bytes32",
          "name": "role",
          "type": "bytes32"
        },
        {
          "indexed": true,
          "internalType": "address",
          "name": "account",
          "type": "address"
        },
        {
          "indexed": true,
          "internalType": "address",
          "name": "sender",
          "type": "address"
        }
      ],
      "name": "RoleGranted",
      "type": "event"
    },
    {
      "anonymous": false,
      "inputs": [
        {
          "indexed": true,
          "internalType": "bytes32",
          "name": "role",
          "type": "bytes32"
        },
        {
          "indexed": true,
          "internalType": "address",
          "name": "account",
          "type": "address"
        },
        {
          "indexed": true,
          "internalType": "address",
          "name": "sender",
          "type": "address"
        }
      ],
      "name": "RoleRevoked",
      "type": "event"
    },
    {
      "anonymous": false,
      "inputs": [
        {
          "indexed": false,
          "internalType": "address",
          "name": "account",
          "type": "address"
        }
      ],
      "name": "Unpaused",
      "type": "event"
    },
    {
      "inputs": [],
      "name": "DEFAULT_ADMIN_ROLE",
      "outputs": [
        {
          "internalType": "bytes32",
          "name": "",
          "type": "bytes32"
        }
      ],
      "stateMutability": "view",
      "type": "function"
    },
    {
      "inputs": [],
      "name": "PAUSER_ROLE",
      "outputs": [
        {
          "internalType": "bytes32",
          "name": "",
          "type": "bytes32"
        }
      ],
      "stateMutability": "view",
      "type": "function"
    },
    {
      "inputs": [
        {
          "internalType": "uint256",
          "name": "tokenId",
          "type": "uint256"
        },
        {
          "internalType": "address",
          "name": "tokenAddress",
          "type": "address"
        },
        {
          "internalType": "uint256",
          "name": "askingPrice",
          "type": "uint256"
        }
      ],
      "name": "addItemToMarket",
      "outputs": [
        {
          "internalType": "uint256",
          "name": "",
          "type": "uint256"
        }
      ],
      "stateMutability": "nonpayable",
      "type": "function"
    },
    {
      "inputs": [
        {
          "internalType": "uint256",
          "name": "id",
          "type": "uint256"
        }
      ],
      "name": "buyItem",
      "outputs": [],
      "stateMutability": "payable",
      "type": "function"
    },
    {
      "inputs": [
        {
          "internalType": "bytes32",
          "name": "role",
          "type": "bytes32"
        }
      ],
      "name": "getRoleAdmin",
      "outputs": [
        {
          "internalType": "bytes32",
          "name": "",
          "type": "bytes32"
        }
      ],
      "stateMutability": "view",
      "type": "function"
    },
    {
      "inputs": [
        {
          "internalType": "bytes32",
          "name": "role",
          "type": "bytes32"
        },
        {
          "internalType": "address",
          "name": "account",
          "type": "address"
        }
      ],
      "name": "grantRole",
      "outputs": [],
      "stateMutability": "nonpayable",
      "type": "function"
    },
    {
      "inputs": [
        {
          "internalType": "bytes32",
          "name": "role",
          "type": "bytes32"
        },
        {
          "internalType": "address",
          "name": "account",
          "type": "address"
        }
      ],
      "name": "hasRole",
      "outputs": [
        {
          "internalType": "bool",
          "name": "",
          "type": "bool"
        }
      ],
      "stateMutability": "view",
      "type": "function"
    },
    {
      "inputs": [
        {
          "internalType": "uint256",
          "name": "",
          "type": "uint256"
        }
      ],
      "name": "itemsForSale",
      "outputs": [
        {
          "internalType": "uint256",
          "name": "id",
          "type": "uint256"
        },
        {
          "internalType": "address",
          "name": "tokenAddress",
          "type": "address"
        },
        {
          "internalType": "uint256",
          "name": "tokenId",
          "type": "uint256"
        },
        {
          "internalType": "address payable",
          "name": "seller",
          "type": "address"
        },
        {
          "internalType": "uint256",
          "name": "askingPrice",
          "type": "uint256"
        },
        {
          "internalType": "bool",
          "name": "isSold",
          "type": "bool"
        }
      ],
      "stateMutability": "view",
      "type": "function"
    },
    {
      "inputs": [],
      "name": "itemsSold",
      "outputs": [
        {
          "internalType": "uint256",
          "name": "",
          "type": "uint256"
        }
      ],
      "stateMutability": "view",
      "type": "function"
    },
    {
      "inputs": [],
      "name": "pause",
      "outputs": [],
      "stateMutability": "nonpayable",
      "type": "function"
    },
    {
      "inputs": [],
      "name": "paused",
      "outputs": [
        {
          "internalType": "bool",
          "name": "",
          "type": "bool"
        }
      ],
      "stateMutability": "view",
      "type": "function"
    },
    {
      "inputs": [
        {
          "internalType": "bytes32",
          "name": "role",
          "type": "bytes32"
        },
        {
          "internalType": "address",
          "name": "account",
          "type": "address"
        }
      ],
      "name": "renounceRole",
      "outputs": [],
      "stateMutability": "nonpayable",
      "type": "function"
    },
    {
      "inputs": [
        {
          "internalType": "bytes32",
          "name": "role",
          "type": "bytes32"
        },
        {
          "internalType": "address",
          "name": "account",
          "type": "address"
        }
      ],
      "name": "revokeRole",
      "outputs": [],
      "stateMutability": "nonpayable",
      "type": "function"
    },
    {
      "inputs": [
        {
          "internalType": "address",
          "name": "recipient",
          "type": "address"
        },
        {
          "internalType": "uint256",
          "name": "value",
          "type": "uint256"
        }
      ],
      "name": "setRoyalties",
      "outputs": [],
      "stateMutability": "nonpayable",
      "type": "function"
    },
    {
      "inputs": [
        {
          "internalType": "bytes4",
          "name": "interfaceId",
          "type": "bytes4"
        }
      ],
      "name": "supportsInterface",
      "outputs": [
        {
          "internalType": "bool",
          "name": "",
          "type": "bool"
        }
      ],
      "stateMutability": "view",
      "type": "function"
    },
    {
      "inputs": [],
      "name": "unpause",
      "outputs": [],
      "stateMutability": "nonpayable",
      "type": "function"
    }
  ],
  "bytecode": "0x60806040523480156200001157600080fd5b5060008060006101000a81548160ff021916908315150217905550620000416000801b33620000a060201b60201c565b620000737f65d7a28e3265b37a6474929f336521b332c1681b933f6cb9f3376673440d862a33620000a060201b60201c565b6200009a73dd870fa1b7c4700f2bd7f44238821c26f739214860af6200019160201b60201c565b62000374565b620000b282826200027e60201b60201c565b6200018d57600180600084815260200190815260200160002060000160008373ffffffffffffffffffffffffffffffffffffffff1673ffffffffffffffffffffffffffffffffffffffff16815260200190815260200160002060006101000a81548160ff02191690831515021790555062000132620002e960201b60201c565b73ffffffffffffffffffffffffffffffffffffffff168173ffffffffffffffffffffffffffffffffffffffff16837f2f8788117e7eff1d82e926ec794901d17c78024a50270940304540a733656f0d60405160405180910390a45b5050565b612710811115620001d9576040517f08c379a0000000000000000000000000000000000000000000000000000000008152600401620001d09062000352565b60405180910390fd5b60405180604001604052808373ffffffffffffffffffffffffffffffffffffffff1681526020018262ffffff16815250600560008201518160000160006101000a81548173ffffffffffffffffffffffffffffffffffffffff021916908373ffffffffffffffffffffffffffffffffffffffff16021790555060208201518160000160146101000a81548162ffffff021916908362ffffff1602179055509050505050565b60006001600084815260200190815260200160002060000160008373ffffffffffffffffffffffffffffffffffffffff1673ffffffffffffffffffffffffffffffffffffffff16815260200190815260200160002060009054906101000a900460ff16905092915050565b600033905090565b600082825260208201905092915050565b7f45524332393831526f79616c746965733a20546f6f2068696768000000000000600082015250565b60006200033a601a83620002f1565b9150620003478262000302565b602082019050919050565b600060208201905081810360008301526200036d816200032b565b9050919050565b61276a80620003846000396000f3fe6080604052600436106100f35760003560e01c80638456cb591161008a578063a217fddf11610059578063a217fddf1461032d578063d547741f14610358578063e63ab1e914610381578063e7fb74c7146103ac576100f3565b80638456cb59146102855780638c7ea24b1461029c578063913e0a48146102c557806391d14854146102f0576100f3565b806336568abe116100c657806336568abe146101dd5780633f4ba83a146102065780634abc22021461021d5780635c975abb1461025a576100f3565b806301ffc9a7146100f8578063092d0afc14610135578063248a9ca3146101775780632f2ff15d146101b4575b600080fd5b34801561010457600080fd5b5061011f600480360381019061011a9190611a53565b6103c8565b60405161012c9190611a9b565b60405180910390f35b34801561014157600080fd5b5061015c60048036038101906101579190611aec565b610442565b60405161016e96959493929190611b8a565b60405180910390f35b34801561018357600080fd5b5061019e60048036038101906101999190611c21565b6104db565b6040516101ab9190611c5d565b60405180910390f35b3480156101c057600080fd5b506101db60048036038101906101d69190611ca4565b6104fb565b005b3480156101e957600080fd5b5061020460048036038101906101ff9190611ca4565b61051c565b005b34801561021257600080fd5b5061021b61059f565b005b34801561022957600080fd5b50610244600480360381019061023f9190611ce4565b6105d4565b6040516102519190611d37565b60405180910390f35b34801561026657600080fd5b5061026f610a35565b60405161027c9190611a9b565b60405180910390f35b34801561029157600080fd5b5061029a610a4b565b005b3480156102a857600080fd5b506102c360048036038101906102be9190611d52565b610a80565b005b3480156102d157600080fd5b506102da610a9c565b6040516102e79190611d37565b60405180910390f35b3480156102fc57600080fd5b5061031760048036038101906103129190611ca4565b610aad565b6040516103249190611a9b565b60405180910390f35b34801561033957600080fd5b50610342610b18565b60405161034f9190611c5d565b60405180910390f35b34801561036457600080fd5b5061037f600480360381019061037a9190611ca4565b610b1f565b005b34801561038d57600080fd5b50610396610b40565b6040516103a39190611c5d565b60405180910390f35b6103c660048036038101906103c19190611aec565b610b64565b005b60007f7965db0b000000000000000000000000000000000000000000000000000000007bffffffffffffffffffffffffffffffffffffffffffffffffffffffff1916827bffffffffffffffffffffffffffffffffffffffffffffffffffffffff1916148061043b575061043a82611284565b5b9050919050565b6002818154811061045257600080fd5b90600052602060002090600602016000915090508060000154908060010160009054906101000a900473ffffffffffffffffffffffffffffffffffffffff16908060020154908060030160009054906101000a900473ffffffffffffffffffffffffffffffffffffffff16908060040154908060050160009054906101000a900460ff16905086565b600060016000838152602001908152602001600020600101549050919050565b610504826104db565b61050d816112ee565b6105178383611302565b505050565b6105246113e2565b73ffffffffffffffffffffffffffffffffffffffff168173ffffffffffffffffffffffffffffffffffffffff1614610591576040517f08c379a000000000000000000000000000000000000000000000000000000000815260040161058890611e15565b60405180910390fd5b61059b82826113ea565b5050565b7f65d7a28e3265b37a6474929f336521b332c1681b933f6cb9f3376673440d862a6105c9816112ee565b6105d16114cc565b50565b6000828460008290503373ffffffffffffffffffffffffffffffffffffffff168173ffffffffffffffffffffffffffffffffffffffff16636352211e846040518263ffffffff1660e01b815260040161062d9190611d37565b602060405180830381865afa15801561064a573d6000803e3d6000fd5b505050506040513d601f19601f8201168201806040525081019061066e9190611e4a565b73ffffffffffffffffffffffffffffffffffffffff161461068e57600080fd5b858760008290503073ffffffffffffffffffffffffffffffffffffffff168173ffffffffffffffffffffffffffffffffffffffff1663081812fc846040518263ffffffff1660e01b81526004016106e59190611d37565b602060405180830381865afa158015610702573d6000803e3d6000fd5b505050506040513d601f19601f820116820180604052508101906107269190611e4a565b73ffffffffffffffffffffffffffffffffffffffff161461074657600080fd5b60001515600360008b73ffffffffffffffffffffffffffffffffffffffff1673ffffffffffffffffffffffffffffffffffffffff16815260200190815260200160002060008c815260200190815260200160002060009054906101000a900460ff161515146107ea576040517f08c379a00000000000000000000000000000000000000000000000000000000081526004016107e190611ec3565b60405180910390fd5b6000600280549050905060026040518060c001604052808381526020018c73ffffffffffffffffffffffffffffffffffffffff1681526020018d81526020013373ffffffffffffffffffffffffffffffffffffffff1681526020018b81526020016000151581525090806001815401808255809150506001900390600052602060002090600602016000909190919091506000820151816000015560208201518160010160006101000a81548173ffffffffffffffffffffffffffffffffffffffff021916908373ffffffffffffffffffffffffffffffffffffffff1602179055506040820151816002015560608201518160030160006101000a81548173ffffffffffffffffffffffffffffffffffffffff021916908373ffffffffffffffffffffffffffffffffffffffff1602179055506080820151816004015560a08201518160050160006101000a81548160ff02191690831515021790555050506001600360008c73ffffffffffffffffffffffffffffffffffffffff1673ffffffffffffffffffffffffffffffffffffffff16815260200190815260200160002060008d815260200190815260200160002060006101000a81548160ff02191690831515021790555080600282815481106109c7576109c6611ee3565b5b906000526020600020906006020160000154146109e7576109e6611f12565b5b7fd251be2f9ac8e7aebe1bdb7cef332833795022b0ba7e486da68ebe135f8ed317818c8c8c604051610a1c9493929190611f41565b60405180910390a1809750505050505050509392505050565b60008060009054906101000a900460ff16905090565b7f65d7a28e3265b37a6474929f336521b332c1681b933f6cb9f3376673440d862a610a75816112ee565b610a7d61156d565b50565b6000801b610a8d816112ee565b610a97838361160f565b505050565b6000610aa860046116f9565b905090565b60006001600084815260200190815260200160002060000160008373ffffffffffffffffffffffffffffffffffffffff1673ffffffffffffffffffffffffffffffffffffffff16815260200190815260200160002060009054906101000a900460ff16905092915050565b6000801b81565b610b28826104db565b610b31816112ee565b610b3b83836113ea565b505050565b7f65d7a28e3265b37a6474929f336521b332c1681b933f6cb9f3376673440d862a81565b808060028281548110610b7a57610b79611ee3565b5b90600052602060002090600602016000015414610bcc576040517f08c379a0000000000000000000000000000000000000000000000000000000008152600401610bc390611fd2565b60405180910390fd5b816000151560028281548110610be557610be4611ee3565b5b906000526020600020906006020160050160009054906101000a900460ff16151514610c46576040517f08c379a0000000000000000000000000000000000000000000000000000000008152600401610c3d9061203e565b60405180910390fd5b60028381548110610c5a57610c59611ee3565b5b906000526020600020906006020160010160009054906101000a900473ffffffffffffffffffffffffffffffffffffffff1660028481548110610ca057610c9f611ee3565b5b90600052602060002090600602016002015460008290503073ffffffffffffffffffffffffffffffffffffffff168173ffffffffffffffffffffffffffffffffffffffff1663081812fc846040518263ffffffff1660e01b8152600401610d079190611d37565b602060405180830381865afa158015610d24573d6000803e3d6000fd5b505050506040513d601f19601f82011682018060405250810190610d489190611e4a565b73ffffffffffffffffffffffffffffffffffffffff1614610d6857600080fd5b60028681548110610d7c57610d7b611ee3565b5b906000526020600020906006020160040154341015610dd0576040517f08c379a0000000000000000000000000000000000000000000000000000000008152600401610dc7906120aa565b60405180910390fd5b60028681548110610de457610de3611ee3565b5b906000526020600020906006020160030160009054906101000a900473ffffffffffffffffffffffffffffffffffffffff1673ffffffffffffffffffffffffffffffffffffffff163373ffffffffffffffffffffffffffffffffffffffff1603610e83576040517f08c379a0000000000000000000000000000000000000000000000000000000008152600401610e7a9061213c565b60405180910390fd5b600160028781548110610e9957610e98611ee3565b5b906000526020600020906006020160050160006101000a81548160ff02191690831515021790555060006003600060028981548110610edb57610eda611ee3565b5b906000526020600020906006020160010160009054906101000a900473ffffffffffffffffffffffffffffffffffffffff1673ffffffffffffffffffffffffffffffffffffffff1673ffffffffffffffffffffffffffffffffffffffff168152602001908152602001600020600060028981548110610f5d57610f5c611ee3565b5b906000526020600020906006020160020154815260200190815260200160002060006101000a81548160ff02191690831515021790555060028681548110610fa857610fa7611ee3565b5b906000526020600020906006020160010160009054906101000a900473ffffffffffffffffffffffffffffffffffffffff1673ffffffffffffffffffffffffffffffffffffffff166342842e0e6002888154811061100957611008611ee3565b5b906000526020600020906006020160030160009054906101000a900473ffffffffffffffffffffffffffffffffffffffff163360028a815481106110505761104f611ee3565b5b9060005260206000209060060201600201546040518463ffffffff1660e01b8152600401611080939291906121bb565b600060405180830381600087803b15801561109a57600080fd5b505af11580156110ae573d6000803e3d6000fd5b505050506000600560000160149054906101000a900462ffffff1662ffffff16612710346110dc9190612250565b6110e69190612281565b346110f191906122c3565b90506000600560000160149054906101000a900462ffffff1662ffffff166127103461111d9190612250565b6111279190612281565b90506002888154811061113d5761113c611ee3565b5b906000526020600020906006020160030160009054906101000a900473ffffffffffffffffffffffffffffffffffffffff1673ffffffffffffffffffffffffffffffffffffffff166108fc839081150290604051600060405180830381858888f193505050501580156111b4573d6000803e3d6000fd5b5073dd870fa1b7c4700f2bd7f44238821c26f739214873ffffffffffffffffffffffffffffffffffffffff166108fc829081150290604051600060405180830381858888f1935050505015801561120f573d6000803e3d6000fd5b5061121a6004611707565b7fa574c741071bb18f51fa88c17aeefec514bebf670ca22a3736fba6504ecbb763883360028b8154811061125157611250611ee3565b5b906000526020600020906006020160040154604051611272939291906122f7565b60405180910390a15050505050505050565b60007f01ffc9a7000000000000000000000000000000000000000000000000000000007bffffffffffffffffffffffffffffffffffffffffffffffffffffffff1916827bffffffffffffffffffffffffffffffffffffffffffffffffffffffff1916149050919050565b6112ff816112fa6113e2565b61171d565b50565b61130c8282610aad565b6113de57600180600084815260200190815260200160002060000160008373ffffffffffffffffffffffffffffffffffffffff1673ffffffffffffffffffffffffffffffffffffffff16815260200190815260200160002060006101000a81548160ff0219169083151502179055506113836113e2565b73ffffffffffffffffffffffffffffffffffffffff168173ffffffffffffffffffffffffffffffffffffffff16837f2f8788117e7eff1d82e926ec794901d17c78024a50270940304540a733656f0d60405160405180910390a45b5050565b600033905090565b6113f48282610aad565b156114c85760006001600084815260200190815260200160002060000160008373ffffffffffffffffffffffffffffffffffffffff1673ffffffffffffffffffffffffffffffffffffffff16815260200190815260200160002060006101000a81548160ff02191690831515021790555061146d6113e2565b73ffffffffffffffffffffffffffffffffffffffff168173ffffffffffffffffffffffffffffffffffffffff16837ff6391f5c32d9c69d2a47ea670b442974b53935d1edc7fd64eb21e047a839171b60405160405180910390a45b5050565b6114d4610a35565b611513576040517f08c379a000000000000000000000000000000000000000000000000000000000815260040161150a9061237a565b60405180910390fd5b60008060006101000a81548160ff0219169083151502179055507f5db9ee0a495bf2e6ff9c91a7834c1ba4fdd244a5e8aa4e537bd38aeae4b073aa6115566113e2565b604051611563919061239a565b60405180910390a1565b611575610a35565b156115b5576040517f08c379a00000000000000000000000000000000000000000000000000000000081526004016115ac90612401565b60405180910390fd5b60016000806101000a81548160ff0219169083151502179055507f62e78cea01bee320cd4e420270b5ea74000d11b0c9f74754ebdbfc544b05a2586115f86113e2565b604051611605919061239a565b60405180910390a1565b612710811115611654576040517f08c379a000000000000000000000000000000000000000000000000000000000815260040161164b9061246d565b60405180910390fd5b60405180604001604052808373ffffffffffffffffffffffffffffffffffffffff1681526020018262ffffff16815250600560008201518160000160006101000a81548173ffffffffffffffffffffffffffffffffffffffff021916908373ffffffffffffffffffffffffffffffffffffffff16021790555060208201518160000160146101000a81548162ffffff021916908362ffffff1602179055509050505050565b600081600001549050919050565b6001816000016000828254019250508190555050565b6117278282610aad565b6117b65761174c8173ffffffffffffffffffffffffffffffffffffffff1660146117ba565b61175a8360001c60206117ba565b60405160200161176b929190612596565b6040516020818303038152906040526040517f08c379a00000000000000000000000000000000000000000000000000000000081526004016117ad919061261a565b60405180910390fd5b5050565b6060600060028360026117cd9190612281565b6117d7919061263c565b67ffffffffffffffff8111156117f0576117ef612670565b5b6040519080825280601f01601f1916602001820160405280156118225781602001600182028036833780820191505090505b5090507f30000000000000000000000000000000000000000000000000000000000000008160008151811061185a57611859611ee3565b5b60200101907effffffffffffffffffffffffffffffffffffffffffffffffffffffffffffff1916908160001a9053507f7800000000000000000000000000000000000000000000000000000000000000816001815181106118be576118bd611ee3565b5b60200101907effffffffffffffffffffffffffffffffffffffffffffffffffffffffffffff1916908160001a905350600060018460026118fe9190612281565b611908919061263c565b90505b60018111156119a8577f3031323334353637383961626364656600000000000000000000000000000000600f86166010811061194a57611949611ee3565b5b1a60f81b82828151811061196157611960611ee3565b5b60200101907effffffffffffffffffffffffffffffffffffffffffffffffffffffffffffff1916908160001a905350600485901c9450806119a19061269f565b905061190b565b50600084146119ec576040517f08c379a00000000000000000000000000000000000000000000000000000000081526004016119e390612714565b60405180910390fd5b8091505092915050565b600080fd5b60007fffffffff0000000000000000000000000000000000000000000000000000000082169050919050565b611a30816119fb565b8114611a3b57600080fd5b50565b600081359050611a4d81611a27565b92915050565b600060208284031215611a6957611a686119f6565b5b6000611a7784828501611a3e565b91505092915050565b60008115159050919050565b611a9581611a80565b82525050565b6000602082019050611ab06000830184611a8c565b92915050565b6000819050919050565b611ac981611ab6565b8114611ad457600080fd5b50565b600081359050611ae681611ac0565b92915050565b600060208284031215611b0257611b016119f6565b5b6000611b1084828501611ad7565b91505092915050565b611b2281611ab6565b82525050565b600073ffffffffffffffffffffffffffffffffffffffff82169050919050565b6000611b5382611b28565b9050919050565b611b6381611b48565b82525050565b6000611b7482611b28565b9050919050565b611b8481611b69565b82525050565b600060c082019050611b9f6000830189611b19565b611bac6020830188611b5a565b611bb96040830187611b19565b611bc66060830186611b7b565b611bd36080830185611b19565b611be060a0830184611a8c565b979650505050505050565b6000819050919050565b611bfe81611beb565b8114611c0957600080fd5b50565b600081359050611c1b81611bf5565b92915050565b600060208284031215611c3757611c366119f6565b5b6000611c4584828501611c0c565b91505092915050565b611c5781611beb565b82525050565b6000602082019050611c726000830184611c4e565b92915050565b611c8181611b48565b8114611c8c57600080fd5b50565b600081359050611c9e81611c78565b92915050565b60008060408385031215611cbb57611cba6119f6565b5b6000611cc985828601611c0c565b9250506020611cda85828601611c8f565b9150509250929050565b600080600060608486031215611cfd57611cfc6119f6565b5b6000611d0b86828701611ad7565b9350506020611d1c86828701611c8f565b9250506040611d2d86828701611ad7565b9150509250925092565b6000602082019050611d4c6000830184611b19565b92915050565b60008060408385031215611d6957611d686119f6565b5b6000611d7785828601611c8f565b9250506020611d8885828601611ad7565b9150509250929050565b600082825260208201905092915050565b7f416363657373436f6e74726f6c3a2063616e206f6e6c792072656e6f756e636560008201527f20726f6c657320666f722073656c660000000000000000000000000000000000602082015250565b6000611dff602f83611d92565b9150611e0a82611da3565b604082019050919050565b60006020820190508181036000830152611e2e81611df2565b9050919050565b600081519050611e4481611c78565b92915050565b600060208284031215611e6057611e5f6119f6565b5b6000611e6e84828501611e35565b91505092915050565b7f4974656d20697320616c726561647920757020666f722073616c652100000000600082015250565b6000611ead601c83611d92565b9150611eb882611e77565b602082019050919050565b60006020820190508181036000830152611edc81611ea0565b9050919050565b7f4e487b7100000000000000000000000000000000000000000000000000000000600052603260045260246000fd5b7f4e487b7100000000000000000000000000000000000000000000000000000000600052600160045260246000fd5b6000608082019050611f566000830187611b19565b611f636020830186611b19565b611f706040830185611b5a565b611f7d6060830184611b19565b95945050505050565b7f436f756c64206e6f742066696e64206974656d00000000000000000000000000600082015250565b6000611fbc601383611d92565b9150611fc782611f86565b602082019050919050565b60006020820190508181036000830152611feb81611faf565b9050919050565b7f4974656d20697320616c726561647920736f6c64210000000000000000000000600082015250565b6000612028601583611d92565b915061203382611ff2565b602082019050919050565b600060208201905081810360008301526120578161201b565b9050919050565b7f4e6f7420656e6f7567682066756e64732073656e740000000000000000000000600082015250565b6000612094601583611d92565b915061209f8261205e565b602082019050919050565b600060208201905081810360008301526120c381612087565b9050919050565b7f53656c6c65722063616e277420627579206120746f6b656e206865206c69737460008201527f6564000000000000000000000000000000000000000000000000000000000000602082015250565b6000612126602283611d92565b9150612131826120ca565b604082019050919050565b6000602082019050818103600083015261215581612119565b9050919050565b6000819050919050565b600061218161217c61217784611b28565b61215c565b611b28565b9050919050565b600061219382612166565b9050919050565b60006121a582612188565b9050919050565b6121b58161219a565b82525050565b60006060820190506121d060008301866121ac565b6121dd6020830185611b5a565b6121ea6040830184611b19565b949350505050565b7f4e487b7100000000000000000000000000000000000000000000000000000000600052601260045260246000fd5b7f4e487b7100000000000000000000000000000000000000000000000000000000600052601160045260246000fd5b600061225b82611ab6565b915061226683611ab6565b925082612276576122756121f2565b5b828204905092915050565b600061228c82611ab6565b915061229783611ab6565b92508282026122a581611ab6565b915082820484148315176122bc576122bb612221565b5b5092915050565b60006122ce82611ab6565b91506122d983611ab6565b92508282039050818111156122f1576122f0612221565b5b92915050565b600060608201905061230c6000830186611b19565b6123196020830185611b5a565b6123266040830184611b19565b949350505050565b7f5061757361626c653a206e6f7420706175736564000000000000000000000000600082015250565b6000612364601483611d92565b915061236f8261232e565b602082019050919050565b6000602082019050818103600083015261239381612357565b9050919050565b60006020820190506123af6000830184611b5a565b92915050565b7f5061757361626c653a2070617573656400000000000000000000000000000000600082015250565b60006123eb601083611d92565b91506123f6826123b5565b602082019050919050565b6000602082019050818103600083015261241a816123de565b9050919050565b7f45524332393831526f79616c746965733a20546f6f2068696768000000000000600082015250565b6000612457601a83611d92565b915061246282612421565b602082019050919050565b600060208201905081810360008301526124868161244a565b9050919050565b600081905092915050565b7f416363657373436f6e74726f6c3a206163636f756e7420000000000000000000600082015250565b60006124ce60178361248d565b91506124d982612498565b601782019050919050565b600081519050919050565b60005b8381101561250d5780820151818401526020810190506124f2565b60008484015250505050565b6000612524826124e4565b61252e818561248d565b935061253e8185602086016124ef565b80840191505092915050565b7f206973206d697373696e6720726f6c6520000000000000000000000000000000600082015250565b600061258060118361248d565b915061258b8261254a565b601182019050919050565b60006125a1826124c1565b91506125ad8285612519565b91506125b882612573565b91506125c48284612519565b91508190509392505050565b6000601f19601f8301169050919050565b60006125ec826124e4565b6125f68185611d92565b93506126068185602086016124ef565b61260f816125d0565b840191505092915050565b6000602082019050818103600083015261263481846125e1565b905092915050565b600061264782611ab6565b915061265283611ab6565b925082820190508082111561266a57612669612221565b5b92915050565b7f4e487b7100000000000000000000000000000000000000000000000000000000600052604160045260246000fd5b60006126aa82611ab6565b9150600082036126bd576126bc612221565b5b600182039050919050565b7f537472696e67733a20686578206c656e67746820696e73756666696369656e74600082015250565b60006126fe602083611d92565b9150612709826126c8565b602082019050919050565b6000602082019050818103600083015261272d816126f1565b905091905056fea2646970667358221220e2dbe9a4b1728928b2d4ba9237366014f436ff05092de4676deb851ac2179ab064736f6c63430008110033",
  "linkReferences": {},
  "deployedLinkReferences": {}
}