{
  "contractName": "BlockNewsMediaToken",
  "abi": [
    {
      "inputs": [],
      "stateMutability": "nonpayable",
      "type": "constructor"
    },
    {
      "anonymous": false,
      "inputs": [
        {
          "indexed": true,
          "internalType": "address",
          "name": "owner",
          "type": "address"
        },
        {
          "indexed": true,
          "internalType": "address",
          "name": "approved",
          "type": "address"
        },
        {
          "indexed": true,
          "internalType": "uint256",
          "name": "tokenId",
          "type": "uint256"
        }
      ],
      "name": "Approval",
      "type": "event"
    },
    {
      "anonymous": false,
      "inputs": [
        {
          "indexed": true,
          "internalType": "address",
          "name": "owner",
          "type": "address"
        },
        {
          "indexed": true,
          "internalType": "address",
          "name": "operator",
          "type": "address"
        },
        {
          "indexed": false,
          "internalType": "bool",
          "name": "approved",
          "type": "bool"
        }
      ],
      "name": "ApprovalForAll",
      "type": "event"
    },
    {
      "anonymous": false,
      "inputs": [
        {
          "indexed": false,
          "internalType": "address",
          "name": "account",
          "type": "address"
        }
      ],
      "name": "Paused",
      "type": "event"
    },
    {
      "anonymous": false,
      "inputs": [
        {
          "indexed": true,
          "internalType": "bytes32",
          "name": "role",
          "type": "bytes32"
        },
        {
          "indexed": true,
          "internalType": "bytes32",
          "name": "previousAdminRole",
          "type": "bytes32"
        },
        {
          "indexed": true,
          "internalType": "bytes32",
          "name": "newAdminRole",
          "type": "bytes32"
        }
      ],
      "name": "RoleAdminChanged",
      "type": "event"
    },
    {
      "anonymous": false,
      "inputs": [
        {
          "indexed": true,
          "internalType": "bytes32",
          "name": "role",
          "type": "bytes32"
        },
        {
          "indexed": true,
          "internalType": "address",
          "name": "account",
          "type": "address"
        },
        {
          "indexed": true,
          "internalType": "address",
          "name": "sender",
          "type": "address"
        }
      ],
      "name": "RoleGranted",
      "type": "event"
    },
    {
      "anonymous": false,
      "inputs": [
        {
          "indexed": true,
          "internalType": "bytes32",
          "name": "role",
          "type": "bytes32"
        },
        {
          "indexed": true,
          "internalType": "address",
          "name": "account",
          "type": "address"
        },
        {
          "indexed": true,
          "internalType": "address",
          "name": "sender",
          "type": "address"
        }
      ],
      "name": "RoleRevoked",
      "type": "event"
    },
    {
      "anonymous": false,
      "inputs": [
        {
          "indexed": true,
          "internalType": "address",
          "name": "from",
          "type": "address"
        },
        {
          "indexed": true,
          "internalType": "address",
          "name": "to",
          "type": "address"
        },
        {
          "indexed": true,
          "internalType": "uint256",
          "name": "tokenId",
          "type": "uint256"
        }
      ],
      "name": "Transfer",
      "type": "event"
    },
    {
      "anonymous": false,
      "inputs": [
        {
          "indexed": false,
          "internalType": "address",
          "name": "account",
          "type": "address"
        }
      ],
      "name": "Unpaused",
      "type": "event"
    },
    {
      "anonymous": false,
      "inputs": [
        {
          "indexed": false,
          "internalType": "address",
          "name": "_from",
          "type": "address"
        },
        {
          "indexed": false,
          "internalType": "string",
          "name": "_uri",
          "type": "string"
        }
      ],
      "name": "tokenMinted",
      "type": "event"
    },
    {
      "inputs": [],
      "name": "DEFAULT_ADMIN_ROLE",
      "outputs": [
        {
          "internalType": "bytes32",
          "name": "",
          "type": "bytes32"
        }
      ],
      "stateMutability": "view",
      "type": "function",
      "constant": true
    },
    {
      "inputs": [
        {
          "internalType": "uint256",
          "name": "",
          "type": "uint256"
        }
      ],
      "name": "Items",
      "outputs": [
        {
          "internalType": "uint256",
          "name": "id",
          "type": "uint256"
        },
        {
          "internalType": "address",
          "name": "creator",
          "type": "address"
        },
        {
          "internalType": "string",
          "name": "uri",
          "type": "string"
        }
      ],
      "stateMutability": "view",
      "type": "function",
      "constant": true
    },
    {
      "inputs": [],
      "name": "PAUSER_ROLE",
      "outputs": [
        {
          "internalType": "bytes32",
          "name": "",
          "type": "bytes32"
        }
      ],
      "stateMutability": "view",
      "type": "function",
      "constant": true
    },
    {
      "inputs": [
        {
          "internalType": "address",
          "name": "to",
          "type": "address"
        },
        {
          "internalType": "uint256",
          "name": "tokenId",
          "type": "uint256"
        }
      ],
      "name": "approve",
      "outputs": [],
      "stateMutability": "nonpayable",
      "type": "function"
    },
    {
      "inputs": [
        {
          "internalType": "address",
          "name": "owner",
          "type": "address"
        }
      ],
      "name": "balanceOf",
      "outputs": [
        {
          "internalType": "uint256",
          "name": "",
          "type": "uint256"
        }
      ],
      "stateMutability": "view",
      "type": "function",
      "constant": true
    },
    {
      "inputs": [
        {
          "internalType": "uint256",
          "name": "tokenId",
          "type": "uint256"
        }
      ],
      "name": "burn",
      "outputs": [],
      "stateMutability": "nonpayable",
      "type": "function"
    },
    {
      "inputs": [
        {
          "internalType": "uint256",
          "name": "tokenId",
          "type": "uint256"
        }
      ],
      "name": "getApproved",
      "outputs": [
        {
          "internalType": "address",
          "name": "",
          "type": "address"
        }
      ],
      "stateMutability": "view",
      "type": "function",
      "constant": true
    },
    {
      "inputs": [
        {
          "internalType": "bytes32",
          "name": "role",
          "type": "bytes32"
        }
      ],
      "name": "getRoleAdmin",
      "outputs": [
        {
          "internalType": "bytes32",
          "name": "",
          "type": "bytes32"
        }
      ],
      "stateMutability": "view",
      "type": "function",
      "constant": true
    },
    {
      "inputs": [
        {
          "internalType": "bytes32",
          "name": "role",
          "type": "bytes32"
        },
        {
          "internalType": "address",
          "name": "account",
          "type": "address"
        }
      ],
      "name": "grantRole",
      "outputs": [],
      "stateMutability": "nonpayable",
      "type": "function"
    },
    {
      "inputs": [
        {
          "internalType": "bytes32",
          "name": "role",
          "type": "bytes32"
        },
        {
          "internalType": "address",
          "name": "account",
          "type": "address"
        }
      ],
      "name": "hasRole",
      "outputs": [
        {
          "internalType": "bool",
          "name": "",
          "type": "bool"
        }
      ],
      "stateMutability": "view",
      "type": "function",
      "constant": true
    },
    {
      "inputs": [
        {
          "internalType": "address",
          "name": "owner",
          "type": "address"
        },
        {
          "internalType": "address",
          "name": "operator",
          "type": "address"
        }
      ],
      "name": "isApprovedForAll",
      "outputs": [
        {
          "internalType": "bool",
          "name": "",
          "type": "bool"
        }
      ],
      "stateMutability": "view",
      "type": "function",
      "constant": true
    },
    {
      "inputs": [],
      "name": "name",
      "outputs": [
        {
          "internalType": "string",
          "name": "",
          "type": "string"
        }
      ],
      "stateMutability": "view",
      "type": "function",
      "constant": true
    },
    {
      "inputs": [
        {
          "internalType": "uint256",
          "name": "tokenId",
          "type": "uint256"
        }
      ],
      "name": "ownerOf",
      "outputs": [
        {
          "internalType": "address",
          "name": "",
          "type": "address"
        }
      ],
      "stateMutability": "view",
      "type": "function",
      "constant": true
    },
    {
      "inputs": [],
      "name": "paused",
      "outputs": [
        {
          "internalType": "bool",
          "name": "",
          "type": "bool"
        }
      ],
      "stateMutability": "view",
      "type": "function",
      "constant": true
    },
    {
      "inputs": [
        {
          "internalType": "bytes32",
          "name": "role",
          "type": "bytes32"
        },
        {
          "internalType": "address",
          "name": "account",
          "type": "address"
        }
      ],
      "name": "renounceRole",
      "outputs": [],
      "stateMutability": "nonpayable",
      "type": "function"
    },
    {
      "inputs": [
        {
          "internalType": "bytes32",
          "name": "role",
          "type": "bytes32"
        },
        {
          "internalType": "address",
          "name": "account",
          "type": "address"
        }
      ],
      "name": "revokeRole",
      "outputs": [],
      "stateMutability": "nonpayable",
      "type": "function"
    },
    {
      "inputs": [
        {
          "internalType": "address",
          "name": "from",
          "type": "address"
        },
        {
          "internalType": "address",
          "name": "to",
          "type": "address"
        },
        {
          "internalType": "uint256",
          "name": "tokenId",
          "type": "uint256"
        }
      ],
      "name": "safeTransferFrom",
      "outputs": [],
      "stateMutability": "nonpayable",
      "type": "function"
    },
    {
      "inputs": [
        {
          "internalType": "address",
          "name": "from",
          "type": "address"
        },
        {
          "internalType": "address",
          "name": "to",
          "type": "address"
        },
        {
          "internalType": "uint256",
          "name": "tokenId",
          "type": "uint256"
        },
        {
          "internalType": "bytes",
          "name": "_data",
          "type": "bytes"
        }
      ],
      "name": "safeTransferFrom",
      "outputs": [],
      "stateMutability": "nonpayable",
      "type": "function"
    },
    {
      "inputs": [
        {
          "internalType": "address",
          "name": "operator",
          "type": "address"
        },
        {
          "internalType": "bool",
          "name": "approved",
          "type": "bool"
        }
      ],
      "name": "setApprovalForAll",
      "outputs": [],
      "stateMutability": "nonpayable",
      "type": "function"
    },
    {
      "inputs": [],
      "name": "symbol",
      "outputs": [
        {
          "internalType": "string",
          "name": "",
          "type": "string"
        }
      ],
      "stateMutability": "view",
      "type": "function",
      "constant": true
    },
    {
      "inputs": [
        {
          "internalType": "address",
          "name": "from",
          "type": "address"
        },
        {
          "internalType": "address",
          "name": "to",
          "type": "address"
        },
        {
          "internalType": "uint256",
          "name": "tokenId",
          "type": "uint256"
        }
      ],
      "name": "transferFrom",
      "outputs": [],
      "stateMutability": "nonpayable",
      "type": "function"
    },
    {
      "inputs": [],
      "name": "pause",
      "outputs": [],
      "stateMutability": "nonpayable",
      "type": "function"
    },
    {
      "inputs": [],
      "name": "unpause",
      "outputs": [],
      "stateMutability": "nonpayable",
      "type": "function"
    },
    {
      "inputs": [
        {
          "internalType": "string",
          "name": "uriOfToken",
          "type": "string"
        }
      ],
      "name": "createItem",
      "outputs": [
        {
          "internalType": "uint256",
          "name": "",
          "type": "uint256"
        }
      ],
      "stateMutability": "nonpayable",
      "type": "function"
    },
    {
      "inputs": [
        {
          "internalType": "uint256",
          "name": "tokenId",
          "type": "uint256"
        }
      ],
      "name": "destoryItem",
      "outputs": [
        {
          "internalType": "bool",
          "name": "",
          "type": "bool"
        }
      ],
      "stateMutability": "nonpayable",
      "type": "function"
    },
    {
      "inputs": [
        {
          "internalType": "uint256",
          "name": "",
          "type": "uint256"
        },
        {
          "internalType": "uint256",
          "name": "salesPrice",
          "type": "uint256"
        }
      ],
      "name": "royaltyInfo",
      "outputs": [
        {
          "internalType": "address",
          "name": "receiver",
          "type": "address"
        },
        {
          "internalType": "uint256",
          "name": "royaltyAmount",
          "type": "uint256"
        }
      ],
      "stateMutability": "view",
      "type": "function",
      "constant": true
    },
    {
      "inputs": [
        {
          "internalType": "address",
          "name": "recipient",
          "type": "address"
        },
        {
          "internalType": "uint256",
          "name": "value",
          "type": "uint256"
        }
      ],
      "name": "setRoyalties",
      "outputs": [],
      "stateMutability": "nonpayable",
      "type": "function"
    },
    {
      "inputs": [
        {
          "internalType": "uint256",
          "name": "tokenId",
          "type": "uint256"
        }
      ],
      "name": "tokenURI",
      "outputs": [
        {
          "internalType": "string",
          "name": "",
          "type": "string"
        }
      ],
      "stateMutability": "view",
      "type": "function",
      "constant": true
    },
    {
      "inputs": [
        {
          "internalType": "bytes4",
          "name": "interfaceId",
          "type": "bytes4"
        }
      ],
      "name": "supportsInterface",
      "outputs": [
        {
          "internalType": "bool",
          "name": "",
          "type": "bool"
        }
      ],
      "stateMutability": "view",
      "type": "function",
      "constant": true
    }
  ],
  "bytecode": "0x60806040523480156200001157600080fd5b506040518060400160405280600e81526020017f426c6f636b4e6577734d656469610000000000000000000000000000000000008152506040518060400160405280600381526020017f424e4d000000000000000000000000000000000000000000000000000000000081525081600090805190602001906200009692919062000393565b508060019080519060200190620000af92919062000393565b5050506000600760006101000a81548160ff021916908315150217905550620000e26000801b336200014160201b60201c565b620001147f65d7a28e3265b37a6474929f336521b332c1681b933f6cb9f3376673440d862a336200014160201b60201c565b6200013b73b02e4cc3e37b088bf38da82c01eb42cc10712c8160af6200023360201b60201c565b6200052b565b6200015382826200032060201b60201c565b6200022f5760016008600084815260200190815260200160002060000160008373ffffffffffffffffffffffffffffffffffffffff1673ffffffffffffffffffffffffffffffffffffffff16815260200190815260200160002060006101000a81548160ff021916908315150217905550620001d46200038b60201b60201c565b73ffffffffffffffffffffffffffffffffffffffff168173ffffffffffffffffffffffffffffffffffffffff16837f2f8788117e7eff1d82e926ec794901d17c78024a50270940304540a733656f0d60405160405180910390a45b5050565b6127108111156200027b576040517f08c379a00000000000000000000000000000000000000000000000000000000081526004016200027290620004a4565b60405180910390fd5b60405180604001604052808373ffffffffffffffffffffffffffffffffffffffff1681526020018262ffffff16815250600b60008201518160000160006101000a81548173ffffffffffffffffffffffffffffffffffffffff021916908373ffffffffffffffffffffffffffffffffffffffff16021790555060208201518160000160146101000a81548162ffffff021916908362ffffff1602179055509050505050565b60006008600084815260200190815260200160002060000160008373ffffffffffffffffffffffffffffffffffffffff1673ffffffffffffffffffffffffffffffffffffffff16815260200190815260200160002060009054906101000a900460ff16905092915050565b600033905090565b828054620003a190620004f5565b90600052602060002090601f016020900481019282620003c5576000855562000411565b82601f10620003e057805160ff191683800117855562000411565b8280016001018555821562000411579182015b8281111562000410578251825591602001919060010190620003f3565b5b50905062000420919062000424565b5090565b5b808211156200043f57600081600090555060010162000425565b5090565b600082825260208201905092915050565b7f45524332393831526f79616c746965733a20546f6f2068696768000000000000600082015250565b60006200048c601a8362000443565b9150620004998262000454565b602082019050919050565b60006020820190508181036000830152620004bf816200047d565b9050919050565b7f4e487b7100000000000000000000000000000000000000000000000000000000600052602260045260246000fd5b600060028204905060018216806200050e57607f821691505b60208210811415620005255762000524620004c6565b5b50919050565b614571806200053b6000396000f3fe608060405234801561001057600080fd5b50600436106101cf5760003560e01c80635c975abb11610104578063a217fddf116100a2578063d547741f11610071578063d547741f1461053f578063e63ab1e91461055b578063e985e9c514610579578063e9f3d5a7146105a9576101cf565b8063a217fddf146104b9578063a22cb465146104d7578063b88d4fde146104f3578063c87b56dd1461050f576101cf565b80638456cb59116100de5780638456cb59146104455780638c7ea24b1461044f57806391d148541461046b57806395d89b411461049b576101cf565b80635c975abb146103c75780636352211e146103e557806370a0823114610415576101cf565b80632a55205a116101715780633d54eebb1161014b5780633d54eebb146103555780633f4ba83a1461038557806342842e0e1461038f57806342966c68146103ab576101cf565b80632a55205a146102ec5780632f2ff15d1461031d57806336568abe14610339576101cf565b8063095ea7b3116101ad578063095ea7b31461025257806317b47cc41461026e57806323b872dd146102a0578063248a9ca3146102bc576101cf565b806301ffc9a7146101d457806306fdde0314610204578063081812fc14610222575b600080fd5b6101ee60048036038101906101e99190612c86565b6105d9565b6040516101fb9190612cce565b60405180910390f35b61020c610653565b6040516102199190612d82565b60405180910390f35b61023c60048036038101906102379190612dda565b6106e5565b6040516102499190612e48565b60405180910390f35b61026c60048036038101906102679190612e8f565b61076a565b005b61028860048036038101906102839190612dda565b610882565b60405161029793929190612ede565b60405180910390f35b6102ba60048036038101906102b59190612f1c565b610954565b005b6102d660048036038101906102d19190612fa5565b6109b4565b6040516102e39190612fe1565b60405180910390f35b61030660048036038101906103019190612ffc565b6109d4565b60405161031492919061303c565b60405180910390f35b61033760048036038101906103329190613065565b610a94565b005b610353600480360381019061034e9190613065565b610abd565b005b61036f600480360381019061036a91906131da565b610b40565b60405161037c9190613223565b60405180910390f35b61038d610ce7565b005b6103a960048036038101906103a49190612f1c565b610d24565b005b6103c560048036038101906103c09190612dda565b610d44565b005b6103cf610da0565b6040516103dc9190612cce565b60405180910390f35b6103ff60048036038101906103fa9190612dda565b610db7565b60405161040c9190612e48565b60405180910390f35b61042f600480360381019061042a919061323e565b610e69565b60405161043c9190613223565b60405180910390f35b61044d610f21565b005b61046960048036038101906104649190612e8f565b610f5e565b005b61048560048036038101906104809190613065565b610f82565b6040516104929190612cce565b60405180910390f35b6104a3610fed565b6040516104b09190612d82565b60405180910390f35b6104c161107f565b6040516104ce9190612fe1565b60405180910390f35b6104f160048036038101906104ec9190613297565b611086565b005b61050d60048036038101906105089190613378565b61109c565b005b61052960048036038101906105249190612dda565b6110fe565b6040516105369190612d82565b60405180910390f35b61055960048036038101906105549190613065565b611158565b005b610563611181565b6040516105709190612fe1565b60405180910390f35b610593600480360381019061058e91906133fb565b6111a5565b6040516105a09190612cce565b60405180910390f35b6105c360048036038101906105be9190612dda565b611239565b6040516105d09190612cce565b60405180910390f35b60007f2a55205a000000000000000000000000000000000000000000000000000000007bffffffffffffffffffffffffffffffffffffffffffffffffffffffff1916827bffffffffffffffffffffffffffffffffffffffffffffffffffffffff1916148061064c575061064b82611332565b5b9050919050565b6060600080546106629061346a565b80601f016020809104026020016040519081016040528092919081815260200182805461068e9061346a565b80156106db5780601f106106b0576101008083540402835291602001916106db565b820191906000526020600020905b8154815290600101906020018083116106be57829003601f168201915b5050505050905090565b60006106f0826113ac565b61072f576040517f08c379a00000000000000000000000000000000000000000000000000000000081526004016107269061350e565b60405180910390fd5b6004600083815260200190815260200160002060009054906101000a900473ffffffffffffffffffffffffffffffffffffffff169050919050565b600061077582610db7565b90508073ffffffffffffffffffffffffffffffffffffffff168373ffffffffffffffffffffffffffffffffffffffff1614156107e6576040517f08c379a00000000000000000000000000000000000000000000000000000000081526004016107dd906135a0565b60405180910390fd5b8073ffffffffffffffffffffffffffffffffffffffff16610805611418565b73ffffffffffffffffffffffffffffffffffffffff16148061083457506108338161082e611418565b6111a5565b5b610873576040517f08c379a000000000000000000000000000000000000000000000000000000000815260040161086a90613632565b60405180910390fd5b61087d8383611420565b505050565b60096020528060005260406000206000915090508060000154908060010160009054906101000a900473ffffffffffffffffffffffffffffffffffffffff16908060020180546108d19061346a565b80601f01602080910402602001604051908101604052809291908181526020018280546108fd9061346a565b801561094a5780601f1061091f5761010080835404028352916020019161094a565b820191906000526020600020905b81548152906001019060200180831161092d57829003601f168201915b5050505050905083565b61096561095f611418565b826114d9565b6109a4576040517f08c379a000000000000000000000000000000000000000000000000000000000815260040161099b906136c4565b60405180910390fd5b6109af8383836115b7565b505050565b600060086000838152602001908152602001600020600101549050919050565b6000806000600b6040518060400160405290816000820160009054906101000a900473ffffffffffffffffffffffffffffffffffffffff1673ffffffffffffffffffffffffffffffffffffffff1673ffffffffffffffffffffffffffffffffffffffff1681526020016000820160149054906101000a900462ffffff1662ffffff1662ffffff1681525050905080600001519250612710816020015162ffffff1685610a809190613713565b610a8a919061379c565b9150509250929050565b610a9d826109b4565b610aae81610aa9611418565b611813565b610ab883836118b0565b505050565b610ac5611418565b73ffffffffffffffffffffffffffffffffffffffff168173ffffffffffffffffffffffffffffffffffffffff1614610b32576040517f08c379a0000000000000000000000000000000000000000000000000000000008152600401610b299061383f565b60405180910390fd5b610b3c8282611991565b5050565b6000610b4a610da0565b15610b8a576040517f08c379a0000000000000000000000000000000000000000000000000000000008152600401610b81906138ab565b60405180910390fd5b6000825111610bce576040517f08c379a0000000000000000000000000000000000000000000000000000000008152600401610bc59061393d565b60405180910390fd5b610bd8600a611a73565b6000610be4600a611a89565b9050610bf03382611a97565b60405180606001604052808281526020013373ffffffffffffffffffffffffffffffffffffffff16815260200184815250600960008381526020019081526020016000206000820151816000015560208201518160010160006101000a81548173ffffffffffffffffffffffffffffffffffffffff021916908373ffffffffffffffffffffffffffffffffffffffff1602179055506040820151816002019080519060200190610ca1929190612b37565b509050507f706e18d0d2b7221277db235e5924d3b2e38248f7073690704b30626d7047eca43384604051610cd692919061395d565b60405180910390a180915050919050565b7f65d7a28e3265b37a6474929f336521b332c1681b933f6cb9f3376673440d862a610d1981610d14611418565b611813565b610d21611ab5565b50565b610d3f8383836040518060200160405280600081525061109c565b505050565b610d55610d4f611418565b826114d9565b610d94576040517f08c379a0000000000000000000000000000000000000000000000000000000008152600401610d8b906139ff565b60405180910390fd5b610d9d81611b57565b50565b6000600760009054906101000a900460ff16905090565b6000806002600084815260200190815260200160002060009054906101000a900473ffffffffffffffffffffffffffffffffffffffff169050600073ffffffffffffffffffffffffffffffffffffffff168173ffffffffffffffffffffffffffffffffffffffff161415610e60576040517f08c379a0000000000000000000000000000000000000000000000000000000008152600401610e5790613a91565b60405180910390fd5b80915050919050565b60008073ffffffffffffffffffffffffffffffffffffffff168273ffffffffffffffffffffffffffffffffffffffff161415610eda576040517f08c379a0000000000000000000000000000000000000000000000000000000008152600401610ed190613b23565b60405180910390fd5b600360008373ffffffffffffffffffffffffffffffffffffffff1673ffffffffffffffffffffffffffffffffffffffff168152602001908152602001600020549050919050565b7f65d7a28e3265b37a6474929f336521b332c1681b933f6cb9f3376673440d862a610f5381610f4e611418565b611813565b610f5b611b63565b50565b6000801b610f7381610f6e611418565b611813565b610f7d8383611c06565b505050565b60006008600084815260200190815260200160002060000160008373ffffffffffffffffffffffffffffffffffffffff1673ffffffffffffffffffffffffffffffffffffffff16815260200190815260200160002060009054906101000a900460ff16905092915050565b606060018054610ffc9061346a565b80601f01602080910402602001604051908101604052809291908181526020018280546110289061346a565b80156110755780601f1061104a57610100808354040283529160200191611075565b820191906000526020600020905b81548152906001019060200180831161105857829003601f168201915b5050505050905090565b6000801b81565b611098611091611418565b8383611cf0565b5050565b6110ad6110a7611418565b836114d9565b6110ec576040517f08c379a00000000000000000000000000000000000000000000000000000000081526004016110e3906136c4565b60405180910390fd5b6110f884848484611e5d565b50505050565b6060611109826113ac565b611148576040517f08c379a000000000000000000000000000000000000000000000000000000000815260040161113f90613bb5565b60405180910390fd5b61115182611eb9565b9050919050565b611161826109b4565b6111728161116d611418565b611813565b61117c8383611991565b505050565b7f65d7a28e3265b37a6474929f336521b332c1681b933f6cb9f3376673440d862a81565b6000600560008473ffffffffffffffffffffffffffffffffffffffff1673ffffffffffffffffffffffffffffffffffffffff16815260200190815260200160002060008373ffffffffffffffffffffffffffffffffffffffff1673ffffffffffffffffffffffffffffffffffffffff16815260200190815260200160002060009054906101000a900460ff16905092915050565b6000611243610da0565b15611283576040517f08c379a000000000000000000000000000000000000000000000000000000000815260040161127a906138ab565b60405180910390fd5b61128c826113ac565b6112cb576040517f08c379a00000000000000000000000000000000000000000000000000000000081526004016112c290613c47565b60405180910390fd5b600960008381526020019081526020016000206000808201600090556001820160006101000a81549073ffffffffffffffffffffffffffffffffffffffff021916905560028201600061131e9190612bbd565b505061132982610d44565b60019050919050565b60007f7965db0b000000000000000000000000000000000000000000000000000000007bffffffffffffffffffffffffffffffffffffffffffffffffffffffff1916827bffffffffffffffffffffffffffffffffffffffffffffffffffffffff191614806113a557506113a48261200b565b5b9050919050565b60008073ffffffffffffffffffffffffffffffffffffffff166002600084815260200190815260200160002060009054906101000a900473ffffffffffffffffffffffffffffffffffffffff1673ffffffffffffffffffffffffffffffffffffffff1614159050919050565b600033905090565b816004600083815260200190815260200160002060006101000a81548173ffffffffffffffffffffffffffffffffffffffff021916908373ffffffffffffffffffffffffffffffffffffffff160217905550808273ffffffffffffffffffffffffffffffffffffffff1661149383610db7565b73ffffffffffffffffffffffffffffffffffffffff167f8c5be1e5ebec7d5bd14f71427d1e84f3dd0314c0f7b2291e5b200ac8c7c3b92560405160405180910390a45050565b60006114e4826113ac565b611523576040517f08c379a000000000000000000000000000000000000000000000000000000000815260040161151a90613cd9565b60405180910390fd5b600061152e83610db7565b90508073ffffffffffffffffffffffffffffffffffffffff168473ffffffffffffffffffffffffffffffffffffffff16148061159d57508373ffffffffffffffffffffffffffffffffffffffff16611585846106e5565b73ffffffffffffffffffffffffffffffffffffffff16145b806115ae57506115ad81856111a5565b5b91505092915050565b8273ffffffffffffffffffffffffffffffffffffffff166115d782610db7565b73ffffffffffffffffffffffffffffffffffffffff161461162d576040517f08c379a000000000000000000000000000000000000000000000000000000000815260040161162490613d6b565b60405180910390fd5b600073ffffffffffffffffffffffffffffffffffffffff168273ffffffffffffffffffffffffffffffffffffffff16141561169d576040517f08c379a000000000000000000000000000000000000000000000000000000000815260040161169490613dfd565b60405180910390fd5b6116a88383836120ed565b6116b3600082611420565b6001600360008573ffffffffffffffffffffffffffffffffffffffff1673ffffffffffffffffffffffffffffffffffffffff16815260200190815260200160002060008282546117039190613e1d565b925050819055506001600360008473ffffffffffffffffffffffffffffffffffffffff1673ffffffffffffffffffffffffffffffffffffffff168152602001908152602001600020600082825461175a9190613e51565b92505081905550816002600083815260200190815260200160002060006101000a81548173ffffffffffffffffffffffffffffffffffffffff021916908373ffffffffffffffffffffffffffffffffffffffff160217905550808273ffffffffffffffffffffffffffffffffffffffff168473ffffffffffffffffffffffffffffffffffffffff167fddf252ad1be2c89b69c2b068fc378daa952ba7f163c4a11628f55a4df523b3ef60405160405180910390a4505050565b61181d8282610f82565b6118ac576118428173ffffffffffffffffffffffffffffffffffffffff166014612145565b6118508360001c6020612145565b604051602001611861929190613f7b565b6040516020818303038152906040526040517f08c379a00000000000000000000000000000000000000000000000000000000081526004016118a39190612d82565b60405180910390fd5b5050565b6118ba8282610f82565b61198d5760016008600084815260200190815260200160002060000160008373ffffffffffffffffffffffffffffffffffffffff1673ffffffffffffffffffffffffffffffffffffffff16815260200190815260200160002060006101000a81548160ff021916908315150217905550611932611418565b73ffffffffffffffffffffffffffffffffffffffff168173ffffffffffffffffffffffffffffffffffffffff16837f2f8788117e7eff1d82e926ec794901d17c78024a50270940304540a733656f0d60405160405180910390a45b5050565b61199b8282610f82565b15611a6f5760006008600084815260200190815260200160002060000160008373ffffffffffffffffffffffffffffffffffffffff1673ffffffffffffffffffffffffffffffffffffffff16815260200190815260200160002060006101000a81548160ff021916908315150217905550611a14611418565b73ffffffffffffffffffffffffffffffffffffffff168173ffffffffffffffffffffffffffffffffffffffff16837ff6391f5c32d9c69d2a47ea670b442974b53935d1edc7fd64eb21e047a839171b60405160405180910390a45b5050565b6001816000016000828254019250508190555050565b600081600001549050919050565b611ab1828260405180602001604052806000815250612381565b5050565b611abd610da0565b611afc576040517f08c379a0000000000000000000000000000000000000000000000000000000008152600401611af390614001565b60405180910390fd5b6000600760006101000a81548160ff0219169083151502179055507f5db9ee0a495bf2e6ff9c91a7834c1ba4fdd244a5e8aa4e537bd38aeae4b073aa611b40611418565b604051611b4d9190612e48565b60405180910390a1565b611b60816123dc565b50565b611b6b610da0565b15611bab576040517f08c379a0000000000000000000000000000000000000000000000000000000008152600401611ba2906138ab565b60405180910390fd5b6001600760006101000a81548160ff0219169083151502179055507f62e78cea01bee320cd4e420270b5ea74000d11b0c9f74754ebdbfc544b05a258611bef611418565b604051611bfc9190612e48565b60405180910390a1565b612710811115611c4b576040517f08c379a0000000000000000000000000000000000000000000000000000000008152600401611c429061406d565b60405180910390fd5b60405180604001604052808373ffffffffffffffffffffffffffffffffffffffff1681526020018262ffffff16815250600b60008201518160000160006101000a81548173ffffffffffffffffffffffffffffffffffffffff021916908373ffffffffffffffffffffffffffffffffffffffff16021790555060208201518160000160146101000a81548162ffffff021916908362ffffff1602179055509050505050565b8173ffffffffffffffffffffffffffffffffffffffff168373ffffffffffffffffffffffffffffffffffffffff161415611d5f576040517f08c379a0000000000000000000000000000000000000000000000000000000008152600401611d56906140d9565b60405180910390fd5b80600560008573ffffffffffffffffffffffffffffffffffffffff1673ffffffffffffffffffffffffffffffffffffffff16815260200190815260200160002060008473ffffffffffffffffffffffffffffffffffffffff1673ffffffffffffffffffffffffffffffffffffffff16815260200190815260200160002060006101000a81548160ff0219169083151502179055508173ffffffffffffffffffffffffffffffffffffffff168373ffffffffffffffffffffffffffffffffffffffff167f17307eab39ab6107e8899845ad3d59bd9653f200f220920489ca2b5937696c3183604051611e509190612cce565b60405180910390a3505050565b611e688484846115b7565b611e748484848461242f565b611eb3576040517f08c379a0000000000000000000000000000000000000000000000000000000008152600401611eaa9061416b565b60405180910390fd5b50505050565b6060611ec4826113ac565b611f03576040517f08c379a0000000000000000000000000000000000000000000000000000000008152600401611efa906141fd565b60405180910390fd5b6000600660008481526020019081526020016000208054611f239061346a565b80601f0160208091040260200160405190810160405280929190818152602001828054611f4f9061346a565b8015611f9c5780601f10611f7157610100808354040283529160200191611f9c565b820191906000526020600020905b815481529060010190602001808311611f7f57829003601f168201915b505050505090506000611fad6125b7565b9050600081511415611fc3578192505050612006565b600082511115611ff8578082604051602001611fe092919061421d565b60405160208183030381529060405292505050612006565b612001846125ce565b925050505b919050565b60007f80ac58cd000000000000000000000000000000000000000000000000000000007bffffffffffffffffffffffffffffffffffffffffffffffffffffffff1916827bffffffffffffffffffffffffffffffffffffffffffffffffffffffff191614806120d657507f5b5e139f000000000000000000000000000000000000000000000000000000007bffffffffffffffffffffffffffffffffffffffffffffffffffffffff1916827bffffffffffffffffffffffffffffffffffffffffffffffffffffffff1916145b806120e657506120e582612675565b5b9050919050565b6120f5610da0565b15612135576040517f08c379a000000000000000000000000000000000000000000000000000000000815260040161212c906138ab565b60405180910390fd5b6121408383836126df565b505050565b6060600060028360026121589190613713565b6121629190613e51565b67ffffffffffffffff81111561217b5761217a6130af565b5b6040519080825280601f01601f1916602001820160405280156121ad5781602001600182028036833780820191505090505b5090507f3000000000000000000000000000000000000000000000000000000000000000816000815181106121e5576121e4614241565b5b60200101907effffffffffffffffffffffffffffffffffffffffffffffffffffffffffffff1916908160001a9053507f78000000000000000000000000000000000000000000000000000000000000008160018151811061224957612248614241565b5b60200101907effffffffffffffffffffffffffffffffffffffffffffffffffffffffffffff1916908160001a905350600060018460026122899190613713565b6122939190613e51565b90505b6001811115612333577f3031323334353637383961626364656600000000000000000000000000000000600f8616601081106122d5576122d4614241565b5b1a60f81b8282815181106122ec576122eb614241565b5b60200101907effffffffffffffffffffffffffffffffffffffffffffffffffffffffffffff1916908160001a905350600485901c94508061232c90614270565b9050612296565b5060008414612377576040517f08c379a000000000000000000000000000000000000000000000000000000000815260040161236e906142e6565b60405180910390fd5b8091505092915050565b61238b83836126e4565b612398600084848461242f565b6123d7576040517f08c379a00000000000000000000000000000000000000000000000000000000081526004016123ce9061416b565b60405180910390fd5b505050565b6123e5816128b2565b60006006600083815260200190815260200160002080546124059061346a565b90501461242c5760066000828152602001908152602001600020600061242b9190612bbd565b5b50565b60006124508473ffffffffffffffffffffffffffffffffffffffff166129c3565b156125aa578373ffffffffffffffffffffffffffffffffffffffff1663150b7a02612479611418565b8786866040518563ffffffff1660e01b815260040161249b949392919061435b565b6020604051808303816000875af19250505080156124d757506040513d601f19601f820116820180604052508101906124d491906143bc565b60015b61255a573d8060008114612507576040519150601f19603f3d011682016040523d82523d6000602084013e61250c565b606091505b50600081511415612552576040517f08c379a00000000000000000000000000000000000000000000000000000000081526004016125499061416b565b60405180910390fd5b805181602001fd5b63150b7a0260e01b7bffffffffffffffffffffffffffffffffffffffffffffffffffffffff1916817bffffffffffffffffffffffffffffffffffffffffffffffffffffffff1916149150506125af565b600190505b949350505050565b606060405180602001604052806000815250905090565b60606125d9826113ac565b612618576040517f08c379a000000000000000000000000000000000000000000000000000000000815260040161260f90613bb5565b60405180910390fd5b60006126226125b7565b90506000815111612642576040518060200160405280600081525061266d565b8061264c846129d6565b60405160200161265d92919061421d565b6040516020818303038152906040525b915050919050565b60007f01ffc9a7000000000000000000000000000000000000000000000000000000007bffffffffffffffffffffffffffffffffffffffffffffffffffffffff1916827bffffffffffffffffffffffffffffffffffffffffffffffffffffffff1916149050919050565b505050565b600073ffffffffffffffffffffffffffffffffffffffff168273ffffffffffffffffffffffffffffffffffffffff161415612754576040517f08c379a000000000000000000000000000000000000000000000000000000000815260040161274b90614435565b60405180910390fd5b61275d816113ac565b1561279d576040517f08c379a0000000000000000000000000000000000000000000000000000000008152600401612794906144a1565b60405180910390fd5b6127a9600083836120ed565b6001600360008473ffffffffffffffffffffffffffffffffffffffff1673ffffffffffffffffffffffffffffffffffffffff16815260200190815260200160002060008282546127f99190613e51565b92505081905550816002600083815260200190815260200160002060006101000a81548173ffffffffffffffffffffffffffffffffffffffff021916908373ffffffffffffffffffffffffffffffffffffffff160217905550808273ffffffffffffffffffffffffffffffffffffffff16600073ffffffffffffffffffffffffffffffffffffffff167fddf252ad1be2c89b69c2b068fc378daa952ba7f163c4a11628f55a4df523b3ef60405160405180910390a45050565b60006128bd82610db7565b90506128cb816000846120ed565b6128d6600083611420565b6001600360008373ffffffffffffffffffffffffffffffffffffffff1673ffffffffffffffffffffffffffffffffffffffff16815260200190815260200160002060008282546129269190613e1d565b925050819055506002600083815260200190815260200160002060006101000a81549073ffffffffffffffffffffffffffffffffffffffff021916905581600073ffffffffffffffffffffffffffffffffffffffff168273ffffffffffffffffffffffffffffffffffffffff167fddf252ad1be2c89b69c2b068fc378daa952ba7f163c4a11628f55a4df523b3ef60405160405180910390a45050565b600080823b905060008111915050919050565b60606000821415612a1e576040518060400160405280600181526020017f30000000000000000000000000000000000000000000000000000000000000008152509050612b32565b600082905060005b60008214612a50578080612a39906144c1565b915050600a82612a49919061379c565b9150612a26565b60008167ffffffffffffffff811115612a6c57612a6b6130af565b5b6040519080825280601f01601f191660200182016040528015612a9e5781602001600182028036833780820191505090505b5090505b60008514612b2b57600182612ab79190613e1d565b9150600a85612ac6919061450a565b6030612ad29190613e51565b60f81b818381518110612ae857612ae7614241565b5b60200101907effffffffffffffffffffffffffffffffffffffffffffffffffffffffffffff1916908160001a905350600a85612b24919061379c565b9450612aa2565b8093505050505b919050565b828054612b439061346a565b90600052602060002090601f016020900481019282612b655760008555612bac565b82601f10612b7e57805160ff1916838001178555612bac565b82800160010185558215612bac579182015b82811115612bab578251825591602001919060010190612b90565b5b509050612bb99190612bfd565b5090565b508054612bc99061346a565b6000825580601f10612bdb5750612bfa565b601f016020900490600052602060002090810190612bf99190612bfd565b5b50565b5b80821115612c16576000816000905550600101612bfe565b5090565b6000604051905090565b600080fd5b600080fd5b60007fffffffff0000000000000000000000000000000000000000000000000000000082169050919050565b612c6381612c2e565b8114612c6e57600080fd5b50565b600081359050612c8081612c5a565b92915050565b600060208284031215612c9c57612c9b612c24565b5b6000612caa84828501612c71565b91505092915050565b60008115159050919050565b612cc881612cb3565b82525050565b6000602082019050612ce36000830184612cbf565b92915050565b600081519050919050565b600082825260208201905092915050565b60005b83811015612d23578082015181840152602081019050612d08565b83811115612d32576000848401525b50505050565b6000601f19601f8301169050919050565b6000612d5482612ce9565b612d5e8185612cf4565b9350612d6e818560208601612d05565b612d7781612d38565b840191505092915050565b60006020820190508181036000830152612d9c8184612d49565b905092915050565b6000819050919050565b612db781612da4565b8114612dc257600080fd5b50565b600081359050612dd481612dae565b92915050565b600060208284031215612df057612def612c24565b5b6000612dfe84828501612dc5565b91505092915050565b600073ffffffffffffffffffffffffffffffffffffffff82169050919050565b6000612e3282612e07565b9050919050565b612e4281612e27565b82525050565b6000602082019050612e5d6000830184612e39565b92915050565b612e6c81612e27565b8114612e7757600080fd5b50565b600081359050612e8981612e63565b92915050565b60008060408385031215612ea657612ea5612c24565b5b6000612eb485828601612e7a565b9250506020612ec585828601612dc5565b9150509250929050565b612ed881612da4565b82525050565b6000606082019050612ef36000830186612ecf565b612f006020830185612e39565b8181036040830152612f128184612d49565b9050949350505050565b600080600060608486031215612f3557612f34612c24565b5b6000612f4386828701612e7a565b9350506020612f5486828701612e7a565b9250506040612f6586828701612dc5565b9150509250925092565b6000819050919050565b612f8281612f6f565b8114612f8d57600080fd5b50565b600081359050612f9f81612f79565b92915050565b600060208284031215612fbb57612fba612c24565b5b6000612fc984828501612f90565b91505092915050565b612fdb81612f6f565b82525050565b6000602082019050612ff66000830184612fd2565b92915050565b6000806040838503121561301357613012612c24565b5b600061302185828601612dc5565b925050602061303285828601612dc5565b9150509250929050565b60006040820190506130516000830185612e39565b61305e6020830184612ecf565b9392505050565b6000806040838503121561307c5761307b612c24565b5b600061308a85828601612f90565b925050602061309b85828601612e7a565b9150509250929050565b600080fd5b600080fd5b7f4e487b7100000000000000000000000000000000000000000000000000000000600052604160045260246000fd5b6130e782612d38565b810181811067ffffffffffffffff82111715613106576131056130af565b5b80604052505050565b6000613119612c1a565b905061312582826130de565b919050565b600067ffffffffffffffff821115613145576131446130af565b5b61314e82612d38565b9050602081019050919050565b82818337600083830152505050565b600061317d6131788461312a565b61310f565b905082815260208101848484011115613199576131986130aa565b5b6131a484828561315b565b509392505050565b600082601f8301126131c1576131c06130a5565b5b81356131d184826020860161316a565b91505092915050565b6000602082840312156131f0576131ef612c24565b5b600082013567ffffffffffffffff81111561320e5761320d612c29565b5b61321a848285016131ac565b91505092915050565b60006020820190506132386000830184612ecf565b92915050565b60006020828403121561325457613253612c24565b5b600061326284828501612e7a565b91505092915050565b61327481612cb3565b811461327f57600080fd5b50565b6000813590506132918161326b565b92915050565b600080604083850312156132ae576132ad612c24565b5b60006132bc85828601612e7a565b92505060206132cd85828601613282565b9150509250929050565b600067ffffffffffffffff8211156132f2576132f16130af565b5b6132fb82612d38565b9050602081019050919050565b600061331b613316846132d7565b61310f565b905082815260208101848484011115613337576133366130aa565b5b61334284828561315b565b509392505050565b600082601f83011261335f5761335e6130a5565b5b813561336f848260208601613308565b91505092915050565b6000806000806080858703121561339257613391612c24565b5b60006133a087828801612e7a565b94505060206133b187828801612e7a565b93505060406133c287828801612dc5565b925050606085013567ffffffffffffffff8111156133e3576133e2612c29565b5b6133ef8782880161334a565b91505092959194509250565b6000806040838503121561341257613411612c24565b5b600061342085828601612e7a565b925050602061343185828601612e7a565b9150509250929050565b7f4e487b7100000000000000000000000000000000000000000000000000000000600052602260045260246000fd5b6000600282049050600182168061348257607f821691505b602082108114156134965761349561343b565b5b50919050565b7f4552433732313a20617070726f76656420717565727920666f72206e6f6e657860008201527f697374656e7420746f6b656e0000000000000000000000000000000000000000602082015250565b60006134f8602c83612cf4565b91506135038261349c565b604082019050919050565b60006020820190508181036000830152613527816134eb565b9050919050565b7f4552433732313a20617070726f76616c20746f2063757272656e74206f776e6560008201527f7200000000000000000000000000000000000000000000000000000000000000602082015250565b600061358a602183612cf4565b91506135958261352e565b604082019050919050565b600060208201905081810360008301526135b98161357d565b9050919050565b7f4552433732313a20617070726f76652063616c6c6572206973206e6f74206f7760008201527f6e6572206e6f7220617070726f76656420666f7220616c6c0000000000000000602082015250565b600061361c603883612cf4565b9150613627826135c0565b604082019050919050565b6000602082019050818103600083015261364b8161360f565b9050919050565b7f4552433732313a207472616e736665722063616c6c6572206973206e6f74206f60008201527f776e6572206e6f7220617070726f766564000000000000000000000000000000602082015250565b60006136ae603183612cf4565b91506136b982613652565b604082019050919050565b600060208201905081810360008301526136dd816136a1565b9050919050565b7f4e487b7100000000000000000000000000000000000000000000000000000000600052601160045260246000fd5b600061371e82612da4565b915061372983612da4565b9250817fffffffffffffffffffffffffffffffffffffffffffffffffffffffffffffffff0483118215151615613762576137616136e4565b5b828202905092915050565b7f4e487b7100000000000000000000000000000000000000000000000000000000600052601260045260246000fd5b60006137a782612da4565b91506137b283612da4565b9250826137c2576137c161376d565b5b828204905092915050565b7f416363657373436f6e74726f6c3a2063616e206f6e6c792072656e6f756e636560008201527f20726f6c657320666f722073656c660000000000000000000000000000000000602082015250565b6000613829602f83612cf4565b9150613834826137cd565b604082019050919050565b600060208201905081810360008301526138588161381c565b9050919050565b7f5061757361626c653a2070617573656400000000000000000000000000000000600082015250565b6000613895601083612cf4565b91506138a08261385f565b602082019050919050565b600060208201905081810360008301526138c481613888565b9050919050565b7f426c6f636b4e6577734d65646961546f6b656e3a204e6f20546f6b656e20555260008201527f4920737570706c69656400000000000000000000000000000000000000000000602082015250565b6000613927602a83612cf4565b9150613932826138cb565b604082019050919050565b600060208201905081810360008301526139568161391a565b9050919050565b60006040820190506139726000830185612e39565b81810360208301526139848184612d49565b90509392505050565b7f4552433732314275726e61626c653a2063616c6c6572206973206e6f74206f7760008201527f6e6572206e6f7220617070726f76656400000000000000000000000000000000602082015250565b60006139e9603083612cf4565b91506139f48261398d565b604082019050919050565b60006020820190508181036000830152613a18816139dc565b9050919050565b7f4552433732313a206f776e657220717565727920666f72206e6f6e657869737460008201527f656e7420746f6b656e0000000000000000000000000000000000000000000000602082015250565b6000613a7b602983612cf4565b9150613a8682613a1f565b604082019050919050565b60006020820190508181036000830152613aaa81613a6e565b9050919050565b7f4552433732313a2062616c616e636520717565727920666f7220746865207a6560008201527f726f206164647265737300000000000000000000000000000000000000000000602082015250565b6000613b0d602a83612cf4565b9150613b1882613ab1565b604082019050919050565b60006020820190508181036000830152613b3c81613b00565b9050919050565b7f4552433732314d657461646174613a2055524920717565727920666f72206e6f60008201527f6e6578697374656e7420746f6b656e0000000000000000000000000000000000602082015250565b6000613b9f602f83612cf4565b9150613baa82613b43565b604082019050919050565b60006020820190508181036000830152613bce81613b92565b9050919050565b7f426c6f636b4e6577734d65646961546f6b656e3a204275726e20666f72206e6f60008201527f6e6578697374656e7420746f6b656e0000000000000000000000000000000000602082015250565b6000613c31602f83612cf4565b9150613c3c82613bd5565b604082019050919050565b60006020820190508181036000830152613c6081613c24565b9050919050565b7f4552433732313a206f70657261746f7220717565727920666f72206e6f6e657860008201527f697374656e7420746f6b656e0000000000000000000000000000000000000000602082015250565b6000613cc3602c83612cf4565b9150613cce82613c67565b604082019050919050565b60006020820190508181036000830152613cf281613cb6565b9050919050565b7f4552433732313a207472616e73666572206f6620746f6b656e2074686174206960008201527f73206e6f74206f776e0000000000000000000000000000000000000000000000602082015250565b6000613d55602983612cf4565b9150613d6082613cf9565b604082019050919050565b60006020820190508181036000830152613d8481613d48565b9050919050565b7f4552433732313a207472616e7366657220746f20746865207a65726f2061646460008201527f7265737300000000000000000000000000000000000000000000000000000000602082015250565b6000613de7602483612cf4565b9150613df282613d8b565b604082019050919050565b60006020820190508181036000830152613e1681613dda565b9050919050565b6000613e2882612da4565b9150613e3383612da4565b925082821015613e4657613e456136e4565b5b828203905092915050565b6000613e5c82612da4565b9150613e6783612da4565b9250827fffffffffffffffffffffffffffffffffffffffffffffffffffffffffffffffff03821115613e9c57613e9b6136e4565b5b828201905092915050565b600081905092915050565b7f416363657373436f6e74726f6c3a206163636f756e7420000000000000000000600082015250565b6000613ee8601783613ea7565b9150613ef382613eb2565b601782019050919050565b6000613f0982612ce9565b613f138185613ea7565b9350613f23818560208601612d05565b80840191505092915050565b7f206973206d697373696e6720726f6c6520000000000000000000000000000000600082015250565b6000613f65601183613ea7565b9150613f7082613f2f565b601182019050919050565b6000613f8682613edb565b9150613f928285613efe565b9150613f9d82613f58565b9150613fa98284613efe565b91508190509392505050565b7f5061757361626c653a206e6f7420706175736564000000000000000000000000600082015250565b6000613feb601483612cf4565b9150613ff682613fb5565b602082019050919050565b6000602082019050818103600083015261401a81613fde565b9050919050565b7f45524332393831526f79616c746965733a20546f6f2068696768000000000000600082015250565b6000614057601a83612cf4565b915061406282614021565b602082019050919050565b600060208201905081810360008301526140868161404a565b9050919050565b7f4552433732313a20617070726f766520746f2063616c6c657200000000000000600082015250565b60006140c3601983612cf4565b91506140ce8261408d565b602082019050919050565b600060208201905081810360008301526140f2816140b6565b9050919050565b7f4552433732313a207472616e7366657220746f206e6f6e20455243373231526560008201527f63656976657220696d706c656d656e7465720000000000000000000000000000602082015250565b6000614155603283612cf4565b9150614160826140f9565b604082019050919050565b6000602082019050818103600083015261418481614148565b9050919050565b7f45524337323155524953746f726167653a2055524920717565727920666f722060008201527f6e6f6e6578697374656e7420746f6b656e000000000000000000000000000000602082015250565b60006141e7603183612cf4565b91506141f28261418b565b604082019050919050565b60006020820190508181036000830152614216816141da565b9050919050565b60006142298285613efe565b91506142358284613efe565b91508190509392505050565b7f4e487b7100000000000000000000000000000000000000000000000000000000600052603260045260246000fd5b600061427b82612da4565b9150600082141561428f5761428e6136e4565b5b600182039050919050565b7f537472696e67733a20686578206c656e67746820696e73756666696369656e74600082015250565b60006142d0602083612cf4565b91506142db8261429a565b602082019050919050565b600060208201905081810360008301526142ff816142c3565b9050919050565b600081519050919050565b600082825260208201905092915050565b600061432d82614306565b6143378185614311565b9350614347818560208601612d05565b61435081612d38565b840191505092915050565b60006080820190506143706000830187612e39565b61437d6020830186612e39565b61438a6040830185612ecf565b818103606083015261439c8184614322565b905095945050505050565b6000815190506143b681612c5a565b92915050565b6000602082840312156143d2576143d1612c24565b5b60006143e0848285016143a7565b91505092915050565b7f4552433732313a206d696e7420746f20746865207a65726f2061646472657373600082015250565b600061441f602083612cf4565b915061442a826143e9565b602082019050919050565b6000602082019050818103600083015261444e81614412565b9050919050565b7f4552433732313a20746f6b656e20616c7265616479206d696e74656400000000600082015250565b600061448b601c83612cf4565b915061449682614455565b602082019050919050565b600060208201905081810360008301526144ba8161447e565b9050919050565b60006144cc82612da4565b91507fffffffffffffffffffffffffffffffffffffffffffffffffffffffffffffffff8214156144ff576144fe6136e4565b5b600182019050919050565b600061451582612da4565b915061452083612da4565b9250826145305761452f61376d565b5b82820690509291505056fea26469706673582212209946bd814308b194c2927b8c6e2681907fb60dc720c2992e105c02e01d60479164736f6c634300080b0033",
  "immutableReferences": {},
  "source": "// SPDX-License-Identifier: CPL\npragma solidity ^0.8.2;\n\nimport \"../../node_modules/@openzeppelin/contracts/token/ERC721/ERC721.sol\";\nimport \"../../node_modules/@openzeppelin/contracts/token/ERC721/extensions/ERC721URIStorage.sol\";\nimport \"../../node_modules/@openzeppelin/contracts/security/Pausable.sol\";\nimport \"../../node_modules/@openzeppelin/contracts/access/AccessControl.sol\";\nimport \"../../node_modules/@openzeppelin/contracts/token/ERC721/extensions/ERC721Burnable.sol\";\nimport \"../../node_modules/@openzeppelin/contracts/utils/Counters.sol\";\n\n// NFT Token Royalties Interface\nimport \"./ERC2981/IERC2981Royalties.sol\";\n\n/// @title NFT Contract to mint news articles as NFTs\n/// @author Lukas Knutti <hello@rootine.ch>\n/// @notice To mint articles as NFTs please head to blocknewsmedia.us\n/// @custom:security-contact hello@rootine.ch\ncontract BlockNewsMediaToken is\n    ERC721,\n    ERC721URIStorage,\n    Pausable,\n    AccessControl,\n    ERC721Burnable\n{\n    using Counters for Counters.Counter;\n\n    mapping(uint256 => Item) public Items;\n\n    struct Item {\n        uint256 id;\n        address creator;\n        string uri;\n    }\n\n    struct RoyaltyInfo {\n        address recipient;\n        uint24 amount;\n    }\n\n    event tokenMinted(address _from, string _uri);\n\n    //TODO: UPDATE THIS TO REAL ADDRESS\n    ///@dev address to receive all royalty payments\n    address private constant royaltiesReceiver =\n        0xB02e4cC3E37b088bF38Da82c01Eb42cC10712c81;\n\n    Counters.Counter private _tokenIds;\n    RoyaltyInfo private _royalties;\n\n    bytes32 public constant PAUSER_ROLE = keccak256(\"PAUSER_ROLE\");\n\n    constructor() ERC721(\"BlockNewsMedia\", \"BNM\") {\n        ///@dev grant default roles to contract owner\n        _grantRole(DEFAULT_ADMIN_ROLE, msg.sender);\n        _grantRole(PAUSER_ROLE, msg.sender);\n\n        ///@dev set royalties to 1.75%\n        _setRoyalties(royaltiesReceiver, 175);\n    }\n\n    function pause() public onlyRole(PAUSER_ROLE) {\n        _pause();\n    }\n\n    function unpause() public onlyRole(PAUSER_ROLE) {\n        _unpause();\n    }\n\n    /// @notice Called with the uri of the token metadata to mint a new token\n    /// @param uriOfToken - the uri to the ipfs hosted token metadata\n    /// @return tokenId - the ID of the token minted\n    function createItem(string memory uriOfToken)\n        public\n        whenNotPaused\n        returns (uint256)\n    {\n        require(\n            bytes(uriOfToken).length > 0,\n            \"BlockNewsMediaToken: No Token URI supplied\"\n        );\n        _tokenIds.increment();\n\n        uint256 newItemId = _tokenIds.current();\n\n        _safeMint(msg.sender, newItemId);\n\n        Items[newItemId] = Item(newItemId, msg.sender, uriOfToken);\n\n        emit tokenMinted(msg.sender, uriOfToken);\n\n        return newItemId;\n    }\n\n    /// @notice Called with the ID of the token to burn the token\n    /// @param tokenId - token ID of the token to burn\n    /// @return success - a bool to indicate the burn success\n    function destoryItem(uint256 tokenId) public whenNotPaused returns (bool) {\n        require(\n            _exists(tokenId),\n            \"BlockNewsMediaToken: Burn for nonexistent token\"\n        );\n        delete Items[tokenId];\n        burn(tokenId);\n        return true;\n    }\n\n    /// @notice Implements the EIP-2981 standard into this contract\n    /// @param salesPrice - Price of the token sell on the marketplace\n    /// @return receiver - Returns royalty receiver address\n    /// @return royaltyAmount - Returns royalty amount in the same unit that was used on the marketplace which has to be paid to the royaltyReceiver\n    /// @dev As we use contract-wide royalties this is not used here\n    function royaltyInfo(uint256, uint256 salesPrice)\n        external\n        view\n        returns (address receiver, uint256 royaltyAmount)\n    {\n        RoyaltyInfo memory royalties = _royalties;\n        receiver = royalties.recipient;\n        royaltyAmount = (salesPrice * royalties.amount) / 10000;\n        return (receiver, royaltyAmount);\n    }\n\n    /// @notice Allows to set the royalties on the contract\n    /// @param recipient - the royalties recipient\n    /// @param value - royalties value (between 0 and 10000)\n    function setRoyalties(address recipient, uint256 value)\n        public\n        onlyRole(DEFAULT_ADMIN_ROLE)\n    {\n        _setRoyalties(recipient, value);\n    }\n\n    /// @notice Implements the ERC721 standard into this contract so marketplaces can get the metadata for a token\n    /// @param tokenId - token ID to get the metadata url from\n    /// @return uri - returns uri to the token metadata\n    function tokenURI(uint256 tokenId)\n        public\n        view\n        override(ERC721, ERC721URIStorage)\n        returns (string memory)\n    {\n        require(\n            _exists(tokenId),\n            \"ERC721Metadata: URI query for nonexistent token\"\n        );\n        return super.tokenURI(tokenId);\n    }\n\n    /// @notice Implements the EIP-165 standard into this contract for other contracts to identify interfaes\n    /// @param interfaceId - interface ID to check or support\n    /// @return bool - returns if the interface is supported\n    function supportsInterface(bytes4 interfaceId)\n        public\n        view\n        override(ERC721, AccessControl)\n        returns (bool)\n    {\n        return\n            interfaceId == type(IERC2981Royalties).interfaceId ||\n            super.supportsInterface(interfaceId);\n    }\n\n    // Internal Functions\n\n    /// @dev Sets token royalties\n    /// @param recipient recipient of the royalties\n    /// @param value percentage (using 2 decimals - 10000 = 100, 0 = 0)\n    function _setRoyalties(address recipient, uint256 value) internal {\n        require(value <= 10000, \"ERC2981Royalties: Too high\");\n        _royalties = RoyaltyInfo(recipient, uint24(value));\n    }\n\n    function _beforeTokenTransfer(\n        address from,\n        address to,\n        uint256 tokenId\n    ) internal override whenNotPaused {\n        super._beforeTokenTransfer(from, to, tokenId);\n    }\n\n    // The following functions are overrides required by Solidity.\n\n    function _burn(uint256 tokenId)\n        internal\n        override(ERC721, ERC721URIStorage)\n    {\n        super._burn(tokenId);\n    }\n}\n",
  "sourcePath": "/Users/lukasknutti/Desktop/programming/CRYPTO/ClientProjects/block-news-media/contracts/contracts/BlockNewsMediaToken.sol",
  "compiler": {
    "name": "solc",
    "version": "0.8.11+commit.d7f03943.Emscripten.clang"
  },
  "schemaVersion": "3.4.4",
  "updatedAt": "2022-01-09T16:12:15.280Z",
  "networkType": "ethereum",
  "devdoc": {
    "author": "Lukas Knutti <hello@rootine.ch>",
    "custom:security-contact": "hello@rootine.ch",
    "kind": "dev",
    "methods": {
      "approve(address,uint256)": {
        "details": "See {IERC721-approve}."
      },
      "balanceOf(address)": {
        "details": "See {IERC721-balanceOf}."
      },
      "burn(uint256)": {
        "details": "Burns `tokenId`. See {ERC721-_burn}. Requirements: - The caller must own `tokenId` or be an approved operator."
      },
      "createItem(string)": {
        "params": {
          "uriOfToken": "- the uri to the ipfs hosted token metadata"
        },
        "returns": {
          "_0": "tokenId - the ID of the token minted"
        }
      },
      "destoryItem(uint256)": {
        "params": {
          "tokenId": "- token ID of the token to burn"
        },
        "returns": {
          "_0": "success - a bool to indicate the burn success"
        }
      },
      "getApproved(uint256)": {
        "details": "See {IERC721-getApproved}."
      },
      "getRoleAdmin(bytes32)": {
        "details": "Returns the admin role that controls `role`. See {grantRole} and {revokeRole}. To change a role's admin, use {_setRoleAdmin}."
      },
      "grantRole(bytes32,address)": {
        "details": "Grants `role` to `account`. If `account` had not been already granted `role`, emits a {RoleGranted} event. Requirements: - the caller must have ``role``'s admin role."
      },
      "hasRole(bytes32,address)": {
        "details": "Returns `true` if `account` has been granted `role`."
      },
      "isApprovedForAll(address,address)": {
        "details": "See {IERC721-isApprovedForAll}."
      },
      "name()": {
        "details": "See {IERC721Metadata-name}."
      },
      "ownerOf(uint256)": {
        "details": "See {IERC721-ownerOf}."
      },
      "paused()": {
        "details": "Returns true if the contract is paused, and false otherwise."
      },
      "renounceRole(bytes32,address)": {
        "details": "Revokes `role` from the calling account. Roles are often managed via {grantRole} and {revokeRole}: this function's purpose is to provide a mechanism for accounts to lose their privileges if they are compromised (such as when a trusted device is misplaced). If the calling account had been revoked `role`, emits a {RoleRevoked} event. Requirements: - the caller must be `account`."
      },
      "revokeRole(bytes32,address)": {
        "details": "Revokes `role` from `account`. If `account` had been granted `role`, emits a {RoleRevoked} event. Requirements: - the caller must have ``role``'s admin role."
      },
      "royaltyInfo(uint256,uint256)": {
        "details": "As we use contract-wide royalties this is not used here",
        "params": {
          "salesPrice": "- Price of the token sell on the marketplace"
        },
        "returns": {
          "receiver": "- Returns royalty receiver address",
          "royaltyAmount": "- Returns royalty amount in the same unit that was used on the marketplace which has to be paid to the royaltyReceiver"
        }
      },
      "safeTransferFrom(address,address,uint256)": {
        "details": "See {IERC721-safeTransferFrom}."
      },
      "safeTransferFrom(address,address,uint256,bytes)": {
        "details": "See {IERC721-safeTransferFrom}."
      },
      "setApprovalForAll(address,bool)": {
        "details": "See {IERC721-setApprovalForAll}."
      },
      "setRoyalties(address,uint256)": {
        "params": {
          "recipient": "- the royalties recipient",
          "value": "- royalties value (between 0 and 10000)"
        }
      },
      "supportsInterface(bytes4)": {
        "params": {
          "interfaceId": "- interface ID to check or support"
        },
        "returns": {
          "_0": "bool - returns if the interface is supported"
        }
      },
      "symbol()": {
        "details": "See {IERC721Metadata-symbol}."
      },
      "tokenURI(uint256)": {
        "params": {
          "tokenId": "- token ID to get the metadata url from"
        },
        "returns": {
          "_0": "uri - returns uri to the token metadata"
        }
      },
      "transferFrom(address,address,uint256)": {
        "details": "See {IERC721-transferFrom}."
      }
    },
    "stateVariables": {
      "royaltiesReceiver": {
        "details": "address to receive all royalty payments"
      }
    },
    "title": "NFT Contract to mint news articles as NFTs",
    "version": 1
  },
  "userdoc": {
    "kind": "user",
    "methods": {
      "createItem(string)": {
        "notice": "Called with the uri of the token metadata to mint a new token"
      },
      "destoryItem(uint256)": {
        "notice": "Called with the ID of the token to burn the token"
      },
      "royaltyInfo(uint256,uint256)": {
        "notice": "Implements the EIP-2981 standard into this contract"
      },
      "setRoyalties(address,uint256)": {
        "notice": "Allows to set the royalties on the contract"
      },
      "supportsInterface(bytes4)": {
        "notice": "Implements the EIP-165 standard into this contract for other contracts to identify interfaes"
      },
      "tokenURI(uint256)": {
        "notice": "Implements the ERC721 standard into this contract so marketplaces can get the metadata for a token"
      }
    },
    "notice": "To mint articles as NFTs please head to blocknewsmedia.us",
    "version": 1
  }
}