{
  "contractName": "BlockNewsMediaToken",
  "abi": [
    {
      "inputs": [],
      "stateMutability": "nonpayable",
      "type": "constructor"
    },
    {
      "anonymous": false,
      "inputs": [
        {
          "indexed": true,
          "internalType": "address",
          "name": "owner",
          "type": "address"
        },
        {
          "indexed": true,
          "internalType": "address",
          "name": "approved",
          "type": "address"
        },
        {
          "indexed": true,
          "internalType": "uint256",
          "name": "tokenId",
          "type": "uint256"
        }
      ],
      "name": "Approval",
      "type": "event"
    },
    {
      "anonymous": false,
      "inputs": [
        {
          "indexed": true,
          "internalType": "address",
          "name": "owner",
          "type": "address"
        },
        {
          "indexed": true,
          "internalType": "address",
          "name": "operator",
          "type": "address"
        },
        {
          "indexed": false,
          "internalType": "bool",
          "name": "approved",
          "type": "bool"
        }
      ],
      "name": "ApprovalForAll",
      "type": "event"
    },
    {
      "anonymous": false,
      "inputs": [
        {
          "indexed": false,
          "internalType": "address",
          "name": "account",
          "type": "address"
        }
      ],
      "name": "Paused",
      "type": "event"
    },
    {
      "anonymous": false,
      "inputs": [
        {
          "indexed": true,
          "internalType": "bytes32",
          "name": "role",
          "type": "bytes32"
        },
        {
          "indexed": true,
          "internalType": "bytes32",
          "name": "previousAdminRole",
          "type": "bytes32"
        },
        {
          "indexed": true,
          "internalType": "bytes32",
          "name": "newAdminRole",
          "type": "bytes32"
        }
      ],
      "name": "RoleAdminChanged",
      "type": "event"
    },
    {
      "anonymous": false,
      "inputs": [
        {
          "indexed": true,
          "internalType": "bytes32",
          "name": "role",
          "type": "bytes32"
        },
        {
          "indexed": true,
          "internalType": "address",
          "name": "account",
          "type": "address"
        },
        {
          "indexed": true,
          "internalType": "address",
          "name": "sender",
          "type": "address"
        }
      ],
      "name": "RoleGranted",
      "type": "event"
    },
    {
      "anonymous": false,
      "inputs": [
        {
          "indexed": true,
          "internalType": "bytes32",
          "name": "role",
          "type": "bytes32"
        },
        {
          "indexed": true,
          "internalType": "address",
          "name": "account",
          "type": "address"
        },
        {
          "indexed": true,
          "internalType": "address",
          "name": "sender",
          "type": "address"
        }
      ],
      "name": "RoleRevoked",
      "type": "event"
    },
    {
      "anonymous": false,
      "inputs": [
        {
          "indexed": false,
          "internalType": "address",
          "name": "_from",
          "type": "address"
        },
        {
          "indexed": false,
          "internalType": "string",
          "name": "_uri",
          "type": "string"
        }
      ],
      "name": "TokenMinted",
      "type": "event"
    },
    {
      "anonymous": false,
      "inputs": [
        {
          "indexed": true,
          "internalType": "address",
          "name": "from",
          "type": "address"
        },
        {
          "indexed": true,
          "internalType": "address",
          "name": "to",
          "type": "address"
        },
        {
          "indexed": true,
          "internalType": "uint256",
          "name": "tokenId",
          "type": "uint256"
        }
      ],
      "name": "Transfer",
      "type": "event"
    },
    {
      "anonymous": false,
      "inputs": [
        {
          "indexed": false,
          "internalType": "address",
          "name": "account",
          "type": "address"
        }
      ],
      "name": "Unpaused",
      "type": "event"
    },
    {
      "inputs": [],
      "name": "DEFAULT_ADMIN_ROLE",
      "outputs": [
        {
          "internalType": "bytes32",
          "name": "",
          "type": "bytes32"
        }
      ],
      "stateMutability": "view",
      "type": "function"
    },
    {
      "inputs": [],
      "name": "PAUSER_ROLE",
      "outputs": [
        {
          "internalType": "bytes32",
          "name": "",
          "type": "bytes32"
        }
      ],
      "stateMutability": "view",
      "type": "function"
    },
    {
      "inputs": [
        {
          "internalType": "address",
          "name": "to",
          "type": "address"
        },
        {
          "internalType": "uint256",
          "name": "tokenId",
          "type": "uint256"
        }
      ],
      "name": "approve",
      "outputs": [],
      "stateMutability": "nonpayable",
      "type": "function"
    },
    {
      "inputs": [
        {
          "internalType": "address",
          "name": "owner",
          "type": "address"
        }
      ],
      "name": "balanceOf",
      "outputs": [
        {
          "internalType": "uint256",
          "name": "",
          "type": "uint256"
        }
      ],
      "stateMutability": "view",
      "type": "function"
    },
    {
      "inputs": [
        {
          "internalType": "uint256",
          "name": "tokenId",
          "type": "uint256"
        }
      ],
      "name": "burn",
      "outputs": [],
      "stateMutability": "nonpayable",
      "type": "function"
    },
    {
      "inputs": [
        {
          "internalType": "uint256",
          "name": "tokenId",
          "type": "uint256"
        }
      ],
      "name": "getApproved",
      "outputs": [
        {
          "internalType": "address",
          "name": "",
          "type": "address"
        }
      ],
      "stateMutability": "view",
      "type": "function"
    },
    {
      "inputs": [
        {
          "internalType": "bytes32",
          "name": "role",
          "type": "bytes32"
        }
      ],
      "name": "getRoleAdmin",
      "outputs": [
        {
          "internalType": "bytes32",
          "name": "",
          "type": "bytes32"
        }
      ],
      "stateMutability": "view",
      "type": "function"
    },
    {
      "inputs": [
        {
          "internalType": "bytes32",
          "name": "role",
          "type": "bytes32"
        },
        {
          "internalType": "address",
          "name": "account",
          "type": "address"
        }
      ],
      "name": "grantRole",
      "outputs": [],
      "stateMutability": "nonpayable",
      "type": "function"
    },
    {
      "inputs": [
        {
          "internalType": "bytes32",
          "name": "role",
          "type": "bytes32"
        },
        {
          "internalType": "address",
          "name": "account",
          "type": "address"
        }
      ],
      "name": "hasRole",
      "outputs": [
        {
          "internalType": "bool",
          "name": "",
          "type": "bool"
        }
      ],
      "stateMutability": "view",
      "type": "function"
    },
    {
      "inputs": [
        {
          "internalType": "address",
          "name": "owner",
          "type": "address"
        },
        {
          "internalType": "address",
          "name": "operator",
          "type": "address"
        }
      ],
      "name": "isApprovedForAll",
      "outputs": [
        {
          "internalType": "bool",
          "name": "",
          "type": "bool"
        }
      ],
      "stateMutability": "view",
      "type": "function"
    },
    {
      "inputs": [
        {
          "internalType": "uint256",
          "name": "",
          "type": "uint256"
        }
      ],
      "name": "items",
      "outputs": [
        {
          "internalType": "uint256",
          "name": "id",
          "type": "uint256"
        },
        {
          "internalType": "address",
          "name": "creator",
          "type": "address"
        },
        {
          "internalType": "string",
          "name": "uri",
          "type": "string"
        }
      ],
      "stateMutability": "view",
      "type": "function"
    },
    {
      "inputs": [],
      "name": "name",
      "outputs": [
        {
          "internalType": "string",
          "name": "",
          "type": "string"
        }
      ],
      "stateMutability": "view",
      "type": "function"
    },
    {
      "inputs": [
        {
          "internalType": "uint256",
          "name": "tokenId",
          "type": "uint256"
        }
      ],
      "name": "ownerOf",
      "outputs": [
        {
          "internalType": "address",
          "name": "",
          "type": "address"
        }
      ],
      "stateMutability": "view",
      "type": "function"
    },
    {
      "inputs": [],
      "name": "paused",
      "outputs": [
        {
          "internalType": "bool",
          "name": "",
          "type": "bool"
        }
      ],
      "stateMutability": "view",
      "type": "function"
    },
    {
      "inputs": [
        {
          "internalType": "bytes32",
          "name": "role",
          "type": "bytes32"
        },
        {
          "internalType": "address",
          "name": "account",
          "type": "address"
        }
      ],
      "name": "renounceRole",
      "outputs": [],
      "stateMutability": "nonpayable",
      "type": "function"
    },
    {
      "inputs": [
        {
          "internalType": "bytes32",
          "name": "role",
          "type": "bytes32"
        },
        {
          "internalType": "address",
          "name": "account",
          "type": "address"
        }
      ],
      "name": "revokeRole",
      "outputs": [],
      "stateMutability": "nonpayable",
      "type": "function"
    },
    {
      "inputs": [
        {
          "internalType": "address",
          "name": "from",
          "type": "address"
        },
        {
          "internalType": "address",
          "name": "to",
          "type": "address"
        },
        {
          "internalType": "uint256",
          "name": "tokenId",
          "type": "uint256"
        }
      ],
      "name": "safeTransferFrom",
      "outputs": [],
      "stateMutability": "nonpayable",
      "type": "function"
    },
    {
      "inputs": [
        {
          "internalType": "address",
          "name": "from",
          "type": "address"
        },
        {
          "internalType": "address",
          "name": "to",
          "type": "address"
        },
        {
          "internalType": "uint256",
          "name": "tokenId",
          "type": "uint256"
        },
        {
          "internalType": "bytes",
          "name": "_data",
          "type": "bytes"
        }
      ],
      "name": "safeTransferFrom",
      "outputs": [],
      "stateMutability": "nonpayable",
      "type": "function"
    },
    {
      "inputs": [
        {
          "internalType": "address",
          "name": "operator",
          "type": "address"
        },
        {
          "internalType": "bool",
          "name": "approved",
          "type": "bool"
        }
      ],
      "name": "setApprovalForAll",
      "outputs": [],
      "stateMutability": "nonpayable",
      "type": "function"
    },
    {
      "inputs": [],
      "name": "symbol",
      "outputs": [
        {
          "internalType": "string",
          "name": "",
          "type": "string"
        }
      ],
      "stateMutability": "view",
      "type": "function"
    },
    {
      "inputs": [
        {
          "internalType": "address",
          "name": "from",
          "type": "address"
        },
        {
          "internalType": "address",
          "name": "to",
          "type": "address"
        },
        {
          "internalType": "uint256",
          "name": "tokenId",
          "type": "uint256"
        }
      ],
      "name": "transferFrom",
      "outputs": [],
      "stateMutability": "nonpayable",
      "type": "function"
    },
    {
      "inputs": [],
      "name": "pause",
      "outputs": [],
      "stateMutability": "nonpayable",
      "type": "function"
    },
    {
      "inputs": [],
      "name": "unpause",
      "outputs": [],
      "stateMutability": "nonpayable",
      "type": "function"
    },
    {
      "inputs": [
        {
          "internalType": "string",
          "name": "uriOfToken",
          "type": "string"
        }
      ],
      "name": "createItem",
      "outputs": [
        {
          "internalType": "uint256",
          "name": "",
          "type": "uint256"
        }
      ],
      "stateMutability": "nonpayable",
      "type": "function"
    },
    {
      "inputs": [
        {
          "internalType": "uint256",
          "name": "tokenId",
          "type": "uint256"
        }
      ],
      "name": "destoryItem",
      "outputs": [
        {
          "internalType": "bool",
          "name": "",
          "type": "bool"
        }
      ],
      "stateMutability": "nonpayable",
      "type": "function"
    },
    {
      "inputs": [
        {
          "internalType": "uint256",
          "name": "",
          "type": "uint256"
        },
        {
          "internalType": "uint256",
          "name": "salesPrice",
          "type": "uint256"
        }
      ],
      "name": "royaltyInfo",
      "outputs": [
        {
          "internalType": "address",
          "name": "receiver",
          "type": "address"
        },
        {
          "internalType": "uint256",
          "name": "royaltyAmount",
          "type": "uint256"
        }
      ],
      "stateMutability": "view",
      "type": "function"
    },
    {
      "inputs": [
        {
          "internalType": "address",
          "name": "recipient",
          "type": "address"
        },
        {
          "internalType": "uint256",
          "name": "value",
          "type": "uint256"
        }
      ],
      "name": "setRoyalties",
      "outputs": [],
      "stateMutability": "nonpayable",
      "type": "function"
    },
    {
      "inputs": [
        {
          "internalType": "uint256",
          "name": "tokenId",
          "type": "uint256"
        }
      ],
      "name": "tokenURI",
      "outputs": [
        {
          "internalType": "string",
          "name": "",
          "type": "string"
        }
      ],
      "stateMutability": "view",
      "type": "function"
    },
    {
      "inputs": [
        {
          "internalType": "bytes4",
          "name": "interfaceId",
          "type": "bytes4"
        }
      ],
      "name": "supportsInterface",
      "outputs": [
        {
          "internalType": "bool",
          "name": "",
          "type": "bool"
        }
      ],
      "stateMutability": "view",
      "type": "function"
    }
  ],
  "bytecode": "0x60806040523480156200001157600080fd5b506040518060400160405280600e81526020017f426c6f636b4e6577734d656469610000000000000000000000000000000000008152506040518060400160405280600381526020017f424e4d000000000000000000000000000000000000000000000000000000000081525081600090816200008f9190620005ff565b508060019081620000a19190620005ff565b5050506000600760006101000a81548160ff021916908315150217905550620000d46000801b336200013360201b60201c565b620001067f65d7a28e3265b37a6474929f336521b332c1681b933f6cb9f3376673440d862a336200013360201b60201c565b6200012d7345b58919a70bfda15d4bb0a8df752a671a318d7e60af6200022560201b60201c565b62000769565b6200014582826200031260201b60201c565b620002215760016008600084815260200190815260200160002060000160008373ffffffffffffffffffffffffffffffffffffffff1673ffffffffffffffffffffffffffffffffffffffff16815260200190815260200160002060006101000a81548160ff021916908315150217905550620001c66200037d60201b60201c565b73ffffffffffffffffffffffffffffffffffffffff168173ffffffffffffffffffffffffffffffffffffffff16837f2f8788117e7eff1d82e926ec794901d17c78024a50270940304540a733656f0d60405160405180910390a45b5050565b6127108111156200026d576040517f08c379a0000000000000000000000000000000000000000000000000000000008152600401620002649062000747565b60405180910390fd5b60405180604001604052808373ffffffffffffffffffffffffffffffffffffffff1681526020018262ffffff16815250600b60008201518160000160006101000a81548173ffffffffffffffffffffffffffffffffffffffff021916908373ffffffffffffffffffffffffffffffffffffffff16021790555060208201518160000160146101000a81548162ffffff021916908362ffffff1602179055509050505050565b60006008600084815260200190815260200160002060000160008373ffffffffffffffffffffffffffffffffffffffff1673ffffffffffffffffffffffffffffffffffffffff16815260200190815260200160002060009054906101000a900460ff16905092915050565b600033905090565b600081519050919050565b7f4e487b7100000000000000000000000000000000000000000000000000000000600052604160045260246000fd5b7f4e487b7100000000000000000000000000000000000000000000000000000000600052602260045260246000fd5b600060028204905060018216806200040757607f821691505b6020821081036200041d576200041c620003bf565b5b50919050565b60008190508160005260206000209050919050565b60006020601f8301049050919050565b600082821b905092915050565b600060088302620004877fffffffffffffffffffffffffffffffffffffffffffffffffffffffffffffffff8262000448565b62000493868362000448565b95508019841693508086168417925050509392505050565b6000819050919050565b6000819050919050565b6000620004e0620004da620004d484620004ab565b620004b5565b620004ab565b9050919050565b6000819050919050565b620004fc83620004bf565b620005146200050b82620004e7565b84845462000455565b825550505050565b600090565b6200052b6200051c565b62000538818484620004f1565b505050565b5b8181101562000560576200055460008262000521565b6001810190506200053e565b5050565b601f821115620005af57620005798162000423565b620005848462000438565b8101602085101562000594578190505b620005ac620005a38562000438565b8301826200053d565b50505b505050565b600082821c905092915050565b6000620005d460001984600802620005b4565b1980831691505092915050565b6000620005ef8383620005c1565b9150826002028217905092915050565b6200060a8262000385565b67ffffffffffffffff81111562000626576200062562000390565b5b620006328254620003ee565b6200063f82828562000564565b600060209050601f83116001811462000677576000841562000662578287015190505b6200066e8582620005e1565b865550620006de565b601f198416620006878662000423565b60005b82811015620006b1578489015182556001820191506020850194506020810190506200068a565b86831015620006d15784890151620006cd601f891682620005c1565b8355505b6001600288020188555050505b505050505050565b600082825260208201905092915050565b7f45524332393831526f79616c746965733a20546f6f2068696768000000000000600082015250565b60006200072f601a83620006e6565b91506200073c82620006f7565b602082019050919050565b60006020820190508181036000830152620007628162000720565b9050919050565b61485f80620007796000396000f3fe608060405234801561001057600080fd5b50600436106101cf5760003560e01c80636352211e11610104578063a22cb465116100a2578063d547741f11610071578063d547741f1461053f578063e63ab1e91461055b578063e985e9c514610579578063e9f3d5a7146105a9576101cf565b8063a22cb465146104a5578063b88d4fde146104c1578063bfb231d2146104dd578063c87b56dd1461050f576101cf565b80638c7ea24b116100de5780638c7ea24b1461041d57806391d148541461043957806395d89b4114610469578063a217fddf14610487576101cf565b80636352211e146103b357806370a08231146103e35780638456cb5914610413576101cf565b80632f2ff15d116101715780633f4ba83a1161014b5780633f4ba83a1461035357806342842e0e1461035d57806342966c68146103795780635c975abb14610395576101cf565b80632f2ff15d146102eb57806336568abe146103075780633d54eebb14610323576101cf565b8063095ea7b3116101ad578063095ea7b31461025257806323b872dd1461026e578063248a9ca31461028a5780632a55205a146102ba576101cf565b806301ffc9a7146101d457806306fdde0314610204578063081812fc14610222575b600080fd5b6101ee60048036038101906101e99190612c67565b6105d9565b6040516101fb9190612caf565b60405180910390f35b61020c610653565b6040516102199190612d63565b60405180910390f35b61023c60048036038101906102379190612dbb565b6106e5565b6040516102499190612e29565b60405180910390f35b61026c60048036038101906102679190612e70565b61076a565b005b61028860048036038101906102839190612eb0565b610881565b005b6102a4600480360381019061029f9190612f39565b6108e1565b6040516102b19190612f75565b60405180910390f35b6102d460048036038101906102cf9190612f90565b610901565b6040516102e2929190612fdf565b60405180910390f35b61030560048036038101906103009190613008565b6109c1565b005b610321600480360381019061031c9190613008565b6109ea565b005b61033d6004803603810190610338919061317d565b610a6d565b60405161034a91906131c6565b60405180910390f35b61035b610c17565b005b61037760048036038101906103729190612eb0565b610c54565b005b610393600480360381019061038e9190612dbb565b610c74565b005b61039d610cd0565b6040516103aa9190612caf565b60405180910390f35b6103cd60048036038101906103c89190612dbb565b610ce7565b6040516103da9190612e29565b60405180910390f35b6103fd60048036038101906103f891906131e1565b610d98565b60405161040a91906131c6565b60405180910390f35b61041b610e4f565b005b61043760048036038101906104329190612e70565b610e8c565b005b610453600480360381019061044e9190613008565b610eb0565b6040516104609190612caf565b60405180910390f35b610471610f1b565b60405161047e9190612d63565b60405180910390f35b61048f610fad565b60405161049c9190612f75565b60405180910390f35b6104bf60048036038101906104ba919061323a565b610fb4565b005b6104db60048036038101906104d6919061331b565b610fca565b005b6104f760048036038101906104f29190612dbb565b61102c565b6040516105069392919061339e565b60405180910390f35b61052960048036038101906105249190612dbb565b6110fe565b6040516105369190612d63565b60405180910390f35b61055960048036038101906105549190613008565b611158565b005b610563611181565b6040516105709190612f75565b60405180910390f35b610593600480360381019061058e91906133dc565b6111a5565b6040516105a09190612caf565b60405180910390f35b6105c360048036038101906105be9190612dbb565b611239565b6040516105d09190612caf565b60405180910390f35b60007f2a55205a000000000000000000000000000000000000000000000000000000007bffffffffffffffffffffffffffffffffffffffffffffffffffffffff1916827bffffffffffffffffffffffffffffffffffffffffffffffffffffffff1916148061064c575061064b82611332565b5b9050919050565b6060600080546106629061344b565b80601f016020809104026020016040519081016040528092919081815260200182805461068e9061344b565b80156106db5780601f106106b0576101008083540402835291602001916106db565b820191906000526020600020905b8154815290600101906020018083116106be57829003601f168201915b5050505050905090565b60006106f0826113ac565b61072f576040517f08c379a0000000000000000000000000000000000000000000000000000000008152600401610726906134ee565b60405180910390fd5b6004600083815260200190815260200160002060009054906101000a900473ffffffffffffffffffffffffffffffffffffffff169050919050565b600061077582610ce7565b90508073ffffffffffffffffffffffffffffffffffffffff168373ffffffffffffffffffffffffffffffffffffffff16036107e5576040517f08c379a00000000000000000000000000000000000000000000000000000000081526004016107dc90613580565b60405180910390fd5b8073ffffffffffffffffffffffffffffffffffffffff16610804611418565b73ffffffffffffffffffffffffffffffffffffffff16148061083357506108328161082d611418565b6111a5565b5b610872576040517f08c379a000000000000000000000000000000000000000000000000000000000815260040161086990613612565b60405180910390fd5b61087c8383611420565b505050565b61089261088c611418565b826114d9565b6108d1576040517f08c379a00000000000000000000000000000000000000000000000000000000081526004016108c8906136a4565b60405180910390fd5b6108dc8383836115b7565b505050565b600060086000838152602001908152602001600020600101549050919050565b6000806000600b6040518060400160405290816000820160009054906101000a900473ffffffffffffffffffffffffffffffffffffffff1673ffffffffffffffffffffffffffffffffffffffff1673ffffffffffffffffffffffffffffffffffffffff1681526020016000820160149054906101000a900462ffffff1662ffffff1662ffffff1681525050905080600001519250612710816020015162ffffff16856109ad91906136f3565b6109b7919061377c565b9150509250929050565b6109ca826108e1565b6109db816109d6611418565b611812565b6109e583836118af565b505050565b6109f2611418565b73ffffffffffffffffffffffffffffffffffffffff168173ffffffffffffffffffffffffffffffffffffffff1614610a5f576040517f08c379a0000000000000000000000000000000000000000000000000000000008152600401610a569061381f565b60405180910390fd5b610a698282611990565b5050565b6000610a77610cd0565b15610ab7576040517f08c379a0000000000000000000000000000000000000000000000000000000008152600401610aae9061388b565b60405180910390fd5b6000825111610afb576040517f08c379a0000000000000000000000000000000000000000000000000000000008152600401610af29061391d565b60405180910390fd5b610b05600a611a72565b6000610b11600a611a88565b9050610b1d3382611a96565b60405180606001604052808281526020013373ffffffffffffffffffffffffffffffffffffffff16815260200184815250600960008381526020019081526020016000206000820151816000015560208201518160010160006101000a81548173ffffffffffffffffffffffffffffffffffffffff021916908373ffffffffffffffffffffffffffffffffffffffff1602179055506040820151816002019081610bc79190613ae9565b50905050610bd58184611ab4565b7fb1fdd3f41eb81d0019cfe7749e6ad19e36fd3652c4ee0be5533ddbab487f1e023384604051610c06929190613bbb565b60405180910390a180915050919050565b7f65d7a28e3265b37a6474929f336521b332c1681b933f6cb9f3376673440d862a610c4981610c44611418565b611812565b610c51611b21565b50565b610c6f83838360405180602001604052806000815250610fca565b505050565b610c85610c7f611418565b826114d9565b610cc4576040517f08c379a0000000000000000000000000000000000000000000000000000000008152600401610cbb90613c5d565b60405180910390fd5b610ccd81611bc3565b50565b6000600760009054906101000a900460ff16905090565b6000806002600084815260200190815260200160002060009054906101000a900473ffffffffffffffffffffffffffffffffffffffff169050600073ffffffffffffffffffffffffffffffffffffffff168173ffffffffffffffffffffffffffffffffffffffff1603610d8f576040517f08c379a0000000000000000000000000000000000000000000000000000000008152600401610d8690613cef565b60405180910390fd5b80915050919050565b60008073ffffffffffffffffffffffffffffffffffffffff168273ffffffffffffffffffffffffffffffffffffffff1603610e08576040517f08c379a0000000000000000000000000000000000000000000000000000000008152600401610dff90613d81565b60405180910390fd5b600360008373ffffffffffffffffffffffffffffffffffffffff1673ffffffffffffffffffffffffffffffffffffffff168152602001908152602001600020549050919050565b7f65d7a28e3265b37a6474929f336521b332c1681b933f6cb9f3376673440d862a610e8181610e7c611418565b611812565b610e89611bcf565b50565b6000801b610ea181610e9c611418565b611812565b610eab8383611c72565b505050565b60006008600084815260200190815260200160002060000160008373ffffffffffffffffffffffffffffffffffffffff1673ffffffffffffffffffffffffffffffffffffffff16815260200190815260200160002060009054906101000a900460ff16905092915050565b606060018054610f2a9061344b565b80601f0160208091040260200160405190810160405280929190818152602001828054610f569061344b565b8015610fa35780601f10610f7857610100808354040283529160200191610fa3565b820191906000526020600020905b815481529060010190602001808311610f8657829003601f168201915b5050505050905090565b6000801b81565b610fc6610fbf611418565b8383611d5c565b5050565b610fdb610fd5611418565b836114d9565b61101a576040517f08c379a0000000000000000000000000000000000000000000000000000000008152600401611011906136a4565b60405180910390fd5b61102684848484611ec8565b50505050565b60096020528060005260406000206000915090508060000154908060010160009054906101000a900473ffffffffffffffffffffffffffffffffffffffff169080600201805461107b9061344b565b80601f01602080910402602001604051908101604052809291908181526020018280546110a79061344b565b80156110f45780601f106110c9576101008083540402835291602001916110f4565b820191906000526020600020905b8154815290600101906020018083116110d757829003601f168201915b5050505050905083565b6060611109826113ac565b611148576040517f08c379a000000000000000000000000000000000000000000000000000000000815260040161113f90613e13565b60405180910390fd5b61115182611f24565b9050919050565b611161826108e1565b6111728161116d611418565b611812565b61117c8383611990565b505050565b7f65d7a28e3265b37a6474929f336521b332c1681b933f6cb9f3376673440d862a81565b6000600560008473ffffffffffffffffffffffffffffffffffffffff1673ffffffffffffffffffffffffffffffffffffffff16815260200190815260200160002060008373ffffffffffffffffffffffffffffffffffffffff1673ffffffffffffffffffffffffffffffffffffffff16815260200190815260200160002060009054906101000a900460ff16905092915050565b6000611243610cd0565b15611283576040517f08c379a000000000000000000000000000000000000000000000000000000000815260040161127a9061388b565b60405180910390fd5b61128c826113ac565b6112cb576040517f08c379a00000000000000000000000000000000000000000000000000000000081526004016112c290613ea5565b60405180910390fd5b600960008381526020019081526020016000206000808201600090556001820160006101000a81549073ffffffffffffffffffffffffffffffffffffffff021916905560028201600061131e9190612b9e565b505061132982610c74565b60019050919050565b60007f7965db0b000000000000000000000000000000000000000000000000000000007bffffffffffffffffffffffffffffffffffffffffffffffffffffffff1916827bffffffffffffffffffffffffffffffffffffffffffffffffffffffff191614806113a557506113a482612075565b5b9050919050565b60008073ffffffffffffffffffffffffffffffffffffffff166002600084815260200190815260200160002060009054906101000a900473ffffffffffffffffffffffffffffffffffffffff1673ffffffffffffffffffffffffffffffffffffffff1614159050919050565b600033905090565b816004600083815260200190815260200160002060006101000a81548173ffffffffffffffffffffffffffffffffffffffff021916908373ffffffffffffffffffffffffffffffffffffffff160217905550808273ffffffffffffffffffffffffffffffffffffffff1661149383610ce7565b73ffffffffffffffffffffffffffffffffffffffff167f8c5be1e5ebec7d5bd14f71427d1e84f3dd0314c0f7b2291e5b200ac8c7c3b92560405160405180910390a45050565b60006114e4826113ac565b611523576040517f08c379a000000000000000000000000000000000000000000000000000000000815260040161151a90613f37565b60405180910390fd5b600061152e83610ce7565b90508073ffffffffffffffffffffffffffffffffffffffff168473ffffffffffffffffffffffffffffffffffffffff16148061159d57508373ffffffffffffffffffffffffffffffffffffffff16611585846106e5565b73ffffffffffffffffffffffffffffffffffffffff16145b806115ae57506115ad81856111a5565b5b91505092915050565b8273ffffffffffffffffffffffffffffffffffffffff166115d782610ce7565b73ffffffffffffffffffffffffffffffffffffffff161461162d576040517f08c379a000000000000000000000000000000000000000000000000000000000815260040161162490613fc9565b60405180910390fd5b600073ffffffffffffffffffffffffffffffffffffffff168273ffffffffffffffffffffffffffffffffffffffff160361169c576040517f08c379a00000000000000000000000000000000000000000000000000000000081526004016116939061405b565b60405180910390fd5b6116a7838383612157565b6116b2600082611420565b6001600360008573ffffffffffffffffffffffffffffffffffffffff1673ffffffffffffffffffffffffffffffffffffffff1681526020019081526020016000206000828254611702919061407b565b925050819055506001600360008473ffffffffffffffffffffffffffffffffffffffff1673ffffffffffffffffffffffffffffffffffffffff168152602001908152602001600020600082825461175991906140af565b92505081905550816002600083815260200190815260200160002060006101000a81548173ffffffffffffffffffffffffffffffffffffffff021916908373ffffffffffffffffffffffffffffffffffffffff160217905550808273ffffffffffffffffffffffffffffffffffffffff168473ffffffffffffffffffffffffffffffffffffffff167fddf252ad1be2c89b69c2b068fc378daa952ba7f163c4a11628f55a4df523b3ef60405160405180910390a4505050565b61181c8282610eb0565b6118ab576118418173ffffffffffffffffffffffffffffffffffffffff1660146121af565b61184f8360001c60206121af565b6040516020016118609291906141d9565b6040516020818303038152906040526040517f08c379a00000000000000000000000000000000000000000000000000000000081526004016118a29190612d63565b60405180910390fd5b5050565b6118b98282610eb0565b61198c5760016008600084815260200190815260200160002060000160008373ffffffffffffffffffffffffffffffffffffffff1673ffffffffffffffffffffffffffffffffffffffff16815260200190815260200160002060006101000a81548160ff021916908315150217905550611931611418565b73ffffffffffffffffffffffffffffffffffffffff168173ffffffffffffffffffffffffffffffffffffffff16837f2f8788117e7eff1d82e926ec794901d17c78024a50270940304540a733656f0d60405160405180910390a45b5050565b61199a8282610eb0565b15611a6e5760006008600084815260200190815260200160002060000160008373ffffffffffffffffffffffffffffffffffffffff1673ffffffffffffffffffffffffffffffffffffffff16815260200190815260200160002060006101000a81548160ff021916908315150217905550611a13611418565b73ffffffffffffffffffffffffffffffffffffffff168173ffffffffffffffffffffffffffffffffffffffff16837ff6391f5c32d9c69d2a47ea670b442974b53935d1edc7fd64eb21e047a839171b60405160405180910390a45b5050565b6001816000016000828254019250508190555050565b600081600001549050919050565b611ab08282604051806020016040528060008152506123eb565b5050565b611abd826113ac565b611afc576040517f08c379a0000000000000000000000000000000000000000000000000000000008152600401611af390614285565b60405180910390fd5b80600660008481526020019081526020016000209081611b1c9190613ae9565b505050565b611b29610cd0565b611b68576040517f08c379a0000000000000000000000000000000000000000000000000000000008152600401611b5f906142f1565b60405180910390fd5b6000600760006101000a81548160ff0219169083151502179055507f5db9ee0a495bf2e6ff9c91a7834c1ba4fdd244a5e8aa4e537bd38aeae4b073aa611bac611418565b604051611bb99190612e29565b60405180910390a1565b611bcc81612446565b50565b611bd7610cd0565b15611c17576040517f08c379a0000000000000000000000000000000000000000000000000000000008152600401611c0e9061388b565b60405180910390fd5b6001600760006101000a81548160ff0219169083151502179055507f62e78cea01bee320cd4e420270b5ea74000d11b0c9f74754ebdbfc544b05a258611c5b611418565b604051611c689190612e29565b60405180910390a1565b612710811115611cb7576040517f08c379a0000000000000000000000000000000000000000000000000000000008152600401611cae9061435d565b60405180910390fd5b60405180604001604052808373ffffffffffffffffffffffffffffffffffffffff1681526020018262ffffff16815250600b60008201518160000160006101000a81548173ffffffffffffffffffffffffffffffffffffffff021916908373ffffffffffffffffffffffffffffffffffffffff16021790555060208201518160000160146101000a81548162ffffff021916908362ffffff1602179055509050505050565b8173ffffffffffffffffffffffffffffffffffffffff168373ffffffffffffffffffffffffffffffffffffffff1603611dca576040517f08c379a0000000000000000000000000000000000000000000000000000000008152600401611dc1906143c9565b60405180910390fd5b80600560008573ffffffffffffffffffffffffffffffffffffffff1673ffffffffffffffffffffffffffffffffffffffff16815260200190815260200160002060008473ffffffffffffffffffffffffffffffffffffffff1673ffffffffffffffffffffffffffffffffffffffff16815260200190815260200160002060006101000a81548160ff0219169083151502179055508173ffffffffffffffffffffffffffffffffffffffff168373ffffffffffffffffffffffffffffffffffffffff167f17307eab39ab6107e8899845ad3d59bd9653f200f220920489ca2b5937696c3183604051611ebb9190612caf565b60405180910390a3505050565b611ed38484846115b7565b611edf84848484612499565b611f1e576040517f08c379a0000000000000000000000000000000000000000000000000000000008152600401611f159061445b565b60405180910390fd5b50505050565b6060611f2f826113ac565b611f6e576040517f08c379a0000000000000000000000000000000000000000000000000000000008152600401611f65906144ed565b60405180910390fd5b6000600660008481526020019081526020016000208054611f8e9061344b565b80601f0160208091040260200160405190810160405280929190818152602001828054611fba9061344b565b80156120075780601f10611fdc57610100808354040283529160200191612007565b820191906000526020600020905b815481529060010190602001808311611fea57829003601f168201915b505050505090506000612018612620565b9050600081510361202d578192505050612070565b60008251111561206257808260405160200161204a92919061450d565b60405160208183030381529060405292505050612070565b61206b84612637565b925050505b919050565b60007f80ac58cd000000000000000000000000000000000000000000000000000000007bffffffffffffffffffffffffffffffffffffffffffffffffffffffff1916827bffffffffffffffffffffffffffffffffffffffffffffffffffffffff1916148061214057507f5b5e139f000000000000000000000000000000000000000000000000000000007bffffffffffffffffffffffffffffffffffffffffffffffffffffffff1916827bffffffffffffffffffffffffffffffffffffffffffffffffffffffff1916145b80612150575061214f826126de565b5b9050919050565b61215f610cd0565b1561219f576040517f08c379a00000000000000000000000000000000000000000000000000000000081526004016121969061388b565b60405180910390fd5b6121aa838383612748565b505050565b6060600060028360026121c291906136f3565b6121cc91906140af565b67ffffffffffffffff8111156121e5576121e4613052565b5b6040519080825280601f01601f1916602001820160405280156122175781602001600182028036833780820191505090505b5090507f30000000000000000000000000000000000000000000000000000000000000008160008151811061224f5761224e614531565b5b60200101907effffffffffffffffffffffffffffffffffffffffffffffffffffffffffffff1916908160001a9053507f7800000000000000000000000000000000000000000000000000000000000000816001815181106122b3576122b2614531565b5b60200101907effffffffffffffffffffffffffffffffffffffffffffffffffffffffffffff1916908160001a905350600060018460026122f391906136f3565b6122fd91906140af565b90505b600181111561239d577f3031323334353637383961626364656600000000000000000000000000000000600f86166010811061233f5761233e614531565b5b1a60f81b82828151811061235657612355614531565b5b60200101907effffffffffffffffffffffffffffffffffffffffffffffffffffffffffffff1916908160001a905350600485901c94508061239690614560565b9050612300565b50600084146123e1576040517f08c379a00000000000000000000000000000000000000000000000000000000081526004016123d8906145d5565b60405180910390fd5b8091505092915050565b6123f5838361274d565b6124026000848484612499565b612441576040517f08c379a00000000000000000000000000000000000000000000000000000000081526004016124389061445b565b60405180910390fd5b505050565b61244f8161291a565b600060066000838152602001908152602001600020805461246f9061344b565b905014612496576006600082815260200190815260200160002060006124959190612b9e565b5b50565b60006124ba8473ffffffffffffffffffffffffffffffffffffffff16612a2b565b15612613578373ffffffffffffffffffffffffffffffffffffffff1663150b7a026124e3611418565b8786866040518563ffffffff1660e01b8152600401612505949392919061464a565b6020604051808303816000875af192505050801561254157506040513d601f19601f8201168201806040525081019061253e91906146ab565b60015b6125c3573d8060008114612571576040519150601f19603f3d011682016040523d82523d6000602084013e612576565b606091505b5060008151036125bb576040517f08c379a00000000000000000000000000000000000000000000000000000000081526004016125b29061445b565b60405180910390fd5b805181602001fd5b63150b7a0260e01b7bffffffffffffffffffffffffffffffffffffffffffffffffffffffff1916817bffffffffffffffffffffffffffffffffffffffffffffffffffffffff191614915050612618565b600190505b949350505050565b606060405180602001604052806000815250905090565b6060612642826113ac565b612681576040517f08c379a000000000000000000000000000000000000000000000000000000000815260040161267890613e13565b60405180910390fd5b600061268b612620565b905060008151116126ab57604051806020016040528060008152506126d6565b806126b584612a3e565b6040516020016126c692919061450d565b6040516020818303038152906040525b915050919050565b60007f01ffc9a7000000000000000000000000000000000000000000000000000000007bffffffffffffffffffffffffffffffffffffffffffffffffffffffff1916827bffffffffffffffffffffffffffffffffffffffffffffffffffffffff1916149050919050565b505050565b600073ffffffffffffffffffffffffffffffffffffffff168273ffffffffffffffffffffffffffffffffffffffff16036127bc576040517f08c379a00000000000000000000000000000000000000000000000000000000081526004016127b390614724565b60405180910390fd5b6127c5816113ac565b15612805576040517f08c379a00000000000000000000000000000000000000000000000000000000081526004016127fc90614790565b60405180910390fd5b61281160008383612157565b6001600360008473ffffffffffffffffffffffffffffffffffffffff1673ffffffffffffffffffffffffffffffffffffffff168152602001908152602001600020600082825461286191906140af565b92505081905550816002600083815260200190815260200160002060006101000a81548173ffffffffffffffffffffffffffffffffffffffff021916908373ffffffffffffffffffffffffffffffffffffffff160217905550808273ffffffffffffffffffffffffffffffffffffffff16600073ffffffffffffffffffffffffffffffffffffffff167fddf252ad1be2c89b69c2b068fc378daa952ba7f163c4a11628f55a4df523b3ef60405160405180910390a45050565b600061292582610ce7565b905061293381600084612157565b61293e600083611420565b6001600360008373ffffffffffffffffffffffffffffffffffffffff1673ffffffffffffffffffffffffffffffffffffffff168152602001908152602001600020600082825461298e919061407b565b925050819055506002600083815260200190815260200160002060006101000a81549073ffffffffffffffffffffffffffffffffffffffff021916905581600073ffffffffffffffffffffffffffffffffffffffff168273ffffffffffffffffffffffffffffffffffffffff167fddf252ad1be2c89b69c2b068fc378daa952ba7f163c4a11628f55a4df523b3ef60405160405180910390a45050565b600080823b905060008111915050919050565b606060008203612a85576040518060400160405280600181526020017f30000000000000000000000000000000000000000000000000000000000000008152509050612b99565b600082905060005b60008214612ab7578080612aa0906147b0565b915050600a82612ab0919061377c565b9150612a8d565b60008167ffffffffffffffff811115612ad357612ad2613052565b5b6040519080825280601f01601f191660200182016040528015612b055781602001600182028036833780820191505090505b5090505b60008514612b9257600182612b1e919061407b565b9150600a85612b2d91906147f8565b6030612b3991906140af565b60f81b818381518110612b4f57612b4e614531565b5b60200101907effffffffffffffffffffffffffffffffffffffffffffffffffffffffffffff1916908160001a905350600a85612b8b919061377c565b9450612b09565b8093505050505b919050565b508054612baa9061344b565b6000825580601f10612bbc5750612bdb565b601f016020900490600052602060002090810190612bda9190612bde565b5b50565b5b80821115612bf7576000816000905550600101612bdf565b5090565b6000604051905090565b600080fd5b600080fd5b60007fffffffff0000000000000000000000000000000000000000000000000000000082169050919050565b612c4481612c0f565b8114612c4f57600080fd5b50565b600081359050612c6181612c3b565b92915050565b600060208284031215612c7d57612c7c612c05565b5b6000612c8b84828501612c52565b91505092915050565b60008115159050919050565b612ca981612c94565b82525050565b6000602082019050612cc46000830184612ca0565b92915050565b600081519050919050565b600082825260208201905092915050565b60005b83811015612d04578082015181840152602081019050612ce9565b83811115612d13576000848401525b50505050565b6000601f19601f8301169050919050565b6000612d3582612cca565b612d3f8185612cd5565b9350612d4f818560208601612ce6565b612d5881612d19565b840191505092915050565b60006020820190508181036000830152612d7d8184612d2a565b905092915050565b6000819050919050565b612d9881612d85565b8114612da357600080fd5b50565b600081359050612db581612d8f565b92915050565b600060208284031215612dd157612dd0612c05565b5b6000612ddf84828501612da6565b91505092915050565b600073ffffffffffffffffffffffffffffffffffffffff82169050919050565b6000612e1382612de8565b9050919050565b612e2381612e08565b82525050565b6000602082019050612e3e6000830184612e1a565b92915050565b612e4d81612e08565b8114612e5857600080fd5b50565b600081359050612e6a81612e44565b92915050565b60008060408385031215612e8757612e86612c05565b5b6000612e9585828601612e5b565b9250506020612ea685828601612da6565b9150509250929050565b600080600060608486031215612ec957612ec8612c05565b5b6000612ed786828701612e5b565b9350506020612ee886828701612e5b565b9250506040612ef986828701612da6565b9150509250925092565b6000819050919050565b612f1681612f03565b8114612f2157600080fd5b50565b600081359050612f3381612f0d565b92915050565b600060208284031215612f4f57612f4e612c05565b5b6000612f5d84828501612f24565b91505092915050565b612f6f81612f03565b82525050565b6000602082019050612f8a6000830184612f66565b92915050565b60008060408385031215612fa757612fa6612c05565b5b6000612fb585828601612da6565b9250506020612fc685828601612da6565b9150509250929050565b612fd981612d85565b82525050565b6000604082019050612ff46000830185612e1a565b6130016020830184612fd0565b9392505050565b6000806040838503121561301f5761301e612c05565b5b600061302d85828601612f24565b925050602061303e85828601612e5b565b9150509250929050565b600080fd5b600080fd5b7f4e487b7100000000000000000000000000000000000000000000000000000000600052604160045260246000fd5b61308a82612d19565b810181811067ffffffffffffffff821117156130a9576130a8613052565b5b80604052505050565b60006130bc612bfb565b90506130c88282613081565b919050565b600067ffffffffffffffff8211156130e8576130e7613052565b5b6130f182612d19565b9050602081019050919050565b82818337600083830152505050565b600061312061311b846130cd565b6130b2565b90508281526020810184848401111561313c5761313b61304d565b5b6131478482856130fe565b509392505050565b600082601f83011261316457613163613048565b5b813561317484826020860161310d565b91505092915050565b60006020828403121561319357613192612c05565b5b600082013567ffffffffffffffff8111156131b1576131b0612c0a565b5b6131bd8482850161314f565b91505092915050565b60006020820190506131db6000830184612fd0565b92915050565b6000602082840312156131f7576131f6612c05565b5b600061320584828501612e5b565b91505092915050565b61321781612c94565b811461322257600080fd5b50565b6000813590506132348161320e565b92915050565b6000806040838503121561325157613250612c05565b5b600061325f85828601612e5b565b925050602061327085828601613225565b9150509250929050565b600067ffffffffffffffff82111561329557613294613052565b5b61329e82612d19565b9050602081019050919050565b60006132be6132b98461327a565b6130b2565b9050828152602081018484840111156132da576132d961304d565b5b6132e58482856130fe565b509392505050565b600082601f83011261330257613301613048565b5b81356133128482602086016132ab565b91505092915050565b6000806000806080858703121561333557613334612c05565b5b600061334387828801612e5b565b945050602061335487828801612e5b565b935050604061336587828801612da6565b925050606085013567ffffffffffffffff81111561338657613385612c0a565b5b613392878288016132ed565b91505092959194509250565b60006060820190506133b36000830186612fd0565b6133c06020830185612e1a565b81810360408301526133d28184612d2a565b9050949350505050565b600080604083850312156133f3576133f2612c05565b5b600061340185828601612e5b565b925050602061341285828601612e5b565b9150509250929050565b7f4e487b7100000000000000000000000000000000000000000000000000000000600052602260045260246000fd5b6000600282049050600182168061346357607f821691505b6020821081036134765761347561341c565b5b50919050565b7f4552433732313a20617070726f76656420717565727920666f72206e6f6e657860008201527f697374656e7420746f6b656e0000000000000000000000000000000000000000602082015250565b60006134d8602c83612cd5565b91506134e38261347c565b604082019050919050565b60006020820190508181036000830152613507816134cb565b9050919050565b7f4552433732313a20617070726f76616c20746f2063757272656e74206f776e6560008201527f7200000000000000000000000000000000000000000000000000000000000000602082015250565b600061356a602183612cd5565b91506135758261350e565b604082019050919050565b600060208201905081810360008301526135998161355d565b9050919050565b7f4552433732313a20617070726f76652063616c6c6572206973206e6f74206f7760008201527f6e6572206e6f7220617070726f76656420666f7220616c6c0000000000000000602082015250565b60006135fc603883612cd5565b9150613607826135a0565b604082019050919050565b6000602082019050818103600083015261362b816135ef565b9050919050565b7f4552433732313a207472616e736665722063616c6c6572206973206e6f74206f60008201527f776e6572206e6f7220617070726f766564000000000000000000000000000000602082015250565b600061368e603183612cd5565b915061369982613632565b604082019050919050565b600060208201905081810360008301526136bd81613681565b9050919050565b7f4e487b7100000000000000000000000000000000000000000000000000000000600052601160045260246000fd5b60006136fe82612d85565b915061370983612d85565b9250817fffffffffffffffffffffffffffffffffffffffffffffffffffffffffffffffff0483118215151615613742576137416136c4565b5b828202905092915050565b7f4e487b7100000000000000000000000000000000000000000000000000000000600052601260045260246000fd5b600061378782612d85565b915061379283612d85565b9250826137a2576137a161374d565b5b828204905092915050565b7f416363657373436f6e74726f6c3a2063616e206f6e6c792072656e6f756e636560008201527f20726f6c657320666f722073656c660000000000000000000000000000000000602082015250565b6000613809602f83612cd5565b9150613814826137ad565b604082019050919050565b60006020820190508181036000830152613838816137fc565b9050919050565b7f5061757361626c653a2070617573656400000000000000000000000000000000600082015250565b6000613875601083612cd5565b91506138808261383f565b602082019050919050565b600060208201905081810360008301526138a481613868565b9050919050565b7f426c6f636b4e6577734d65646961546f6b656e3a204e6f20546f6b656e20555260008201527f4920737570706c69656400000000000000000000000000000000000000000000602082015250565b6000613907602a83612cd5565b9150613912826138ab565b604082019050919050565b60006020820190508181036000830152613936816138fa565b9050919050565b60008190508160005260206000209050919050565b60006020601f8301049050919050565b600082821b905092915050565b60006008830261399f7fffffffffffffffffffffffffffffffffffffffffffffffffffffffffffffffff82613962565b6139a98683613962565b95508019841693508086168417925050509392505050565b6000819050919050565b60006139e66139e16139dc84612d85565b6139c1565b612d85565b9050919050565b6000819050919050565b613a00836139cb565b613a14613a0c826139ed565b84845461396f565b825550505050565b600090565b613a29613a1c565b613a348184846139f7565b505050565b5b81811015613a5857613a4d600082613a21565b600181019050613a3a565b5050565b601f821115613a9d57613a6e8161393d565b613a7784613952565b81016020851015613a86578190505b613a9a613a9285613952565b830182613a39565b50505b505050565b600082821c905092915050565b6000613ac060001984600802613aa2565b1980831691505092915050565b6000613ad98383613aaf565b9150826002028217905092915050565b613af282612cca565b67ffffffffffffffff811115613b0b57613b0a613052565b5b613b15825461344b565b613b20828285613a5c565b600060209050601f831160018114613b535760008415613b41578287015190505b613b4b8582613acd565b865550613bb3565b601f198416613b618661393d565b60005b82811015613b8957848901518255600182019150602085019450602081019050613b64565b86831015613ba65784890151613ba2601f891682613aaf565b8355505b6001600288020188555050505b505050505050565b6000604082019050613bd06000830185612e1a565b8181036020830152613be28184612d2a565b90509392505050565b7f4552433732314275726e61626c653a2063616c6c6572206973206e6f74206f7760008201527f6e6572206e6f7220617070726f76656400000000000000000000000000000000602082015250565b6000613c47603083612cd5565b9150613c5282613beb565b604082019050919050565b60006020820190508181036000830152613c7681613c3a565b9050919050565b7f4552433732313a206f776e657220717565727920666f72206e6f6e657869737460008201527f656e7420746f6b656e0000000000000000000000000000000000000000000000602082015250565b6000613cd9602983612cd5565b9150613ce482613c7d565b604082019050919050565b60006020820190508181036000830152613d0881613ccc565b9050919050565b7f4552433732313a2062616c616e636520717565727920666f7220746865207a6560008201527f726f206164647265737300000000000000000000000000000000000000000000602082015250565b6000613d6b602a83612cd5565b9150613d7682613d0f565b604082019050919050565b60006020820190508181036000830152613d9a81613d5e565b9050919050565b7f4552433732314d657461646174613a2055524920717565727920666f72206e6f60008201527f6e6578697374656e7420746f6b656e0000000000000000000000000000000000602082015250565b6000613dfd602f83612cd5565b9150613e0882613da1565b604082019050919050565b60006020820190508181036000830152613e2c81613df0565b9050919050565b7f426c6f636b4e6577734d65646961546f6b656e3a204275726e20666f72206e6f60008201527f6e6578697374656e7420746f6b656e0000000000000000000000000000000000602082015250565b6000613e8f602f83612cd5565b9150613e9a82613e33565b604082019050919050565b60006020820190508181036000830152613ebe81613e82565b9050919050565b7f4552433732313a206f70657261746f7220717565727920666f72206e6f6e657860008201527f697374656e7420746f6b656e0000000000000000000000000000000000000000602082015250565b6000613f21602c83612cd5565b9150613f2c82613ec5565b604082019050919050565b60006020820190508181036000830152613f5081613f14565b9050919050565b7f4552433732313a207472616e73666572206f6620746f6b656e2074686174206960008201527f73206e6f74206f776e0000000000000000000000000000000000000000000000602082015250565b6000613fb3602983612cd5565b9150613fbe82613f57565b604082019050919050565b60006020820190508181036000830152613fe281613fa6565b9050919050565b7f4552433732313a207472616e7366657220746f20746865207a65726f2061646460008201527f7265737300000000000000000000000000000000000000000000000000000000602082015250565b6000614045602483612cd5565b915061405082613fe9565b604082019050919050565b6000602082019050818103600083015261407481614038565b9050919050565b600061408682612d85565b915061409183612d85565b9250828210156140a4576140a36136c4565b5b828203905092915050565b60006140ba82612d85565b91506140c583612d85565b9250827fffffffffffffffffffffffffffffffffffffffffffffffffffffffffffffffff038211156140fa576140f96136c4565b5b828201905092915050565b600081905092915050565b7f416363657373436f6e74726f6c3a206163636f756e7420000000000000000000600082015250565b6000614146601783614105565b915061415182614110565b601782019050919050565b600061416782612cca565b6141718185614105565b9350614181818560208601612ce6565b80840191505092915050565b7f206973206d697373696e6720726f6c6520000000000000000000000000000000600082015250565b60006141c3601183614105565b91506141ce8261418d565b601182019050919050565b60006141e482614139565b91506141f0828561415c565b91506141fb826141b6565b9150614207828461415c565b91508190509392505050565b7f45524337323155524953746f726167653a2055524920736574206f66206e6f6e60008201527f6578697374656e7420746f6b656e000000000000000000000000000000000000602082015250565b600061426f602e83612cd5565b915061427a82614213565b604082019050919050565b6000602082019050818103600083015261429e81614262565b9050919050565b7f5061757361626c653a206e6f7420706175736564000000000000000000000000600082015250565b60006142db601483612cd5565b91506142e6826142a5565b602082019050919050565b6000602082019050818103600083015261430a816142ce565b9050919050565b7f45524332393831526f79616c746965733a20546f6f2068696768000000000000600082015250565b6000614347601a83612cd5565b915061435282614311565b602082019050919050565b600060208201905081810360008301526143768161433a565b9050919050565b7f4552433732313a20617070726f766520746f2063616c6c657200000000000000600082015250565b60006143b3601983612cd5565b91506143be8261437d565b602082019050919050565b600060208201905081810360008301526143e2816143a6565b9050919050565b7f4552433732313a207472616e7366657220746f206e6f6e20455243373231526560008201527f63656976657220696d706c656d656e7465720000000000000000000000000000602082015250565b6000614445603283612cd5565b9150614450826143e9565b604082019050919050565b6000602082019050818103600083015261447481614438565b9050919050565b7f45524337323155524953746f726167653a2055524920717565727920666f722060008201527f6e6f6e6578697374656e7420746f6b656e000000000000000000000000000000602082015250565b60006144d7603183612cd5565b91506144e28261447b565b604082019050919050565b60006020820190508181036000830152614506816144ca565b9050919050565b6000614519828561415c565b9150614525828461415c565b91508190509392505050565b7f4e487b7100000000000000000000000000000000000000000000000000000000600052603260045260246000fd5b600061456b82612d85565b91506000820361457e5761457d6136c4565b5b600182039050919050565b7f537472696e67733a20686578206c656e67746820696e73756666696369656e74600082015250565b60006145bf602083612cd5565b91506145ca82614589565b602082019050919050565b600060208201905081810360008301526145ee816145b2565b9050919050565b600081519050919050565b600082825260208201905092915050565b600061461c826145f5565b6146268185614600565b9350614636818560208601612ce6565b61463f81612d19565b840191505092915050565b600060808201905061465f6000830187612e1a565b61466c6020830186612e1a565b6146796040830185612fd0565b818103606083015261468b8184614611565b905095945050505050565b6000815190506146a581612c3b565b92915050565b6000602082840312156146c1576146c0612c05565b5b60006146cf84828501614696565b91505092915050565b7f4552433732313a206d696e7420746f20746865207a65726f2061646472657373600082015250565b600061470e602083612cd5565b9150614719826146d8565b602082019050919050565b6000602082019050818103600083015261473d81614701565b9050919050565b7f4552433732313a20746f6b656e20616c7265616479206d696e74656400000000600082015250565b600061477a601c83612cd5565b915061478582614744565b602082019050919050565b600060208201905081810360008301526147a98161476d565b9050919050565b60006147bb82612d85565b91507fffffffffffffffffffffffffffffffffffffffffffffffffffffffffffffffff82036147ed576147ec6136c4565b5b600182019050919050565b600061480382612d85565b915061480e83612d85565b92508261481e5761481d61374d565b5b82820690509291505056fea2646970667358221220589a65ca9606ba5d0ae97cd88ca1a7eae579c5259bab9552be21ed7cf7e36ee864736f6c634300080f0033",
  "immutableReferences": {},
  "source": "// SPDX-License-Identifier: CPL\npragma solidity 0.8.15;\n\nimport \"@openzeppelin/contracts/token/ERC721/ERC721.sol\";\nimport \"@openzeppelin/contracts/token/ERC721/extensions/ERC721URIStorage.sol\";\nimport \"@openzeppelin/contracts/security/Pausable.sol\";\nimport \"@openzeppelin/contracts/access/AccessControl.sol\";\nimport \"@openzeppelin/contracts/token/ERC721/extensions/ERC721Burnable.sol\";\nimport \"@openzeppelin/contracts/utils/Counters.sol\";\n\n// NFT Token Royalties Interface\nimport \"./ERC2981/IERC2981Royalties.sol\";\n\n/// @title NFT Contract to mint news articles as NFTs\n/// @author Lukas Knutti <hello@rootine.ch>\n/// @notice To mint/buy/sell articles as NFTs please head to blocknewsmedia.us\n/// @custom:security-contact hello@rootine.ch\ncontract BlockNewsMediaToken is\n    ERC721,\n    ERC721URIStorage,\n    Pausable,\n    AccessControl,\n    ERC721Burnable\n{\n    using Counters for Counters.Counter;\n\n    mapping(uint256 => Item) public items;\n\n    struct Item {\n        uint256 id;\n        address creator;\n        string uri;\n    }\n\n    struct RoyaltyInfo {\n        address recipient;\n        uint24 amount;\n    }\n\n    event TokenMinted(address _from, string _uri);\n\n    ///@dev address to receive all royalty payments\n    address private constant ROYALTIES_RECEIVER =\n        0x45b58919A70BFdA15d4bb0A8df752A671a318d7E;\n\n    Counters.Counter private _tokenIds;\n    RoyaltyInfo private _royalties;\n\n    bytes32 public constant PAUSER_ROLE = keccak256(\"PAUSER_ROLE\");\n\n    constructor() ERC721(\"BlockNewsMedia\", \"BNM\") {\n        ///@dev grant default roles to contract owner\n        _grantRole(DEFAULT_ADMIN_ROLE, msg.sender);\n        _grantRole(PAUSER_ROLE, msg.sender);\n\n        ///@dev set royalties to 1.75%\n        _setRoyalties(ROYALTIES_RECEIVER, 175);\n    }\n\n    function pause() public onlyRole(PAUSER_ROLE) {\n        _pause();\n    }\n\n    function unpause() public onlyRole(PAUSER_ROLE) {\n        _unpause();\n    }\n\n    /// @notice Called with the uri of the token metadata to mint a new token\n    /// @param uriOfToken - the uri to the ipfs hosted token metadata\n    /// @return tokenId - the ID of the token minted\n    function createItem(string memory uriOfToken)\n        public\n        whenNotPaused\n        returns (uint256)\n    {\n        require(\n            bytes(uriOfToken).length > 0,\n            \"BlockNewsMediaToken: No Token URI supplied\"\n        );\n        _tokenIds.increment();\n\n        uint256 newItemId = _tokenIds.current();\n\n        _safeMint(msg.sender, newItemId);\n\n        items[newItemId] = Item(newItemId, msg.sender, uriOfToken);\n\n        _setTokenURI(newItemId, uriOfToken);\n\n        emit TokenMinted(msg.sender, uriOfToken);\n\n        return newItemId;\n    }\n\n    /// @notice Called with the ID of the token to burn the token\n    /// @param tokenId - token ID of the token to burn\n    /// @return success - a bool to indicate the burn success\n    function destoryItem(uint256 tokenId) public whenNotPaused returns (bool) {\n        require(\n            _exists(tokenId),\n            \"BlockNewsMediaToken: Burn for nonexistent token\"\n        );\n        delete items[tokenId];\n        burn(tokenId);\n        return true;\n    }\n\n    /// @notice Implements the EIP-2981 standard into this contract\n    /// @param salesPrice - Price of the token sell on the marketplace\n    /// @return receiver - Returns royalty receiver address\n    /// @return royaltyAmount - Returns royalty amount in the same unit that was used on the marketplace which has to be paid to the royaltyReceiver\n    /// @dev As we use contract-wide royalties this is not used here\n    function royaltyInfo(uint256, uint256 salesPrice)\n        external\n        view\n        returns (address receiver, uint256 royaltyAmount)\n    {\n        RoyaltyInfo memory royalties = _royalties;\n        receiver = royalties.recipient;\n        royaltyAmount = (salesPrice * royalties.amount) / 10000;\n        return (receiver, royaltyAmount);\n    }\n\n    /// @notice Allows to set the royalties on the contract\n    /// @param recipient - the royalties recipient\n    /// @param value - royalties value (between 0 and 10000)\n    function setRoyalties(address recipient, uint256 value)\n        public\n        onlyRole(DEFAULT_ADMIN_ROLE)\n    {\n        _setRoyalties(recipient, value);\n    }\n\n    /// @notice Implements the ERC721 standard into this contract so marketplaces can get the metadata for a token\n    /// @param tokenId - token ID to get the metadata url from\n    /// @return uri - returns uri to the token metadata\n    function tokenURI(uint256 tokenId)\n        public\n        view\n        override(ERC721, ERC721URIStorage)\n        returns (string memory)\n    {\n        require(\n            _exists(tokenId),\n            \"ERC721Metadata: URI query for nonexistent token\"\n        );\n        return super.tokenURI(tokenId);\n    }\n\n    /// @notice Implements the EIP-165 standard into this contract for other contracts to identify interfaes\n    /// @param interfaceId - interface ID to check or support\n    /// @return bool - returns if the interface is supported\n    function supportsInterface(bytes4 interfaceId)\n        public\n        view\n        override(ERC721, AccessControl)\n        returns (bool)\n    {\n        return\n            interfaceId == type(IERC2981Royalties).interfaceId ||\n            super.supportsInterface(interfaceId);\n    }\n\n    // Internal Functions\n\n    /// @dev Sets token royalties\n    /// @param recipient recipient of the royalties\n    /// @param value percentage (using 2 decimals - 10000 = 100, 0 = 0)\n    function _setRoyalties(address recipient, uint256 value) internal {\n        require(value <= 10000, \"ERC2981Royalties: Too high\");\n        _royalties = RoyaltyInfo(recipient, uint24(value));\n    }\n\n    function _beforeTokenTransfer(\n        address from,\n        address to,\n        uint256 tokenId\n    ) internal override whenNotPaused {\n        super._beforeTokenTransfer(from, to, tokenId);\n    }\n\n    // The following functions are overrides required by Solidity.\n\n    function _burn(uint256 tokenId)\n        internal\n        override(ERC721, ERC721URIStorage)\n    {\n        super._burn(tokenId);\n    }\n}\n",
  "sourcePath": "/Users/bryce_palichuk/Documents/GitHub/BNM/contracts/contracts/BlockNewsMediaToken.sol",
  "compiler": {
    "name": "solc",
    "version": "0.8.15+commit.e14f2714.Emscripten.clang"
  },
  "schemaVersion": "3.4.7",
  "updatedAt": "2022-06-28T00:00:32.058Z",
  "devdoc": {
    "author": "Lukas Knutti <hello@rootine.ch>",
    "custom:security-contact": "hello@rootine.ch",
    "kind": "dev",
    "methods": {
      "approve(address,uint256)": {
        "details": "See {IERC721-approve}."
      },
      "balanceOf(address)": {
        "details": "See {IERC721-balanceOf}."
      },
      "burn(uint256)": {
        "details": "Burns `tokenId`. See {ERC721-_burn}. Requirements: - The caller must own `tokenId` or be an approved operator."
      },
      "createItem(string)": {
        "params": {
          "uriOfToken": "- the uri to the ipfs hosted token metadata"
        },
        "returns": {
          "_0": "tokenId - the ID of the token minted"
        }
      },
      "destoryItem(uint256)": {
        "params": {
          "tokenId": "- token ID of the token to burn"
        },
        "returns": {
          "_0": "success - a bool to indicate the burn success"
        }
      },
      "getApproved(uint256)": {
        "details": "See {IERC721-getApproved}."
      },
      "getRoleAdmin(bytes32)": {
        "details": "Returns the admin role that controls `role`. See {grantRole} and {revokeRole}. To change a role's admin, use {_setRoleAdmin}."
      },
      "grantRole(bytes32,address)": {
        "details": "Grants `role` to `account`. If `account` had not been already granted `role`, emits a {RoleGranted} event. Requirements: - the caller must have ``role``'s admin role."
      },
      "hasRole(bytes32,address)": {
        "details": "Returns `true` if `account` has been granted `role`."
      },
      "isApprovedForAll(address,address)": {
        "details": "See {IERC721-isApprovedForAll}."
      },
      "name()": {
        "details": "See {IERC721Metadata-name}."
      },
      "ownerOf(uint256)": {
        "details": "See {IERC721-ownerOf}."
      },
      "paused()": {
        "details": "Returns true if the contract is paused, and false otherwise."
      },
      "renounceRole(bytes32,address)": {
        "details": "Revokes `role` from the calling account. Roles are often managed via {grantRole} and {revokeRole}: this function's purpose is to provide a mechanism for accounts to lose their privileges if they are compromised (such as when a trusted device is misplaced). If the calling account had been revoked `role`, emits a {RoleRevoked} event. Requirements: - the caller must be `account`."
      },
      "revokeRole(bytes32,address)": {
        "details": "Revokes `role` from `account`. If `account` had been granted `role`, emits a {RoleRevoked} event. Requirements: - the caller must have ``role``'s admin role."
      },
      "royaltyInfo(uint256,uint256)": {
        "details": "As we use contract-wide royalties this is not used here",
        "params": {
          "salesPrice": "- Price of the token sell on the marketplace"
        },
        "returns": {
          "receiver": "- Returns royalty receiver address",
          "royaltyAmount": "- Returns royalty amount in the same unit that was used on the marketplace which has to be paid to the royaltyReceiver"
        }
      },
      "safeTransferFrom(address,address,uint256)": {
        "details": "See {IERC721-safeTransferFrom}."
      },
      "safeTransferFrom(address,address,uint256,bytes)": {
        "details": "See {IERC721-safeTransferFrom}."
      },
      "setApprovalForAll(address,bool)": {
        "details": "See {IERC721-setApprovalForAll}."
      },
      "setRoyalties(address,uint256)": {
        "params": {
          "recipient": "- the royalties recipient",
          "value": "- royalties value (between 0 and 10000)"
        }
      },
      "supportsInterface(bytes4)": {
        "params": {
          "interfaceId": "- interface ID to check or support"
        },
        "returns": {
          "_0": "bool - returns if the interface is supported"
        }
      },
      "symbol()": {
        "details": "See {IERC721Metadata-symbol}."
      },
      "tokenURI(uint256)": {
        "params": {
          "tokenId": "- token ID to get the metadata url from"
        },
        "returns": {
          "_0": "uri - returns uri to the token metadata"
        }
      },
      "transferFrom(address,address,uint256)": {
        "details": "See {IERC721-transferFrom}."
      }
    },
    "stateVariables": {
      "ROYALTIES_RECEIVER": {
        "details": "address to receive all royalty payments"
      }
    },
    "title": "NFT Contract to mint news articles as NFTs",
    "version": 1
  },
  "userdoc": {
    "kind": "user",
    "methods": {
      "createItem(string)": {
        "notice": "Called with the uri of the token metadata to mint a new token"
      },
      "destoryItem(uint256)": {
        "notice": "Called with the ID of the token to burn the token"
      },
      "royaltyInfo(uint256,uint256)": {
        "notice": "Implements the EIP-2981 standard into this contract"
      },
      "setRoyalties(address,uint256)": {
        "notice": "Allows to set the royalties on the contract"
      },
      "supportsInterface(bytes4)": {
        "notice": "Implements the EIP-165 standard into this contract for other contracts to identify interfaes"
      },
      "tokenURI(uint256)": {
        "notice": "Implements the ERC721 standard into this contract so marketplaces can get the metadata for a token"
      }
    },
    "notice": "To mint/buy/sell articles as NFTs please head to blocknewsmedia.us",
    "version": 1
  }
}