{
  "contractName": "BlockNewsMediaMarketPlace",
  "abi": [
    {
      "inputs": [],
      "stateMutability": "nonpayable",
      "type": "constructor"
    },
    {
      "anonymous": false,
      "inputs": [
        {
          "indexed": false,
          "internalType": "uint256",
          "name": "id",
          "type": "uint256"
        },
        {
          "indexed": false,
          "internalType": "uint256",
          "name": "tokenId",
          "type": "uint256"
        },
        {
          "indexed": false,
          "internalType": "address",
          "name": "tokenAddress",
          "type": "address"
        },
        {
          "indexed": false,
          "internalType": "uint256",
          "name": "askingPrice",
          "type": "uint256"
        }
      ],
      "name": "ItemAdded",
      "type": "event"
    },
    {
      "anonymous": false,
      "inputs": [
        {
          "indexed": false,
          "internalType": "uint256",
          "name": "id",
          "type": "uint256"
        },
        {
          "indexed": false,
          "internalType": "address",
          "name": "buyer",
          "type": "address"
        },
        {
          "indexed": false,
          "internalType": "uint256",
          "name": "askingPrice",
          "type": "uint256"
        }
      ],
      "name": "ItemSold",
      "type": "event"
    },
    {
      "anonymous": false,
      "inputs": [
        {
          "indexed": false,
          "internalType": "address",
          "name": "account",
          "type": "address"
        }
      ],
      "name": "Paused",
      "type": "event"
    },
    {
      "anonymous": false,
      "inputs": [
        {
          "indexed": true,
          "internalType": "bytes32",
          "name": "role",
          "type": "bytes32"
        },
        {
          "indexed": true,
          "internalType": "bytes32",
          "name": "previousAdminRole",
          "type": "bytes32"
        },
        {
          "indexed": true,
          "internalType": "bytes32",
          "name": "newAdminRole",
          "type": "bytes32"
        }
      ],
      "name": "RoleAdminChanged",
      "type": "event"
    },
    {
      "anonymous": false,
      "inputs": [
        {
          "indexed": true,
          "internalType": "bytes32",
          "name": "role",
          "type": "bytes32"
        },
        {
          "indexed": true,
          "internalType": "address",
          "name": "account",
          "type": "address"
        },
        {
          "indexed": true,
          "internalType": "address",
          "name": "sender",
          "type": "address"
        }
      ],
      "name": "RoleGranted",
      "type": "event"
    },
    {
      "anonymous": false,
      "inputs": [
        {
          "indexed": true,
          "internalType": "bytes32",
          "name": "role",
          "type": "bytes32"
        },
        {
          "indexed": true,
          "internalType": "address",
          "name": "account",
          "type": "address"
        },
        {
          "indexed": true,
          "internalType": "address",
          "name": "sender",
          "type": "address"
        }
      ],
      "name": "RoleRevoked",
      "type": "event"
    },
    {
      "anonymous": false,
      "inputs": [
        {
          "indexed": false,
          "internalType": "address",
          "name": "account",
          "type": "address"
        }
      ],
      "name": "Unpaused",
      "type": "event"
    },
    {
      "inputs": [],
      "name": "DEFAULT_ADMIN_ROLE",
      "outputs": [
        {
          "internalType": "bytes32",
          "name": "",
          "type": "bytes32"
        }
      ],
      "stateMutability": "view",
      "type": "function"
    },
    {
      "inputs": [],
      "name": "PAUSER_ROLE",
      "outputs": [
        {
          "internalType": "bytes32",
          "name": "",
          "type": "bytes32"
        }
      ],
      "stateMutability": "view",
      "type": "function"
    },
    {
      "inputs": [
        {
          "internalType": "bytes32",
          "name": "role",
          "type": "bytes32"
        }
      ],
      "name": "getRoleAdmin",
      "outputs": [
        {
          "internalType": "bytes32",
          "name": "",
          "type": "bytes32"
        }
      ],
      "stateMutability": "view",
      "type": "function"
    },
    {
      "inputs": [
        {
          "internalType": "bytes32",
          "name": "role",
          "type": "bytes32"
        },
        {
          "internalType": "address",
          "name": "account",
          "type": "address"
        }
      ],
      "name": "grantRole",
      "outputs": [],
      "stateMutability": "nonpayable",
      "type": "function"
    },
    {
      "inputs": [
        {
          "internalType": "bytes32",
          "name": "role",
          "type": "bytes32"
        },
        {
          "internalType": "address",
          "name": "account",
          "type": "address"
        }
      ],
      "name": "hasRole",
      "outputs": [
        {
          "internalType": "bool",
          "name": "",
          "type": "bool"
        }
      ],
      "stateMutability": "view",
      "type": "function"
    },
    {
      "inputs": [
        {
          "internalType": "uint256",
          "name": "",
          "type": "uint256"
        }
      ],
      "name": "itemsForSale",
      "outputs": [
        {
          "internalType": "uint256",
          "name": "id",
          "type": "uint256"
        },
        {
          "internalType": "address",
          "name": "tokenAddress",
          "type": "address"
        },
        {
          "internalType": "uint256",
          "name": "tokenId",
          "type": "uint256"
        },
        {
          "internalType": "address payable",
          "name": "seller",
          "type": "address"
        },
        {
          "internalType": "uint256",
          "name": "askingPrice",
          "type": "uint256"
        },
        {
          "internalType": "bool",
          "name": "isSold",
          "type": "bool"
        }
      ],
      "stateMutability": "view",
      "type": "function"
    },
    {
      "inputs": [],
      "name": "paused",
      "outputs": [
        {
          "internalType": "bool",
          "name": "",
          "type": "bool"
        }
      ],
      "stateMutability": "view",
      "type": "function"
    },
    {
      "inputs": [
        {
          "internalType": "bytes32",
          "name": "role",
          "type": "bytes32"
        },
        {
          "internalType": "address",
          "name": "account",
          "type": "address"
        }
      ],
      "name": "renounceRole",
      "outputs": [],
      "stateMutability": "nonpayable",
      "type": "function"
    },
    {
      "inputs": [
        {
          "internalType": "bytes32",
          "name": "role",
          "type": "bytes32"
        },
        {
          "internalType": "address",
          "name": "account",
          "type": "address"
        }
      ],
      "name": "revokeRole",
      "outputs": [],
      "stateMutability": "nonpayable",
      "type": "function"
    },
    {
      "inputs": [
        {
          "internalType": "bytes4",
          "name": "interfaceId",
          "type": "bytes4"
        }
      ],
      "name": "supportsInterface",
      "outputs": [
        {
          "internalType": "bool",
          "name": "",
          "type": "bool"
        }
      ],
      "stateMutability": "view",
      "type": "function"
    },
    {
      "inputs": [],
      "name": "pause",
      "outputs": [],
      "stateMutability": "nonpayable",
      "type": "function"
    },
    {
      "inputs": [],
      "name": "unpause",
      "outputs": [],
      "stateMutability": "nonpayable",
      "type": "function"
    },
    {
      "inputs": [
        {
          "internalType": "uint256",
          "name": "tokenId",
          "type": "uint256"
        },
        {
          "internalType": "address",
          "name": "tokenAddress",
          "type": "address"
        },
        {
          "internalType": "uint256",
          "name": "askingPrice",
          "type": "uint256"
        }
      ],
      "name": "addItemToMarket",
      "outputs": [
        {
          "internalType": "uint256",
          "name": "",
          "type": "uint256"
        }
      ],
      "stateMutability": "nonpayable",
      "type": "function"
    },
    {
      "inputs": [
        {
          "internalType": "uint256",
          "name": "id",
          "type": "uint256"
        }
      ],
      "name": "buyItem",
      "outputs": [],
      "stateMutability": "payable",
      "type": "function"
    },
    {
      "inputs": [
        {
          "internalType": "address",
          "name": "recipient",
          "type": "address"
        },
        {
          "internalType": "uint256",
          "name": "value",
          "type": "uint256"
        }
      ],
      "name": "setRoyalties",
      "outputs": [],
      "stateMutability": "nonpayable",
      "type": "function"
    },
    {
      "inputs": [],
      "name": "itemsSold",
      "outputs": [
        {
          "internalType": "uint256",
          "name": "",
          "type": "uint256"
        }
      ],
      "stateMutability": "view",
      "type": "function"
    }
  ],
  "bytecode": "0x60806040523480156200001157600080fd5b5060008060006101000a81548160ff021916908315150217905550620000416000801b33620000a060201b60201c565b620000737f65d7a28e3265b37a6474929f336521b332c1681b933f6cb9f3376673440d862a33620000a060201b60201c565b6200009a73dd870fa1b7c4700f2bd7f44238821c26f739214860af6200019160201b60201c565b62000374565b620000b282826200027e60201b60201c565b6200018d57600180600084815260200190815260200160002060000160008373ffffffffffffffffffffffffffffffffffffffff1673ffffffffffffffffffffffffffffffffffffffff16815260200190815260200160002060006101000a81548160ff02191690831515021790555062000132620002e960201b60201c565b73ffffffffffffffffffffffffffffffffffffffff168173ffffffffffffffffffffffffffffffffffffffff16837f2f8788117e7eff1d82e926ec794901d17c78024a50270940304540a733656f0d60405160405180910390a45b5050565b612710811115620001d9576040517f08c379a0000000000000000000000000000000000000000000000000000000008152600401620001d09062000352565b60405180910390fd5b60405180604001604052808373ffffffffffffffffffffffffffffffffffffffff1681526020018262ffffff16815250600560008201518160000160006101000a81548173ffffffffffffffffffffffffffffffffffffffff021916908373ffffffffffffffffffffffffffffffffffffffff16021790555060208201518160000160146101000a81548162ffffff021916908362ffffff1602179055509050505050565b60006001600084815260200190815260200160002060000160008373ffffffffffffffffffffffffffffffffffffffff1673ffffffffffffffffffffffffffffffffffffffff16815260200190815260200160002060009054906101000a900460ff16905092915050565b600033905090565b600082825260208201905092915050565b7f45524332393831526f79616c746965733a20546f6f2068696768000000000000600082015250565b60006200033a601a83620002f1565b9150620003478262000302565b602082019050919050565b600060208201905081810360008301526200036d816200032b565b9050919050565b6127c180620003846000396000f3fe6080604052600436106100f35760003560e01c80638456cb591161008a578063a217fddf11610059578063a217fddf1461032d578063d547741f14610358578063e63ab1e914610381578063e7fb74c7146103ac576100f3565b80638456cb59146102855780638c7ea24b1461029c578063913e0a48146102c557806391d14854146102f0576100f3565b806336568abe116100c657806336568abe146101dd5780633f4ba83a146102065780634abc22021461021d5780635c975abb1461025a576100f3565b806301ffc9a7146100f8578063092d0afc14610135578063248a9ca3146101775780632f2ff15d146101b4575b600080fd5b34801561010457600080fd5b5061011f600480360381019061011a9190611a67565b6103c8565b60405161012c9190611aaf565b60405180910390f35b34801561014157600080fd5b5061015c60048036038101906101579190611b00565b610442565b60405161016e96959493929190611b9e565b60405180910390f35b34801561018357600080fd5b5061019e60048036038101906101999190611c35565b6104db565b6040516101ab9190611c71565b60405180910390f35b3480156101c057600080fd5b506101db60048036038101906101d69190611cb8565b6104fb565b005b3480156101e957600080fd5b5061020460048036038101906101ff9190611cb8565b610524565b005b34801561021257600080fd5b5061021b6105a7565b005b34801561022957600080fd5b50610244600480360381019061023f9190611cf8565b6105e4565b6040516102519190611d4b565b60405180910390f35b34801561026657600080fd5b5061026f610a45565b60405161027c9190611aaf565b60405180910390f35b34801561029157600080fd5b5061029a610a5b565b005b3480156102a857600080fd5b506102c360048036038101906102be9190611d66565b610a98565b005b3480156102d157600080fd5b506102da610abc565b6040516102e79190611d4b565b60405180910390f35b3480156102fc57600080fd5b5061031760048036038101906103129190611cb8565b610acd565b6040516103249190611aaf565b60405180910390f35b34801561033957600080fd5b50610342610b38565b60405161034f9190611c71565b60405180910390f35b34801561036457600080fd5b5061037f600480360381019061037a9190611cb8565b610b3f565b005b34801561038d57600080fd5b50610396610b68565b6040516103a39190611c71565b60405180910390f35b6103c660048036038101906103c19190611b00565b610b8c565b005b60007f7965db0b000000000000000000000000000000000000000000000000000000007bffffffffffffffffffffffffffffffffffffffffffffffffffffffff1916827bffffffffffffffffffffffffffffffffffffffffffffffffffffffff1916148061043b575061043a826112ac565b5b9050919050565b6002818154811061045257600080fd5b90600052602060002090600602016000915090508060000154908060010160009054906101000a900473ffffffffffffffffffffffffffffffffffffffff16908060020154908060030160009054906101000a900473ffffffffffffffffffffffffffffffffffffffff16908060040154908060050160009054906101000a900460ff16905086565b600060016000838152602001908152602001600020600101549050919050565b610504826104db565b61051581610510611316565b61131e565b61051f83836113bb565b505050565b61052c611316565b73ffffffffffffffffffffffffffffffffffffffff168173ffffffffffffffffffffffffffffffffffffffff1614610599576040517f08c379a000000000000000000000000000000000000000000000000000000000815260040161059090611e29565b60405180910390fd5b6105a3828261149b565b5050565b7f65d7a28e3265b37a6474929f336521b332c1681b933f6cb9f3376673440d862a6105d9816105d4611316565b61131e565b6105e161157d565b50565b6000828460008290503373ffffffffffffffffffffffffffffffffffffffff168173ffffffffffffffffffffffffffffffffffffffff16636352211e846040518263ffffffff1660e01b815260040161063d9190611d4b565b602060405180830381865afa15801561065a573d6000803e3d6000fd5b505050506040513d601f19601f8201168201806040525081019061067e9190611e5e565b73ffffffffffffffffffffffffffffffffffffffff161461069e57600080fd5b858760008290503073ffffffffffffffffffffffffffffffffffffffff168173ffffffffffffffffffffffffffffffffffffffff1663081812fc846040518263ffffffff1660e01b81526004016106f59190611d4b565b602060405180830381865afa158015610712573d6000803e3d6000fd5b505050506040513d601f19601f820116820180604052508101906107369190611e5e565b73ffffffffffffffffffffffffffffffffffffffff161461075657600080fd5b60001515600360008b73ffffffffffffffffffffffffffffffffffffffff1673ffffffffffffffffffffffffffffffffffffffff16815260200190815260200160002060008c815260200190815260200160002060009054906101000a900460ff161515146107fa576040517f08c379a00000000000000000000000000000000000000000000000000000000081526004016107f190611ed7565b60405180910390fd5b6000600280549050905060026040518060c001604052808381526020018c73ffffffffffffffffffffffffffffffffffffffff1681526020018d81526020013373ffffffffffffffffffffffffffffffffffffffff1681526020018b81526020016000151581525090806001815401808255809150506001900390600052602060002090600602016000909190919091506000820151816000015560208201518160010160006101000a81548173ffffffffffffffffffffffffffffffffffffffff021916908373ffffffffffffffffffffffffffffffffffffffff1602179055506040820151816002015560608201518160030160006101000a81548173ffffffffffffffffffffffffffffffffffffffff021916908373ffffffffffffffffffffffffffffffffffffffff1602179055506080820151816004015560a08201518160050160006101000a81548160ff02191690831515021790555050506001600360008c73ffffffffffffffffffffffffffffffffffffffff1673ffffffffffffffffffffffffffffffffffffffff16815260200190815260200160002060008d815260200190815260200160002060006101000a81548160ff02191690831515021790555080600282815481106109d7576109d6611ef7565b5b906000526020600020906006020160000154146109f7576109f6611f26565b5b7fd251be2f9ac8e7aebe1bdb7cef332833795022b0ba7e486da68ebe135f8ed317818c8c8c604051610a2c9493929190611f55565b60405180910390a1809750505050505050509392505050565b60008060009054906101000a900460ff16905090565b7f65d7a28e3265b37a6474929f336521b332c1681b933f6cb9f3376673440d862a610a8d81610a88611316565b61131e565b610a9561161e565b50565b6000801b610aad81610aa8611316565b61131e565b610ab783836116c0565b505050565b6000610ac860046117aa565b905090565b60006001600084815260200190815260200160002060000160008373ffffffffffffffffffffffffffffffffffffffff1673ffffffffffffffffffffffffffffffffffffffff16815260200190815260200160002060009054906101000a900460ff16905092915050565b6000801b81565b610b48826104db565b610b5981610b54611316565b61131e565b610b63838361149b565b505050565b7f65d7a28e3265b37a6474929f336521b332c1681b933f6cb9f3376673440d862a81565b808060028281548110610ba257610ba1611ef7565b5b90600052602060002090600602016000015414610bf4576040517f08c379a0000000000000000000000000000000000000000000000000000000008152600401610beb90611fe6565b60405180910390fd5b816000151560028281548110610c0d57610c0c611ef7565b5b906000526020600020906006020160050160009054906101000a900460ff16151514610c6e576040517f08c379a0000000000000000000000000000000000000000000000000000000008152600401610c6590612052565b60405180910390fd5b60028381548110610c8257610c81611ef7565b5b906000526020600020906006020160010160009054906101000a900473ffffffffffffffffffffffffffffffffffffffff1660028481548110610cc857610cc7611ef7565b5b90600052602060002090600602016002015460008290503073ffffffffffffffffffffffffffffffffffffffff168173ffffffffffffffffffffffffffffffffffffffff1663081812fc846040518263ffffffff1660e01b8152600401610d2f9190611d4b565b602060405180830381865afa158015610d4c573d6000803e3d6000fd5b505050506040513d601f19601f82011682018060405250810190610d709190611e5e565b73ffffffffffffffffffffffffffffffffffffffff1614610d9057600080fd5b60028681548110610da457610da3611ef7565b5b906000526020600020906006020160040154341015610df8576040517f08c379a0000000000000000000000000000000000000000000000000000000008152600401610def906120be565b60405180910390fd5b60028681548110610e0c57610e0b611ef7565b5b906000526020600020906006020160030160009054906101000a900473ffffffffffffffffffffffffffffffffffffffff1673ffffffffffffffffffffffffffffffffffffffff163373ffffffffffffffffffffffffffffffffffffffff1603610eab576040517f08c379a0000000000000000000000000000000000000000000000000000000008152600401610ea290612150565b60405180910390fd5b600160028781548110610ec157610ec0611ef7565b5b906000526020600020906006020160050160006101000a81548160ff02191690831515021790555060006003600060028981548110610f0357610f02611ef7565b5b906000526020600020906006020160010160009054906101000a900473ffffffffffffffffffffffffffffffffffffffff1673ffffffffffffffffffffffffffffffffffffffff1673ffffffffffffffffffffffffffffffffffffffff168152602001908152602001600020600060028981548110610f8557610f84611ef7565b5b906000526020600020906006020160020154815260200190815260200160002060006101000a81548160ff02191690831515021790555060028681548110610fd057610fcf611ef7565b5b906000526020600020906006020160010160009054906101000a900473ffffffffffffffffffffffffffffffffffffffff1673ffffffffffffffffffffffffffffffffffffffff166342842e0e6002888154811061103157611030611ef7565b5b906000526020600020906006020160030160009054906101000a900473ffffffffffffffffffffffffffffffffffffffff163360028a8154811061107857611077611ef7565b5b9060005260206000209060060201600201546040518463ffffffff1660e01b81526004016110a8939291906121cf565b600060405180830381600087803b1580156110c257600080fd5b505af11580156110d6573d6000803e3d6000fd5b505050506000600560000160149054906101000a900462ffffff1662ffffff16612710346111049190612264565b61110e9190612295565b3461111991906122ef565b90506000600560000160149054906101000a900462ffffff1662ffffff16612710346111459190612264565b61114f9190612295565b90506002888154811061116557611164611ef7565b5b906000526020600020906006020160030160009054906101000a900473ffffffffffffffffffffffffffffffffffffffff1673ffffffffffffffffffffffffffffffffffffffff166108fc839081150290604051600060405180830381858888f193505050501580156111dc573d6000803e3d6000fd5b5073dd870fa1b7c4700f2bd7f44238821c26f739214873ffffffffffffffffffffffffffffffffffffffff166108fc829081150290604051600060405180830381858888f19350505050158015611237573d6000803e3d6000fd5b5061124260046117b8565b7fa574c741071bb18f51fa88c17aeefec514bebf670ca22a3736fba6504ecbb763883360028b8154811061127957611278611ef7565b5b90600052602060002090600602016004015460405161129a93929190612323565b60405180910390a15050505050505050565b60007f01ffc9a7000000000000000000000000000000000000000000000000000000007bffffffffffffffffffffffffffffffffffffffffffffffffffffffff1916827bffffffffffffffffffffffffffffffffffffffffffffffffffffffff1916149050919050565b600033905090565b6113288282610acd565b6113b75761134d8173ffffffffffffffffffffffffffffffffffffffff1660146117ce565b61135b8360001c60206117ce565b60405160200161136c92919061246c565b6040516020818303038152906040526040517f08c379a00000000000000000000000000000000000000000000000000000000081526004016113ae91906124f0565b60405180910390fd5b5050565b6113c58282610acd565b61149757600180600084815260200190815260200160002060000160008373ffffffffffffffffffffffffffffffffffffffff1673ffffffffffffffffffffffffffffffffffffffff16815260200190815260200160002060006101000a81548160ff02191690831515021790555061143c611316565b73ffffffffffffffffffffffffffffffffffffffff168173ffffffffffffffffffffffffffffffffffffffff16837f2f8788117e7eff1d82e926ec794901d17c78024a50270940304540a733656f0d60405160405180910390a45b5050565b6114a58282610acd565b156115795760006001600084815260200190815260200160002060000160008373ffffffffffffffffffffffffffffffffffffffff1673ffffffffffffffffffffffffffffffffffffffff16815260200190815260200160002060006101000a81548160ff02191690831515021790555061151e611316565b73ffffffffffffffffffffffffffffffffffffffff168173ffffffffffffffffffffffffffffffffffffffff16837ff6391f5c32d9c69d2a47ea670b442974b53935d1edc7fd64eb21e047a839171b60405160405180910390a45b5050565b611585610a45565b6115c4576040517f08c379a00000000000000000000000000000000000000000000000000000000081526004016115bb9061255e565b60405180910390fd5b60008060006101000a81548160ff0219169083151502179055507f5db9ee0a495bf2e6ff9c91a7834c1ba4fdd244a5e8aa4e537bd38aeae4b073aa611607611316565b604051611614919061257e565b60405180910390a1565b611626610a45565b15611666576040517f08c379a000000000000000000000000000000000000000000000000000000000815260040161165d906125e5565b60405180910390fd5b60016000806101000a81548160ff0219169083151502179055507f62e78cea01bee320cd4e420270b5ea74000d11b0c9f74754ebdbfc544b05a2586116a9611316565b6040516116b6919061257e565b60405180910390a1565b612710811115611705576040517f08c379a00000000000000000000000000000000000000000000000000000000081526004016116fc90612651565b60405180910390fd5b60405180604001604052808373ffffffffffffffffffffffffffffffffffffffff1681526020018262ffffff16815250600560008201518160000160006101000a81548173ffffffffffffffffffffffffffffffffffffffff021916908373ffffffffffffffffffffffffffffffffffffffff16021790555060208201518160000160146101000a81548162ffffff021916908362ffffff1602179055509050505050565b600081600001549050919050565b6001816000016000828254019250508190555050565b6060600060028360026117e19190612295565b6117eb9190612671565b67ffffffffffffffff811115611804576118036126c7565b5b6040519080825280601f01601f1916602001820160405280156118365781602001600182028036833780820191505090505b5090507f30000000000000000000000000000000000000000000000000000000000000008160008151811061186e5761186d611ef7565b5b60200101907effffffffffffffffffffffffffffffffffffffffffffffffffffffffffffff1916908160001a9053507f7800000000000000000000000000000000000000000000000000000000000000816001815181106118d2576118d1611ef7565b5b60200101907effffffffffffffffffffffffffffffffffffffffffffffffffffffffffffff1916908160001a905350600060018460026119129190612295565b61191c9190612671565b90505b60018111156119bc577f3031323334353637383961626364656600000000000000000000000000000000600f86166010811061195e5761195d611ef7565b5b1a60f81b82828151811061197557611974611ef7565b5b60200101907effffffffffffffffffffffffffffffffffffffffffffffffffffffffffffff1916908160001a905350600485901c9450806119b5906126f6565b905061191f565b5060008414611a00576040517f08c379a00000000000000000000000000000000000000000000000000000000081526004016119f79061276b565b60405180910390fd5b8091505092915050565b600080fd5b60007fffffffff0000000000000000000000000000000000000000000000000000000082169050919050565b611a4481611a0f565b8114611a4f57600080fd5b50565b600081359050611a6181611a3b565b92915050565b600060208284031215611a7d57611a7c611a0a565b5b6000611a8b84828501611a52565b91505092915050565b60008115159050919050565b611aa981611a94565b82525050565b6000602082019050611ac46000830184611aa0565b92915050565b6000819050919050565b611add81611aca565b8114611ae857600080fd5b50565b600081359050611afa81611ad4565b92915050565b600060208284031215611b1657611b15611a0a565b5b6000611b2484828501611aeb565b91505092915050565b611b3681611aca565b82525050565b600073ffffffffffffffffffffffffffffffffffffffff82169050919050565b6000611b6782611b3c565b9050919050565b611b7781611b5c565b82525050565b6000611b8882611b3c565b9050919050565b611b9881611b7d565b82525050565b600060c082019050611bb36000830189611b2d565b611bc06020830188611b6e565b611bcd6040830187611b2d565b611bda6060830186611b8f565b611be76080830185611b2d565b611bf460a0830184611aa0565b979650505050505050565b6000819050919050565b611c1281611bff565b8114611c1d57600080fd5b50565b600081359050611c2f81611c09565b92915050565b600060208284031215611c4b57611c4a611a0a565b5b6000611c5984828501611c20565b91505092915050565b611c6b81611bff565b82525050565b6000602082019050611c866000830184611c62565b92915050565b611c9581611b5c565b8114611ca057600080fd5b50565b600081359050611cb281611c8c565b92915050565b60008060408385031215611ccf57611cce611a0a565b5b6000611cdd85828601611c20565b9250506020611cee85828601611ca3565b9150509250929050565b600080600060608486031215611d1157611d10611a0a565b5b6000611d1f86828701611aeb565b9350506020611d3086828701611ca3565b9250506040611d4186828701611aeb565b9150509250925092565b6000602082019050611d606000830184611b2d565b92915050565b60008060408385031215611d7d57611d7c611a0a565b5b6000611d8b85828601611ca3565b9250506020611d9c85828601611aeb565b9150509250929050565b600082825260208201905092915050565b7f416363657373436f6e74726f6c3a2063616e206f6e6c792072656e6f756e636560008201527f20726f6c657320666f722073656c660000000000000000000000000000000000602082015250565b6000611e13602f83611da6565b9150611e1e82611db7565b604082019050919050565b60006020820190508181036000830152611e4281611e06565b9050919050565b600081519050611e5881611c8c565b92915050565b600060208284031215611e7457611e73611a0a565b5b6000611e8284828501611e49565b91505092915050565b7f4974656d20697320616c726561647920757020666f722073616c652100000000600082015250565b6000611ec1601c83611da6565b9150611ecc82611e8b565b602082019050919050565b60006020820190508181036000830152611ef081611eb4565b9050919050565b7f4e487b7100000000000000000000000000000000000000000000000000000000600052603260045260246000fd5b7f4e487b7100000000000000000000000000000000000000000000000000000000600052600160045260246000fd5b6000608082019050611f6a6000830187611b2d565b611f776020830186611b2d565b611f846040830185611b6e565b611f916060830184611b2d565b95945050505050565b7f436f756c64206e6f742066696e64206974656d00000000000000000000000000600082015250565b6000611fd0601383611da6565b9150611fdb82611f9a565b602082019050919050565b60006020820190508181036000830152611fff81611fc3565b9050919050565b7f4974656d20697320616c726561647920736f6c64210000000000000000000000600082015250565b600061203c601583611da6565b915061204782612006565b602082019050919050565b6000602082019050818103600083015261206b8161202f565b9050919050565b7f4e6f7420656e6f7567682066756e64732073656e740000000000000000000000600082015250565b60006120a8601583611da6565b91506120b382612072565b602082019050919050565b600060208201905081810360008301526120d78161209b565b9050919050565b7f53656c6c65722063616e277420627579206120746f6b656e206865206c69737460008201527f6564000000000000000000000000000000000000000000000000000000000000602082015250565b600061213a602283611da6565b9150612145826120de565b604082019050919050565b600060208201905081810360008301526121698161212d565b9050919050565b6000819050919050565b600061219561219061218b84611b3c565b612170565b611b3c565b9050919050565b60006121a78261217a565b9050919050565b60006121b98261219c565b9050919050565b6121c9816121ae565b82525050565b60006060820190506121e460008301866121c0565b6121f16020830185611b6e565b6121fe6040830184611b2d565b949350505050565b7f4e487b7100000000000000000000000000000000000000000000000000000000600052601260045260246000fd5b7f4e487b7100000000000000000000000000000000000000000000000000000000600052601160045260246000fd5b600061226f82611aca565b915061227a83611aca565b92508261228a57612289612206565b5b828204905092915050565b60006122a082611aca565b91506122ab83611aca565b9250817fffffffffffffffffffffffffffffffffffffffffffffffffffffffffffffffff04831182151516156122e4576122e3612235565b5b828202905092915050565b60006122fa82611aca565b915061230583611aca565b92508282101561231857612317612235565b5b828203905092915050565b60006060820190506123386000830186611b2d565b6123456020830185611b6e565b6123526040830184611b2d565b949350505050565b600081905092915050565b7f416363657373436f6e74726f6c3a206163636f756e7420000000000000000000600082015250565b600061239b60178361235a565b91506123a682612365565b601782019050919050565b600081519050919050565b60005b838110156123da5780820151818401526020810190506123bf565b838111156123e9576000848401525b50505050565b60006123fa826123b1565b612404818561235a565b93506124148185602086016123bc565b80840191505092915050565b7f206973206d697373696e6720726f6c6520000000000000000000000000000000600082015250565b600061245660118361235a565b915061246182612420565b601182019050919050565b60006124778261238e565b915061248382856123ef565b915061248e82612449565b915061249a82846123ef565b91508190509392505050565b6000601f19601f8301169050919050565b60006124c2826123b1565b6124cc8185611da6565b93506124dc8185602086016123bc565b6124e5816124a6565b840191505092915050565b6000602082019050818103600083015261250a81846124b7565b905092915050565b7f5061757361626c653a206e6f7420706175736564000000000000000000000000600082015250565b6000612548601483611da6565b915061255382612512565b602082019050919050565b600060208201905081810360008301526125778161253b565b9050919050565b60006020820190506125936000830184611b6e565b92915050565b7f5061757361626c653a2070617573656400000000000000000000000000000000600082015250565b60006125cf601083611da6565b91506125da82612599565b602082019050919050565b600060208201905081810360008301526125fe816125c2565b9050919050565b7f45524332393831526f79616c746965733a20546f6f2068696768000000000000600082015250565b600061263b601a83611da6565b915061264682612605565b602082019050919050565b6000602082019050818103600083015261266a8161262e565b9050919050565b600061267c82611aca565b915061268783611aca565b9250827fffffffffffffffffffffffffffffffffffffffffffffffffffffffffffffffff038211156126bc576126bb612235565b5b828201905092915050565b7f4e487b7100000000000000000000000000000000000000000000000000000000600052604160045260246000fd5b600061270182611aca565b91506000820361271457612713612235565b5b600182039050919050565b7f537472696e67733a20686578206c656e67746820696e73756666696369656e74600082015250565b6000612755602083611da6565b91506127608261271f565b602082019050919050565b6000602082019050818103600083015261278481612748565b905091905056fea2646970667358221220d2f6e927175387cb30fe636de68c60f11dc9c207c91a3c201407c51691ee292e64736f6c634300080f0033",
  "immutableReferences": {},
  "source": "// SPDX-License-Identifier: CPL\npragma solidity 0.8.15;\n\nimport \"@openzeppelin/contracts/token/ERC721/IERC721.sol\";\nimport \"@openzeppelin/contracts/security/Pausable.sol\";\nimport \"@openzeppelin/contracts/access/AccessControl.sol\";\nimport \"@openzeppelin/contracts/utils/Counters.sol\";\n\n/// @title Smart Contract to Sell/Buy NFTs in the BNM Ecosystem.\n/// @author Lukas Knutti <hello@rootine.ch>\n/// @notice To mint/buy/sell articles as NFTs please head to blocknewsmedia.us\n/// @custom:security-contact hello@rootine.ch\ncontract BlockNewsMediaMarketPlace is Pausable, AccessControl {\n    using Counters for Counters.Counter;\n\n    struct AuctionItem {\n        uint256 id;\n        address tokenAddress;\n        uint256 tokenId;\n        address payable seller;\n        uint256 askingPrice;\n        bool isSold;\n    }\n\n    struct RoyaltyInfo {\n        address recipient;\n        uint24 amount;\n    }\n\n    AuctionItem[] public itemsForSale;\n\n    ///@dev address to receive all royalty payments\n    address payable private constant ROYALTIES_RECEIVER =\n        payable(0xdD870fA1b7C4700F2BD7f44238821C26f7392148);\n\n    mapping(address => mapping(uint256 => bool)) activeItems;\n\n    event ItemAdded(\n        uint256 id,\n        uint256 tokenId,\n        address tokenAddress,\n        uint256 askingPrice\n    );\n    \n    event ItemSold(uint256 id, address buyer, uint256 askingPrice);\n\n    Counters.Counter private _itemsSold;\n    RoyaltyInfo private _royalties;\n\n    bytes32 public constant PAUSER_ROLE = keccak256(\"PAUSER_ROLE\");\n\n    constructor() {\n        ///@dev grant default roles to contract owner\n        _grantRole(DEFAULT_ADMIN_ROLE, msg.sender);\n        _grantRole(PAUSER_ROLE, msg.sender);\n\n        ///@dev set royalties to 1.75%\n        _setRoyalties(ROYALTIES_RECEIVER, 175);\n    }\n\n    function pause() public onlyRole(PAUSER_ROLE) {\n        _pause();\n    }\n\n    function unpause() public onlyRole(PAUSER_ROLE) {\n        _unpause();\n    }\n\n    modifier OnlyItemOwner(address tokenAddress, uint256 tokenId) {\n        IERC721 tokenContract = IERC721(tokenAddress);\n        require(tokenContract.ownerOf(tokenId) == msg.sender);\n        _;\n    }\n\n    modifier HasTransferApproval(address tokenAddress, uint256 tokenId) {\n        IERC721 tokenContract = IERC721(tokenAddress);\n        require(tokenContract.getApproved(tokenId) == address(this));\n        _;\n    }\n\n    modifier ItemExists(uint256 id) {\n        require(itemsForSale[id].id == id, \"Could not find item\");\n        _;\n    }\n\n    modifier IsForSale(uint256 id) {\n        require(itemsForSale[id].isSold == false, \"Item is already sold!\");\n        _;\n    }\n\n    /// @dev Lists an NFT on the marketplace with a fixed price\n    /// @param tokenId id of the token\n    /// @param tokenAddress contract address of the NFT contract\n    /// @param askingPrice price in wei to buy this nft\n    function addItemToMarket(\n        uint256 tokenId,\n        address tokenAddress,\n        uint256 askingPrice\n    )\n        external\n        OnlyItemOwner(tokenAddress, tokenId)\n        HasTransferApproval(tokenAddress, tokenId)\n        returns (uint256)\n    {\n        require(\n            activeItems[tokenAddress][tokenId] == false,\n            \"Item is already up for sale!\"\n        );\n        uint256 newItemId = itemsForSale.length;\n        itemsForSale.push(\n            AuctionItem(\n                newItemId,\n                tokenAddress,\n                tokenId,\n                payable(msg.sender),\n                askingPrice,\n                false\n            )\n        );\n        activeItems[tokenAddress][tokenId] = true;\n\n        assert(itemsForSale[newItemId].id == newItemId);\n        emit ItemAdded(newItemId, tokenId, tokenAddress, askingPrice);\n        return newItemId;\n    }\n\n    /// @dev Buys an NFT from the marketplace\n    /// @param id id returned by addItemToMarket\n    function buyItem(uint256 id)\n        external\n        payable\n        ItemExists(id)\n        IsForSale(id)\n        HasTransferApproval(\n            itemsForSale[id].tokenAddress,\n            itemsForSale[id].tokenId\n        )\n    {\n        require(\n            msg.value >= itemsForSale[id].askingPrice,\n            \"Not enough funds sent\"\n        );\n        require(\n            msg.sender != itemsForSale[id].seller,\n            \"Seller can't buy a token he listed\"\n        );\n\n        itemsForSale[id].isSold = true;\n        activeItems[itemsForSale[id].tokenAddress][\n            itemsForSale[id].tokenId\n        ] = false;\n        IERC721(itemsForSale[id].tokenAddress).safeTransferFrom(\n            itemsForSale[id].seller,\n            msg.sender,\n            itemsForSale[id].tokenId\n        );\n        uint256 amountWithoutRoyalties = msg.value -\n            ((msg.value / 10000) * _royalties.amount);\n        uint256 royaltiesAmount = (msg.value / 10000) * _royalties.amount;\n        itemsForSale[id].seller.transfer(amountWithoutRoyalties);\n\n        // transfer royalties to ROYALTIES_RECEIVER\n        ROYALTIES_RECEIVER.transfer(royaltiesAmount);\n\n        _itemsSold.increment();\n\n        emit ItemSold(id, msg.sender, itemsForSale[id].askingPrice);\n    }\n\n    /// @notice Allows to set the royalties on the contract\n    /// @param recipient - the royalties recipient\n    /// @param value - royalties value (between 0 and 10000)\n    function setRoyalties(address recipient, uint256 value)\n        public\n        onlyRole(DEFAULT_ADMIN_ROLE)\n    {\n        _setRoyalties(recipient, value);\n    }\n\n    /// @dev gets the amount of token sold\n    function itemsSold() external view returns (uint256) {\n        return _itemsSold.current();\n    }\n\n    // Internal Functions\n\n    /// @dev Sets token royalties\n    /// @param recipient recipient of the royalties\n    /// @param value percentage (using 2 decimals - 10000 = 100, 0 = 0)\n    function _setRoyalties(address recipient, uint256 value) internal {\n        require(value <= 10000, \"ERC2981Royalties: Too high\");\n        _royalties = RoyaltyInfo(recipient, uint24(value));\n    }\n}\n",
  "sourcePath": "/Users/bryce_palichuk/Documents/GitHub/BNM/contracts/contracts/BlockNewsMediaMarketPlace.sol",
  "compiler": {
    "name": "solc",
    "version": "0.8.15+commit.e14f2714.Emscripten.clang"
  },
  "schemaVersion": "3.4.7",
  "updatedAt": "2022-06-28T00:00:32.052Z",
  "devdoc": {
    "author": "Lukas Knutti <hello@rootine.ch>",
    "custom:security-contact": "hello@rootine.ch",
    "kind": "dev",
    "methods": {
      "addItemToMarket(uint256,address,uint256)": {
        "details": "Lists an NFT on the marketplace with a fixed price",
        "params": {
          "askingPrice": "price in wei to buy this nft",
          "tokenAddress": "contract address of the NFT contract",
          "tokenId": "id of the token"
        }
      },
      "buyItem(uint256)": {
        "details": "Buys an NFT from the marketplace",
        "params": {
          "id": "id returned by addItemToMarket"
        }
      },
      "getRoleAdmin(bytes32)": {
        "details": "Returns the admin role that controls `role`. See {grantRole} and {revokeRole}. To change a role's admin, use {_setRoleAdmin}."
      },
      "grantRole(bytes32,address)": {
        "details": "Grants `role` to `account`. If `account` had not been already granted `role`, emits a {RoleGranted} event. Requirements: - the caller must have ``role``'s admin role."
      },
      "hasRole(bytes32,address)": {
        "details": "Returns `true` if `account` has been granted `role`."
      },
      "itemsSold()": {
        "details": "gets the amount of token sold"
      },
      "paused()": {
        "details": "Returns true if the contract is paused, and false otherwise."
      },
      "renounceRole(bytes32,address)": {
        "details": "Revokes `role` from the calling account. Roles are often managed via {grantRole} and {revokeRole}: this function's purpose is to provide a mechanism for accounts to lose their privileges if they are compromised (such as when a trusted device is misplaced). If the calling account had been revoked `role`, emits a {RoleRevoked} event. Requirements: - the caller must be `account`."
      },
      "revokeRole(bytes32,address)": {
        "details": "Revokes `role` from `account`. If `account` had been granted `role`, emits a {RoleRevoked} event. Requirements: - the caller must have ``role``'s admin role."
      },
      "setRoyalties(address,uint256)": {
        "params": {
          "recipient": "- the royalties recipient",
          "value": "- royalties value (between 0 and 10000)"
        }
      },
      "supportsInterface(bytes4)": {
        "details": "See {IERC165-supportsInterface}."
      }
    },
    "stateVariables": {
      "ROYALTIES_RECEIVER": {
        "details": "address to receive all royalty payments"
      }
    },
    "title": "Smart Contract to Sell/Buy NFTs in the BNM Ecosystem.",
    "version": 1
  },
  "userdoc": {
    "kind": "user",
    "methods": {
      "setRoyalties(address,uint256)": {
        "notice": "Allows to set the royalties on the contract"
      }
    },
    "notice": "To mint/buy/sell articles as NFTs please head to blocknewsmedia.us",
    "version": 1
  }
}