{
  "contractName": "BlockNewsMediaTokenV2",
  "abi": [
    {
      "inputs": [],
      "stateMutability": "nonpayable",
      "type": "constructor"
    },
    {
      "anonymous": false,
      "inputs": [
        {
          "indexed": true,
          "internalType": "address",
          "name": "owner",
          "type": "address"
        },
        {
          "indexed": true,
          "internalType": "address",
          "name": "approved",
          "type": "address"
        },
        {
          "indexed": true,
          "internalType": "uint256",
          "name": "tokenId",
          "type": "uint256"
        }
      ],
      "name": "Approval",
      "type": "event"
    },
    {
      "anonymous": false,
      "inputs": [
        {
          "indexed": true,
          "internalType": "address",
          "name": "owner",
          "type": "address"
        },
        {
          "indexed": true,
          "internalType": "address",
          "name": "operator",
          "type": "address"
        },
        {
          "indexed": false,
          "internalType": "bool",
          "name": "approved",
          "type": "bool"
        }
      ],
      "name": "ApprovalForAll",
      "type": "event"
    },
    {
      "anonymous": false,
      "inputs": [
        {
          "indexed": true,
          "internalType": "address",
          "name": "previousOwner",
          "type": "address"
        },
        {
          "indexed": true,
          "internalType": "address",
          "name": "newOwner",
          "type": "address"
        }
      ],
      "name": "OwnershipTransferred",
      "type": "event"
    },
    {
      "anonymous": false,
      "inputs": [
        {
          "indexed": false,
          "internalType": "address",
          "name": "account",
          "type": "address"
        }
      ],
      "name": "Paused",
      "type": "event"
    },
    {
      "anonymous": false,
      "inputs": [
        {
          "indexed": true,
          "internalType": "bytes32",
          "name": "role",
          "type": "bytes32"
        },
        {
          "indexed": true,
          "internalType": "bytes32",
          "name": "previousAdminRole",
          "type": "bytes32"
        },
        {
          "indexed": true,
          "internalType": "bytes32",
          "name": "newAdminRole",
          "type": "bytes32"
        }
      ],
      "name": "RoleAdminChanged",
      "type": "event"
    },
    {
      "anonymous": false,
      "inputs": [
        {
          "indexed": true,
          "internalType": "bytes32",
          "name": "role",
          "type": "bytes32"
        },
        {
          "indexed": true,
          "internalType": "address",
          "name": "account",
          "type": "address"
        },
        {
          "indexed": true,
          "internalType": "address",
          "name": "sender",
          "type": "address"
        }
      ],
      "name": "RoleGranted",
      "type": "event"
    },
    {
      "anonymous": false,
      "inputs": [
        {
          "indexed": true,
          "internalType": "bytes32",
          "name": "role",
          "type": "bytes32"
        },
        {
          "indexed": true,
          "internalType": "address",
          "name": "account",
          "type": "address"
        },
        {
          "indexed": true,
          "internalType": "address",
          "name": "sender",
          "type": "address"
        }
      ],
      "name": "RoleRevoked",
      "type": "event"
    },
    {
      "anonymous": false,
      "inputs": [
        {
          "indexed": false,
          "internalType": "address",
          "name": "_from",
          "type": "address"
        },
        {
          "indexed": false,
          "internalType": "string",
          "name": "_uri",
          "type": "string"
        }
      ],
      "name": "TokenMinted",
      "type": "event"
    },
    {
      "anonymous": false,
      "inputs": [
        {
          "indexed": true,
          "internalType": "address",
          "name": "from",
          "type": "address"
        },
        {
          "indexed": true,
          "internalType": "address",
          "name": "to",
          "type": "address"
        },
        {
          "indexed": true,
          "internalType": "uint256",
          "name": "tokenId",
          "type": "uint256"
        }
      ],
      "name": "Transfer",
      "type": "event"
    },
    {
      "anonymous": false,
      "inputs": [
        {
          "indexed": false,
          "internalType": "address",
          "name": "account",
          "type": "address"
        }
      ],
      "name": "Unpaused",
      "type": "event"
    },
    {
      "inputs": [],
      "name": "DEFAULT_ADMIN_ROLE",
      "outputs": [
        {
          "internalType": "bytes32",
          "name": "",
          "type": "bytes32"
        }
      ],
      "stateMutability": "view",
      "type": "function"
    },
    {
      "inputs": [],
      "name": "PAUSER_ROLE",
      "outputs": [
        {
          "internalType": "bytes32",
          "name": "",
          "type": "bytes32"
        }
      ],
      "stateMutability": "view",
      "type": "function"
    },
    {
      "inputs": [
        {
          "internalType": "address",
          "name": "to",
          "type": "address"
        },
        {
          "internalType": "uint256",
          "name": "tokenId",
          "type": "uint256"
        }
      ],
      "name": "approve",
      "outputs": [],
      "stateMutability": "nonpayable",
      "type": "function"
    },
    {
      "inputs": [
        {
          "internalType": "address",
          "name": "owner",
          "type": "address"
        }
      ],
      "name": "balanceOf",
      "outputs": [
        {
          "internalType": "uint256",
          "name": "",
          "type": "uint256"
        }
      ],
      "stateMutability": "view",
      "type": "function"
    },
    {
      "inputs": [
        {
          "internalType": "uint256",
          "name": "tokenId",
          "type": "uint256"
        }
      ],
      "name": "burn",
      "outputs": [],
      "stateMutability": "nonpayable",
      "type": "function"
    },
    {
      "inputs": [
        {
          "internalType": "uint256",
          "name": "tokenId",
          "type": "uint256"
        }
      ],
      "name": "getApproved",
      "outputs": [
        {
          "internalType": "address",
          "name": "",
          "type": "address"
        }
      ],
      "stateMutability": "view",
      "type": "function"
    },
    {
      "inputs": [
        {
          "internalType": "bytes32",
          "name": "role",
          "type": "bytes32"
        }
      ],
      "name": "getRoleAdmin",
      "outputs": [
        {
          "internalType": "bytes32",
          "name": "",
          "type": "bytes32"
        }
      ],
      "stateMutability": "view",
      "type": "function"
    },
    {
      "inputs": [
        {
          "internalType": "bytes32",
          "name": "role",
          "type": "bytes32"
        },
        {
          "internalType": "address",
          "name": "account",
          "type": "address"
        }
      ],
      "name": "grantRole",
      "outputs": [],
      "stateMutability": "nonpayable",
      "type": "function"
    },
    {
      "inputs": [
        {
          "internalType": "bytes32",
          "name": "role",
          "type": "bytes32"
        },
        {
          "internalType": "address",
          "name": "account",
          "type": "address"
        }
      ],
      "name": "hasRole",
      "outputs": [
        {
          "internalType": "bool",
          "name": "",
          "type": "bool"
        }
      ],
      "stateMutability": "view",
      "type": "function"
    },
    {
      "inputs": [
        {
          "internalType": "address",
          "name": "owner",
          "type": "address"
        },
        {
          "internalType": "address",
          "name": "operator",
          "type": "address"
        }
      ],
      "name": "isApprovedForAll",
      "outputs": [
        {
          "internalType": "bool",
          "name": "",
          "type": "bool"
        }
      ],
      "stateMutability": "view",
      "type": "function"
    },
    {
      "inputs": [
        {
          "internalType": "uint256",
          "name": "",
          "type": "uint256"
        }
      ],
      "name": "items",
      "outputs": [
        {
          "internalType": "uint256",
          "name": "id",
          "type": "uint256"
        },
        {
          "internalType": "address",
          "name": "creator",
          "type": "address"
        },
        {
          "internalType": "string",
          "name": "uri",
          "type": "string"
        }
      ],
      "stateMutability": "view",
      "type": "function"
    },
    {
      "inputs": [],
      "name": "name",
      "outputs": [
        {
          "internalType": "string",
          "name": "",
          "type": "string"
        }
      ],
      "stateMutability": "view",
      "type": "function"
    },
    {
      "inputs": [],
      "name": "owner",
      "outputs": [
        {
          "internalType": "address",
          "name": "",
          "type": "address"
        }
      ],
      "stateMutability": "view",
      "type": "function"
    },
    {
      "inputs": [
        {
          "internalType": "uint256",
          "name": "tokenId",
          "type": "uint256"
        }
      ],
      "name": "ownerOf",
      "outputs": [
        {
          "internalType": "address",
          "name": "",
          "type": "address"
        }
      ],
      "stateMutability": "view",
      "type": "function"
    },
    {
      "inputs": [],
      "name": "paused",
      "outputs": [
        {
          "internalType": "bool",
          "name": "",
          "type": "bool"
        }
      ],
      "stateMutability": "view",
      "type": "function"
    },
    {
      "inputs": [],
      "name": "renounceOwnership",
      "outputs": [],
      "stateMutability": "nonpayable",
      "type": "function"
    },
    {
      "inputs": [
        {
          "internalType": "bytes32",
          "name": "role",
          "type": "bytes32"
        },
        {
          "internalType": "address",
          "name": "account",
          "type": "address"
        }
      ],
      "name": "renounceRole",
      "outputs": [],
      "stateMutability": "nonpayable",
      "type": "function"
    },
    {
      "inputs": [
        {
          "internalType": "bytes32",
          "name": "role",
          "type": "bytes32"
        },
        {
          "internalType": "address",
          "name": "account",
          "type": "address"
        }
      ],
      "name": "revokeRole",
      "outputs": [],
      "stateMutability": "nonpayable",
      "type": "function"
    },
    {
      "inputs": [
        {
          "internalType": "address",
          "name": "from",
          "type": "address"
        },
        {
          "internalType": "address",
          "name": "to",
          "type": "address"
        },
        {
          "internalType": "uint256",
          "name": "tokenId",
          "type": "uint256"
        }
      ],
      "name": "safeTransferFrom",
      "outputs": [],
      "stateMutability": "nonpayable",
      "type": "function"
    },
    {
      "inputs": [
        {
          "internalType": "address",
          "name": "from",
          "type": "address"
        },
        {
          "internalType": "address",
          "name": "to",
          "type": "address"
        },
        {
          "internalType": "uint256",
          "name": "tokenId",
          "type": "uint256"
        },
        {
          "internalType": "bytes",
          "name": "_data",
          "type": "bytes"
        }
      ],
      "name": "safeTransferFrom",
      "outputs": [],
      "stateMutability": "nonpayable",
      "type": "function"
    },
    {
      "inputs": [
        {
          "internalType": "address",
          "name": "operator",
          "type": "address"
        },
        {
          "internalType": "bool",
          "name": "approved",
          "type": "bool"
        }
      ],
      "name": "setApprovalForAll",
      "outputs": [],
      "stateMutability": "nonpayable",
      "type": "function"
    },
    {
      "inputs": [],
      "name": "symbol",
      "outputs": [
        {
          "internalType": "string",
          "name": "",
          "type": "string"
        }
      ],
      "stateMutability": "view",
      "type": "function"
    },
    {
      "inputs": [
        {
          "internalType": "address",
          "name": "from",
          "type": "address"
        },
        {
          "internalType": "address",
          "name": "to",
          "type": "address"
        },
        {
          "internalType": "uint256",
          "name": "tokenId",
          "type": "uint256"
        }
      ],
      "name": "transferFrom",
      "outputs": [],
      "stateMutability": "nonpayable",
      "type": "function"
    },
    {
      "inputs": [
        {
          "internalType": "address",
          "name": "newOwner",
          "type": "address"
        }
      ],
      "name": "transferOwnership",
      "outputs": [],
      "stateMutability": "nonpayable",
      "type": "function"
    },
    {
      "inputs": [],
      "name": "pause",
      "outputs": [],
      "stateMutability": "nonpayable",
      "type": "function"
    },
    {
      "inputs": [],
      "name": "unpause",
      "outputs": [],
      "stateMutability": "nonpayable",
      "type": "function"
    },
    {
      "inputs": [
        {
          "internalType": "string",
          "name": "uriOfToken",
          "type": "string"
        }
      ],
      "name": "createItem",
      "outputs": [
        {
          "internalType": "uint256",
          "name": "",
          "type": "uint256"
        }
      ],
      "stateMutability": "payable",
      "type": "function"
    },
    {
      "inputs": [
        {
          "internalType": "uint256",
          "name": "tokenId",
          "type": "uint256"
        }
      ],
      "name": "destoryItem",
      "outputs": [
        {
          "internalType": "bool",
          "name": "",
          "type": "bool"
        }
      ],
      "stateMutability": "nonpayable",
      "type": "function"
    },
    {
      "inputs": [
        {
          "internalType": "uint256",
          "name": "",
          "type": "uint256"
        },
        {
          "internalType": "uint256",
          "name": "salesPrice",
          "type": "uint256"
        }
      ],
      "name": "royaltyInfo",
      "outputs": [
        {
          "internalType": "address",
          "name": "receiver",
          "type": "address"
        },
        {
          "internalType": "uint256",
          "name": "royaltyAmount",
          "type": "uint256"
        }
      ],
      "stateMutability": "view",
      "type": "function"
    },
    {
      "inputs": [
        {
          "internalType": "address",
          "name": "recipient",
          "type": "address"
        },
        {
          "internalType": "uint256",
          "name": "value",
          "type": "uint256"
        }
      ],
      "name": "setRoyalties",
      "outputs": [],
      "stateMutability": "nonpayable",
      "type": "function"
    },
    {
      "inputs": [
        {
          "internalType": "uint256",
          "name": "tokenId",
          "type": "uint256"
        }
      ],
      "name": "tokenURI",
      "outputs": [
        {
          "internalType": "string",
          "name": "",
          "type": "string"
        }
      ],
      "stateMutability": "view",
      "type": "function"
    },
    {
      "inputs": [
        {
          "internalType": "bytes4",
          "name": "interfaceId",
          "type": "bytes4"
        }
      ],
      "name": "supportsInterface",
      "outputs": [
        {
          "internalType": "bool",
          "name": "",
          "type": "bool"
        }
      ],
      "stateMutability": "view",
      "type": "function"
    },
    {
      "inputs": [],
      "name": "withdraw",
      "outputs": [],
      "stateMutability": "payable",
      "type": "function"
    }
  ],
  "bytecode": "0x60806040523480156200001157600080fd5b506040518060400160405280601081526020017f426c6f636b4e6577734d656469615632000000000000000000000000000000008152506040518060400160405280600481526020017f424e4d320000000000000000000000000000000000000000000000000000000081525081600090816200008f9190620006e5565b508060019081620000a19190620006e5565b5050506000600760006101000a81548160ff021916908315150217905550620000df620000d36200015360201b60201c565b6200015b60201b60201c565b620000f46000801b336200022160201b60201c565b620001267f65d7a28e3265b37a6474929f336521b332c1681b933f6cb9f3376673440d862a336200022160201b60201c565b6200014d7345b58919a70bfda15d4bb0a8df752a671a318d7e60af6200031360201b60201c565b6200084f565b600033905090565b6000600960009054906101000a900473ffffffffffffffffffffffffffffffffffffffff16905081600960006101000a81548173ffffffffffffffffffffffffffffffffffffffff021916908373ffffffffffffffffffffffffffffffffffffffff1602179055508173ffffffffffffffffffffffffffffffffffffffff168173ffffffffffffffffffffffffffffffffffffffff167f8be0079c531659141344cd1fd0a4f28419497f9722a3daafe3b4186f6b6457e060405160405180910390a35050565b6200023382826200040060201b60201c565b6200030f5760016008600084815260200190815260200160002060000160008373ffffffffffffffffffffffffffffffffffffffff1673ffffffffffffffffffffffffffffffffffffffff16815260200190815260200160002060006101000a81548160ff021916908315150217905550620002b46200015360201b60201c565b73ffffffffffffffffffffffffffffffffffffffff168173ffffffffffffffffffffffffffffffffffffffff16837f2f8788117e7eff1d82e926ec794901d17c78024a50270940304540a733656f0d60405160405180910390a45b5050565b6127108111156200035b576040517f08c379a000000000000000000000000000000000000000000000000000000000815260040162000352906200082d565b60405180910390fd5b60405180604001604052808373ffffffffffffffffffffffffffffffffffffffff1681526020018262ffffff16815250600c60008201518160000160006101000a81548173ffffffffffffffffffffffffffffffffffffffff021916908373ffffffffffffffffffffffffffffffffffffffff16021790555060208201518160000160146101000a81548162ffffff021916908362ffffff1602179055509050505050565b60006008600084815260200190815260200160002060000160008373ffffffffffffffffffffffffffffffffffffffff1673ffffffffffffffffffffffffffffffffffffffff16815260200190815260200160002060009054906101000a900460ff16905092915050565b600081519050919050565b7f4e487b7100000000000000000000000000000000000000000000000000000000600052604160045260246000fd5b7f4e487b7100000000000000000000000000000000000000000000000000000000600052602260045260246000fd5b60006002820490506001821680620004ed57607f821691505b602082108103620005035762000502620004a5565b5b50919050565b60008190508160005260206000209050919050565b60006020601f8301049050919050565b600082821b905092915050565b6000600883026200056d7fffffffffffffffffffffffffffffffffffffffffffffffffffffffffffffffff826200052e565b6200057986836200052e565b95508019841693508086168417925050509392505050565b6000819050919050565b6000819050919050565b6000620005c6620005c0620005ba8462000591565b6200059b565b62000591565b9050919050565b6000819050919050565b620005e283620005a5565b620005fa620005f182620005cd565b8484546200053b565b825550505050565b600090565b6200061162000602565b6200061e818484620005d7565b505050565b5b8181101562000646576200063a60008262000607565b60018101905062000624565b5050565b601f82111562000695576200065f8162000509565b6200066a846200051e565b810160208510156200067a578190505b6200069262000689856200051e565b83018262000623565b50505b505050565b600082821c905092915050565b6000620006ba600019846008026200069a565b1980831691505092915050565b6000620006d58383620006a7565b9150826002028217905092915050565b620006f0826200046b565b67ffffffffffffffff8111156200070c576200070b62000476565b5b620007188254620004d4565b620007258282856200064a565b600060209050601f8311600181146200075d576000841562000748578287015190505b620007548582620006c7565b865550620007c4565b601f1984166200076d8662000509565b60005b82811015620007975784890151825560018201915060208501945060208101905062000770565b86831015620007b75784890151620007b3601f891682620006a7565b8355505b6001600288020188555050505b505050505050565b600082825260208201905092915050565b7f45524332393831526f79616c746965733a20546f6f2068696768000000000000600082015250565b600062000815601a83620007cc565b91506200082282620007dd565b602082019050919050565b60006020820190508181036000830152620008488162000806565b9050919050565b614fe1806200085f6000396000f3fe6080604052600436106101ee5760003560e01c806370a082311161010d578063a22cb465116100a0578063d547741f1161006f578063d547741f146106e2578063e63ab1e91461070b578063e985e9c514610736578063e9f3d5a714610773578063f2fde38b146107b0576101ee565b8063a22cb46514610614578063b88d4fde1461063d578063bfb231d214610666578063c87b56dd146106a5576101ee565b80638da5cb5b116100dc5780638da5cb5b1461055657806391d148541461058157806395d89b41146105be578063a217fddf146105e9576101ee565b806370a08231146104c2578063715018a6146104ff5780638456cb59146105165780638c7ea24b1461052d576101ee565b806336568abe1161018557806342842e0e1161015457806342842e0e1461040857806342966c68146104315780635c975abb1461045a5780636352211e14610485576101ee565b806336568abe1461038e5780633ccfd60b146103b75780633d54eebb146103c15780633f4ba83a146103f1576101ee565b806323b872dd116101c157806323b872dd146102c1578063248a9ca3146102ea5780632a55205a146103275780632f2ff15d14610365576101ee565b806301ffc9a7146101f357806306fdde0314610230578063081812fc1461025b578063095ea7b314610298575b600080fd5b3480156101ff57600080fd5b5061021a60048036038101906102159190613239565b6107d9565b6040516102279190613281565b60405180910390f35b34801561023c57600080fd5b50610245610853565b6040516102529190613335565b60405180910390f35b34801561026757600080fd5b50610282600480360381019061027d919061338d565b6108e5565b60405161028f91906133fb565b60405180910390f35b3480156102a457600080fd5b506102bf60048036038101906102ba9190613442565b61096a565b005b3480156102cd57600080fd5b506102e860048036038101906102e39190613482565b610a81565b005b3480156102f657600080fd5b50610311600480360381019061030c919061350b565b610ae1565b60405161031e9190613547565b60405180910390f35b34801561033357600080fd5b5061034e60048036038101906103499190613562565b610b01565b60405161035c9291906135b1565b60405180910390f35b34801561037157600080fd5b5061038c600480360381019061038791906135da565b610bc1565b005b34801561039a57600080fd5b506103b560048036038101906103b091906135da565b610be2565b005b6103bf610c65565b005b6103db60048036038101906103d6919061374f565b610d5a565b6040516103e89190613798565b60405180910390f35b3480156103fd57600080fd5b50610406610f4e565b005b34801561041457600080fd5b5061042f600480360381019061042a9190613482565b610f83565b005b34801561043d57600080fd5b506104586004803603810190610453919061338d565b610fa3565b005b34801561046657600080fd5b5061046f610fff565b60405161047c9190613281565b60405180910390f35b34801561049157600080fd5b506104ac60048036038101906104a7919061338d565b611016565b6040516104b991906133fb565b60405180910390f35b3480156104ce57600080fd5b506104e960048036038101906104e491906137b3565b6110c7565b6040516104f69190613798565b60405180910390f35b34801561050b57600080fd5b5061051461117e565b005b34801561052257600080fd5b5061052b611206565b005b34801561053957600080fd5b50610554600480360381019061054f9190613442565b61123b565b005b34801561056257600080fd5b5061056b611257565b60405161057891906133fb565b60405180910390f35b34801561058d57600080fd5b506105a860048036038101906105a391906135da565b611281565b6040516105b59190613281565b60405180910390f35b3480156105ca57600080fd5b506105d36112ec565b6040516105e09190613335565b60405180910390f35b3480156105f557600080fd5b506105fe61137e565b60405161060b9190613547565b60405180910390f35b34801561062057600080fd5b5061063b6004803603810190610636919061380c565b611385565b005b34801561064957600080fd5b50610664600480360381019061065f91906138ed565b61139b565b005b34801561067257600080fd5b5061068d6004803603810190610688919061338d565b6113fd565b60405161069c93929190613970565b60405180910390f35b3480156106b157600080fd5b506106cc60048036038101906106c7919061338d565b6114cf565b6040516106d99190613335565b60405180910390f35b3480156106ee57600080fd5b50610709600480360381019061070491906135da565b611529565b005b34801561071757600080fd5b5061072061154a565b60405161072d9190613547565b60405180910390f35b34801561074257600080fd5b5061075d600480360381019061075891906139ae565b61156e565b60405161076a9190613281565b60405180910390f35b34801561077f57600080fd5b5061079a6004803603810190610795919061338d565b611602565b6040516107a79190613281565b60405180910390f35b3480156107bc57600080fd5b506107d760048036038101906107d291906137b3565b6116fb565b005b60007f2a55205a000000000000000000000000000000000000000000000000000000007bffffffffffffffffffffffffffffffffffffffffffffffffffffffff1916827bffffffffffffffffffffffffffffffffffffffffffffffffffffffff1916148061084c575061084b826117f2565b5b9050919050565b60606000805461086290613a1d565b80601f016020809104026020016040519081016040528092919081815260200182805461088e90613a1d565b80156108db5780601f106108b0576101008083540402835291602001916108db565b820191906000526020600020905b8154815290600101906020018083116108be57829003601f168201915b5050505050905090565b60006108f08261186c565b61092f576040517f08c379a000000000000000000000000000000000000000000000000000000000815260040161092690613ac0565b60405180910390fd5b6004600083815260200190815260200160002060009054906101000a900473ffffffffffffffffffffffffffffffffffffffff169050919050565b600061097582611016565b90508073ffffffffffffffffffffffffffffffffffffffff168373ffffffffffffffffffffffffffffffffffffffff16036109e5576040517f08c379a00000000000000000000000000000000000000000000000000000000081526004016109dc90613b52565b60405180910390fd5b8073ffffffffffffffffffffffffffffffffffffffff16610a046118d8565b73ffffffffffffffffffffffffffffffffffffffff161480610a335750610a3281610a2d6118d8565b61156e565b5b610a72576040517f08c379a0000000000000000000000000000000000000000000000000000000008152600401610a6990613be4565b60405180910390fd5b610a7c83836118e0565b505050565b610a92610a8c6118d8565b82611999565b610ad1576040517f08c379a0000000000000000000000000000000000000000000000000000000008152600401610ac890613c76565b60405180910390fd5b610adc838383611a77565b505050565b600060086000838152602001908152602001600020600101549050919050565b6000806000600c6040518060400160405290816000820160009054906101000a900473ffffffffffffffffffffffffffffffffffffffff1673ffffffffffffffffffffffffffffffffffffffff1673ffffffffffffffffffffffffffffffffffffffff1681526020016000820160149054906101000a900462ffffff1662ffffff1662ffffff1681525050905080600001519250612710816020015162ffffff1685610bad9190613cc5565b610bb79190613d4e565b9150509250929050565b610bca82610ae1565b610bd381611cdd565b610bdd8383611cf1565b505050565b610bea6118d8565b73ffffffffffffffffffffffffffffffffffffffff168173ffffffffffffffffffffffffffffffffffffffff1614610c57576040517f08c379a0000000000000000000000000000000000000000000000000000000008152600401610c4e90613df1565b60405180910390fd5b610c618282611dd2565b5050565b610c6d6118d8565b73ffffffffffffffffffffffffffffffffffffffff16610c8b611257565b73ffffffffffffffffffffffffffffffffffffffff1614610ce1576040517f08c379a0000000000000000000000000000000000000000000000000000000008152600401610cd890613e5d565b60405180910390fd5b60003373ffffffffffffffffffffffffffffffffffffffff1647604051610d0790613eae565b60006040518083038185875af1925050503d8060008114610d44576040519150601f19603f3d011682016040523d82523d6000602084013e610d49565b606091505b5050905080610d5757600080fd5b50565b6000610d64610fff565b15610da4576040517f08c379a0000000000000000000000000000000000000000000000000000000008152600401610d9b90613f0f565b60405180910390fd5b6000825111610de8576040517f08c379a0000000000000000000000000000000000000000000000000000000008152600401610ddf90613fa1565b60405180910390fd5b670de0b6b3a76400003414610e32576040517f08c379a0000000000000000000000000000000000000000000000000000000008152600401610e299061400d565b60405180910390fd5b610e3c600b611eb4565b6000610e48600b611eca565b9050610e543382611ed8565b60405180606001604052808281526020013373ffffffffffffffffffffffffffffffffffffffff16815260200184815250600a60008381526020019081526020016000206000820151816000015560208201518160010160006101000a81548173ffffffffffffffffffffffffffffffffffffffff021916908373ffffffffffffffffffffffffffffffffffffffff1602179055506040820151816002019081610efe91906141d9565b50905050610f0c8184611ef6565b7fb1fdd3f41eb81d0019cfe7749e6ad19e36fd3652c4ee0be5533ddbab487f1e023384604051610f3d9291906142ab565b60405180910390a180915050919050565b7f65d7a28e3265b37a6474929f336521b332c1681b933f6cb9f3376673440d862a610f7881611cdd565b610f80611f63565b50565b610f9e8383836040518060200160405280600081525061139b565b505050565b610fb4610fae6118d8565b82611999565b610ff3576040517f08c379a0000000000000000000000000000000000000000000000000000000008152600401610fea9061434d565b60405180910390fd5b610ffc81612005565b50565b6000600760009054906101000a900460ff16905090565b6000806002600084815260200190815260200160002060009054906101000a900473ffffffffffffffffffffffffffffffffffffffff169050600073ffffffffffffffffffffffffffffffffffffffff168173ffffffffffffffffffffffffffffffffffffffff16036110be576040517f08c379a00000000000000000000000000000000000000000000000000000000081526004016110b5906143df565b60405180910390fd5b80915050919050565b60008073ffffffffffffffffffffffffffffffffffffffff168273ffffffffffffffffffffffffffffffffffffffff1603611137576040517f08c379a000000000000000000000000000000000000000000000000000000000815260040161112e90614471565b60405180910390fd5b600360008373ffffffffffffffffffffffffffffffffffffffff1673ffffffffffffffffffffffffffffffffffffffff168152602001908152602001600020549050919050565b6111866118d8565b73ffffffffffffffffffffffffffffffffffffffff166111a4611257565b73ffffffffffffffffffffffffffffffffffffffff16146111fa576040517f08c379a00000000000000000000000000000000000000000000000000000000081526004016111f190613e5d565b60405180910390fd5b6112046000612011565b565b7f65d7a28e3265b37a6474929f336521b332c1681b933f6cb9f3376673440d862a61123081611cdd565b6112386120d7565b50565b6000801b61124881611cdd565b611252838361217a565b505050565b6000600960009054906101000a900473ffffffffffffffffffffffffffffffffffffffff16905090565b60006008600084815260200190815260200160002060000160008373ffffffffffffffffffffffffffffffffffffffff1673ffffffffffffffffffffffffffffffffffffffff16815260200190815260200160002060009054906101000a900460ff16905092915050565b6060600180546112fb90613a1d565b80601f016020809104026020016040519081016040528092919081815260200182805461132790613a1d565b80156113745780601f1061134957610100808354040283529160200191611374565b820191906000526020600020905b81548152906001019060200180831161135757829003601f168201915b5050505050905090565b6000801b81565b6113976113906118d8565b8383612264565b5050565b6113ac6113a66118d8565b83611999565b6113eb576040517f08c379a00000000000000000000000000000000000000000000000000000000081526004016113e290613c76565b60405180910390fd5b6113f7848484846123d0565b50505050565b600a6020528060005260406000206000915090508060000154908060010160009054906101000a900473ffffffffffffffffffffffffffffffffffffffff169080600201805461144c90613a1d565b80601f016020809104026020016040519081016040528092919081815260200182805461147890613a1d565b80156114c55780601f1061149a576101008083540402835291602001916114c5565b820191906000526020600020905b8154815290600101906020018083116114a857829003601f168201915b5050505050905083565b60606114da8261186c565b611519576040517f08c379a000000000000000000000000000000000000000000000000000000000815260040161151090614503565b60405180910390fd5b6115228261242c565b9050919050565b61153282610ae1565b61153b81611cdd565b6115458383611dd2565b505050565b7f65d7a28e3265b37a6474929f336521b332c1681b933f6cb9f3376673440d862a81565b6000600560008473ffffffffffffffffffffffffffffffffffffffff1673ffffffffffffffffffffffffffffffffffffffff16815260200190815260200160002060008373ffffffffffffffffffffffffffffffffffffffff1673ffffffffffffffffffffffffffffffffffffffff16815260200190815260200160002060009054906101000a900460ff16905092915050565b600061160c610fff565b1561164c576040517f08c379a000000000000000000000000000000000000000000000000000000000815260040161164390613f0f565b60405180910390fd5b6116558261186c565b611694576040517f08c379a000000000000000000000000000000000000000000000000000000000815260040161168b90614595565b60405180910390fd5b600a60008381526020019081526020016000206000808201600090556001820160006101000a81549073ffffffffffffffffffffffffffffffffffffffff02191690556002820160006116e79190613170565b50506116f282610fa3565b60019050919050565b6117036118d8565b73ffffffffffffffffffffffffffffffffffffffff16611721611257565b73ffffffffffffffffffffffffffffffffffffffff1614611777576040517f08c379a000000000000000000000000000000000000000000000000000000000815260040161176e90613e5d565b60405180910390fd5b600073ffffffffffffffffffffffffffffffffffffffff168173ffffffffffffffffffffffffffffffffffffffff16036117e6576040517f08c379a00000000000000000000000000000000000000000000000000000000081526004016117dd90614627565b60405180910390fd5b6117ef81612011565b50565b60007f7965db0b000000000000000000000000000000000000000000000000000000007bffffffffffffffffffffffffffffffffffffffffffffffffffffffff1916827bffffffffffffffffffffffffffffffffffffffffffffffffffffffff1916148061186557506118648261257d565b5b9050919050565b60008073ffffffffffffffffffffffffffffffffffffffff166002600084815260200190815260200160002060009054906101000a900473ffffffffffffffffffffffffffffffffffffffff1673ffffffffffffffffffffffffffffffffffffffff1614159050919050565b600033905090565b816004600083815260200190815260200160002060006101000a81548173ffffffffffffffffffffffffffffffffffffffff021916908373ffffffffffffffffffffffffffffffffffffffff160217905550808273ffffffffffffffffffffffffffffffffffffffff1661195383611016565b73ffffffffffffffffffffffffffffffffffffffff167f8c5be1e5ebec7d5bd14f71427d1e84f3dd0314c0f7b2291e5b200ac8c7c3b92560405160405180910390a45050565b60006119a48261186c565b6119e3576040517f08c379a00000000000000000000000000000000000000000000000000000000081526004016119da906146b9565b60405180910390fd5b60006119ee83611016565b90508073ffffffffffffffffffffffffffffffffffffffff168473ffffffffffffffffffffffffffffffffffffffff161480611a305750611a2f818561156e565b5b80611a6e57508373ffffffffffffffffffffffffffffffffffffffff16611a56846108e5565b73ffffffffffffffffffffffffffffffffffffffff16145b91505092915050565b8273ffffffffffffffffffffffffffffffffffffffff16611a9782611016565b73ffffffffffffffffffffffffffffffffffffffff1614611aed576040517f08c379a0000000000000000000000000000000000000000000000000000000008152600401611ae49061474b565b60405180910390fd5b600073ffffffffffffffffffffffffffffffffffffffff168273ffffffffffffffffffffffffffffffffffffffff1603611b5c576040517f08c379a0000000000000000000000000000000000000000000000000000000008152600401611b53906147dd565b60405180910390fd5b611b6783838361265f565b611b726000826118e0565b6001600360008573ffffffffffffffffffffffffffffffffffffffff1673ffffffffffffffffffffffffffffffffffffffff1681526020019081526020016000206000828254611bc291906147fd565b925050819055506001600360008473ffffffffffffffffffffffffffffffffffffffff1673ffffffffffffffffffffffffffffffffffffffff1681526020019081526020016000206000828254611c199190614831565b92505081905550816002600083815260200190815260200160002060006101000a81548173ffffffffffffffffffffffffffffffffffffffff021916908373ffffffffffffffffffffffffffffffffffffffff160217905550808273ffffffffffffffffffffffffffffffffffffffff168473ffffffffffffffffffffffffffffffffffffffff167fddf252ad1be2c89b69c2b068fc378daa952ba7f163c4a11628f55a4df523b3ef60405160405180910390a4611cd88383836126b7565b505050565b611cee81611ce96118d8565b6126bc565b50565b611cfb8282611281565b611dce5760016008600084815260200190815260200160002060000160008373ffffffffffffffffffffffffffffffffffffffff1673ffffffffffffffffffffffffffffffffffffffff16815260200190815260200160002060006101000a81548160ff021916908315150217905550611d736118d8565b73ffffffffffffffffffffffffffffffffffffffff168173ffffffffffffffffffffffffffffffffffffffff16837f2f8788117e7eff1d82e926ec794901d17c78024a50270940304540a733656f0d60405160405180910390a45b5050565b611ddc8282611281565b15611eb05760006008600084815260200190815260200160002060000160008373ffffffffffffffffffffffffffffffffffffffff1673ffffffffffffffffffffffffffffffffffffffff16815260200190815260200160002060006101000a81548160ff021916908315150217905550611e556118d8565b73ffffffffffffffffffffffffffffffffffffffff168173ffffffffffffffffffffffffffffffffffffffff16837ff6391f5c32d9c69d2a47ea670b442974b53935d1edc7fd64eb21e047a839171b60405160405180910390a45b5050565b6001816000016000828254019250508190555050565b600081600001549050919050565b611ef2828260405180602001604052806000815250612759565b5050565b611eff8261186c565b611f3e576040517f08c379a0000000000000000000000000000000000000000000000000000000008152600401611f35906148f9565b60405180910390fd5b80600660008481526020019081526020016000209081611f5e91906141d9565b505050565b611f6b610fff565b611faa576040517f08c379a0000000000000000000000000000000000000000000000000000000008152600401611fa190614965565b60405180910390fd5b6000600760006101000a81548160ff0219169083151502179055507f5db9ee0a495bf2e6ff9c91a7834c1ba4fdd244a5e8aa4e537bd38aeae4b073aa611fee6118d8565b604051611ffb91906133fb565b60405180910390a1565b61200e816127b4565b50565b6000600960009054906101000a900473ffffffffffffffffffffffffffffffffffffffff16905081600960006101000a81548173ffffffffffffffffffffffffffffffffffffffff021916908373ffffffffffffffffffffffffffffffffffffffff1602179055508173ffffffffffffffffffffffffffffffffffffffff168173ffffffffffffffffffffffffffffffffffffffff167f8be0079c531659141344cd1fd0a4f28419497f9722a3daafe3b4186f6b6457e060405160405180910390a35050565b6120df610fff565b1561211f576040517f08c379a000000000000000000000000000000000000000000000000000000000815260040161211690613f0f565b60405180910390fd5b6001600760006101000a81548160ff0219169083151502179055507f62e78cea01bee320cd4e420270b5ea74000d11b0c9f74754ebdbfc544b05a2586121636118d8565b60405161217091906133fb565b60405180910390a1565b6127108111156121bf576040517f08c379a00000000000000000000000000000000000000000000000000000000081526004016121b6906149d1565b60405180910390fd5b60405180604001604052808373ffffffffffffffffffffffffffffffffffffffff1681526020018262ffffff16815250600c60008201518160000160006101000a81548173ffffffffffffffffffffffffffffffffffffffff021916908373ffffffffffffffffffffffffffffffffffffffff16021790555060208201518160000160146101000a81548162ffffff021916908362ffffff1602179055509050505050565b8173ffffffffffffffffffffffffffffffffffffffff168373ffffffffffffffffffffffffffffffffffffffff16036122d2576040517f08c379a00000000000000000000000000000000000000000000000000000000081526004016122c990614a3d565b60405180910390fd5b80600560008573ffffffffffffffffffffffffffffffffffffffff1673ffffffffffffffffffffffffffffffffffffffff16815260200190815260200160002060008473ffffffffffffffffffffffffffffffffffffffff1673ffffffffffffffffffffffffffffffffffffffff16815260200190815260200160002060006101000a81548160ff0219169083151502179055508173ffffffffffffffffffffffffffffffffffffffff168373ffffffffffffffffffffffffffffffffffffffff167f17307eab39ab6107e8899845ad3d59bd9653f200f220920489ca2b5937696c31836040516123c39190613281565b60405180910390a3505050565b6123db848484611a77565b6123e784848484612807565b612426576040517f08c379a000000000000000000000000000000000000000000000000000000000815260040161241d90614acf565b60405180910390fd5b50505050565b60606124378261186c565b612476576040517f08c379a000000000000000000000000000000000000000000000000000000000815260040161246d90614b61565b60405180910390fd5b600060066000848152602001908152602001600020805461249690613a1d565b80601f01602080910402602001604051908101604052809291908181526020018280546124c290613a1d565b801561250f5780601f106124e45761010080835404028352916020019161250f565b820191906000526020600020905b8154815290600101906020018083116124f257829003601f168201915b50505050509050600061252061298e565b90506000815103612535578192505050612578565b60008251111561256a578082604051602001612552929190614bbd565b60405160208183030381529060405292505050612578565b612573846129a5565b925050505b919050565b60007f80ac58cd000000000000000000000000000000000000000000000000000000007bffffffffffffffffffffffffffffffffffffffffffffffffffffffff1916827bffffffffffffffffffffffffffffffffffffffffffffffffffffffff1916148061264857507f5b5e139f000000000000000000000000000000000000000000000000000000007bffffffffffffffffffffffffffffffffffffffffffffffffffffffff1916827bffffffffffffffffffffffffffffffffffffffffffffffffffffffff1916145b80612658575061265782612a4c565b5b9050919050565b612667610fff565b156126a7576040517f08c379a000000000000000000000000000000000000000000000000000000000815260040161269e90613f0f565b60405180910390fd5b6126b2838383612ab6565b505050565b505050565b6126c68282611281565b612755576126eb8173ffffffffffffffffffffffffffffffffffffffff166014612abb565b6126f98360001c6020612abb565b60405160200161270a929190614c79565b6040516020818303038152906040526040517f08c379a000000000000000000000000000000000000000000000000000000000815260040161274c9190613335565b60405180910390fd5b5050565b6127638383612cf7565b6127706000848484612807565b6127af576040517f08c379a00000000000000000000000000000000000000000000000000000000081526004016127a690614acf565b60405180910390fd5b505050565b6127bd81612ed0565b60006006600083815260200190815260200160002080546127dd90613a1d565b905014612804576006600082815260200190815260200160002060006128039190613170565b5b50565b60006128288473ffffffffffffffffffffffffffffffffffffffff16612fed565b15612981578373ffffffffffffffffffffffffffffffffffffffff1663150b7a026128516118d8565b8786866040518563ffffffff1660e01b81526004016128739493929190614d08565b6020604051808303816000875af19250505080156128af57506040513d601f19601f820116820180604052508101906128ac9190614d69565b60015b612931573d80600081146128df576040519150601f19603f3d011682016040523d82523d6000602084013e6128e4565b606091505b506000815103612929576040517f08c379a000000000000000000000000000000000000000000000000000000000815260040161292090614acf565b60405180910390fd5b805181602001fd5b63150b7a0260e01b7bffffffffffffffffffffffffffffffffffffffffffffffffffffffff1916817bffffffffffffffffffffffffffffffffffffffffffffffffffffffff191614915050612986565b600190505b949350505050565b606060405180602001604052806000815250905090565b60606129b08261186c565b6129ef576040517f08c379a00000000000000000000000000000000000000000000000000000000081526004016129e690614503565b60405180910390fd5b60006129f961298e565b90506000815111612a195760405180602001604052806000815250612a44565b80612a2384613010565b604051602001612a34929190614bbd565b6040516020818303038152906040525b915050919050565b60007f01ffc9a7000000000000000000000000000000000000000000000000000000007bffffffffffffffffffffffffffffffffffffffffffffffffffffffff1916827bffffffffffffffffffffffffffffffffffffffffffffffffffffffff1916149050919050565b505050565b606060006002836002612ace9190613cc5565b612ad89190614831565b67ffffffffffffffff811115612af157612af0613624565b5b6040519080825280601f01601f191660200182016040528015612b235781602001600182028036833780820191505090505b5090507f300000000000000000000000000000000000000000000000000000000000000081600081518110612b5b57612b5a614d96565b5b60200101907effffffffffffffffffffffffffffffffffffffffffffffffffffffffffffff1916908160001a9053507f780000000000000000000000000000000000000000000000000000000000000081600181518110612bbf57612bbe614d96565b5b60200101907effffffffffffffffffffffffffffffffffffffffffffffffffffffffffffff1916908160001a90535060006001846002612bff9190613cc5565b612c099190614831565b90505b6001811115612ca9577f3031323334353637383961626364656600000000000000000000000000000000600f861660108110612c4b57612c4a614d96565b5b1a60f81b828281518110612c6257612c61614d96565b5b60200101907effffffffffffffffffffffffffffffffffffffffffffffffffffffffffffff1916908160001a905350600485901c945080612ca290614dc5565b9050612c0c565b5060008414612ced576040517f08c379a0000000000000000000000000000000000000000000000000000000008152600401612ce490614e3a565b60405180910390fd5b8091505092915050565b600073ffffffffffffffffffffffffffffffffffffffff168273ffffffffffffffffffffffffffffffffffffffff1603612d66576040517f08c379a0000000000000000000000000000000000000000000000000000000008152600401612d5d90614ea6565b60405180910390fd5b612d6f8161186c565b15612daf576040517f08c379a0000000000000000000000000000000000000000000000000000000008152600401612da690614f12565b60405180910390fd5b612dbb6000838361265f565b6001600360008473ffffffffffffffffffffffffffffffffffffffff1673ffffffffffffffffffffffffffffffffffffffff1681526020019081526020016000206000828254612e0b9190614831565b92505081905550816002600083815260200190815260200160002060006101000a81548173ffffffffffffffffffffffffffffffffffffffff021916908373ffffffffffffffffffffffffffffffffffffffff160217905550808273ffffffffffffffffffffffffffffffffffffffff16600073ffffffffffffffffffffffffffffffffffffffff167fddf252ad1be2c89b69c2b068fc378daa952ba7f163c4a11628f55a4df523b3ef60405160405180910390a4612ecc600083836126b7565b5050565b6000612edb82611016565b9050612ee98160008461265f565b612ef46000836118e0565b6001600360008373ffffffffffffffffffffffffffffffffffffffff1673ffffffffffffffffffffffffffffffffffffffff1681526020019081526020016000206000828254612f4491906147fd565b925050819055506002600083815260200190815260200160002060006101000a81549073ffffffffffffffffffffffffffffffffffffffff021916905581600073ffffffffffffffffffffffffffffffffffffffff168273ffffffffffffffffffffffffffffffffffffffff167fddf252ad1be2c89b69c2b068fc378daa952ba7f163c4a11628f55a4df523b3ef60405160405180910390a4612fe9816000846126b7565b5050565b6000808273ffffffffffffffffffffffffffffffffffffffff163b119050919050565b606060008203613057576040518060400160405280600181526020017f3000000000000000000000000000000000000000000000000000000000000000815250905061316b565b600082905060005b6000821461308957808061307290614f32565b915050600a826130829190613d4e565b915061305f565b60008167ffffffffffffffff8111156130a5576130a4613624565b5b6040519080825280601f01601f1916602001820160405280156130d75781602001600182028036833780820191505090505b5090505b60008514613164576001826130f091906147fd565b9150600a856130ff9190614f7a565b603061310b9190614831565b60f81b81838151811061312157613120614d96565b5b60200101907effffffffffffffffffffffffffffffffffffffffffffffffffffffffffffff1916908160001a905350600a8561315d9190613d4e565b94506130db565b8093505050505b919050565b50805461317c90613a1d565b6000825580601f1061318e57506131ad565b601f0160209004906000526020600020908101906131ac91906131b0565b5b50565b5b808211156131c95760008160009055506001016131b1565b5090565b6000604051905090565b600080fd5b600080fd5b60007fffffffff0000000000000000000000000000000000000000000000000000000082169050919050565b613216816131e1565b811461322157600080fd5b50565b6000813590506132338161320d565b92915050565b60006020828403121561324f5761324e6131d7565b5b600061325d84828501613224565b91505092915050565b60008115159050919050565b61327b81613266565b82525050565b60006020820190506132966000830184613272565b92915050565b600081519050919050565b600082825260208201905092915050565b60005b838110156132d65780820151818401526020810190506132bb565b838111156132e5576000848401525b50505050565b6000601f19601f8301169050919050565b60006133078261329c565b61331181856132a7565b93506133218185602086016132b8565b61332a816132eb565b840191505092915050565b6000602082019050818103600083015261334f81846132fc565b905092915050565b6000819050919050565b61336a81613357565b811461337557600080fd5b50565b60008135905061338781613361565b92915050565b6000602082840312156133a3576133a26131d7565b5b60006133b184828501613378565b91505092915050565b600073ffffffffffffffffffffffffffffffffffffffff82169050919050565b60006133e5826133ba565b9050919050565b6133f5816133da565b82525050565b600060208201905061341060008301846133ec565b92915050565b61341f816133da565b811461342a57600080fd5b50565b60008135905061343c81613416565b92915050565b60008060408385031215613459576134586131d7565b5b60006134678582860161342d565b925050602061347885828601613378565b9150509250929050565b60008060006060848603121561349b5761349a6131d7565b5b60006134a98682870161342d565b93505060206134ba8682870161342d565b92505060406134cb86828701613378565b9150509250925092565b6000819050919050565b6134e8816134d5565b81146134f357600080fd5b50565b600081359050613505816134df565b92915050565b600060208284031215613521576135206131d7565b5b600061352f848285016134f6565b91505092915050565b613541816134d5565b82525050565b600060208201905061355c6000830184613538565b92915050565b60008060408385031215613579576135786131d7565b5b600061358785828601613378565b925050602061359885828601613378565b9150509250929050565b6135ab81613357565b82525050565b60006040820190506135c660008301856133ec565b6135d360208301846135a2565b9392505050565b600080604083850312156135f1576135f06131d7565b5b60006135ff858286016134f6565b92505060206136108582860161342d565b9150509250929050565b600080fd5b600080fd5b7f4e487b7100000000000000000000000000000000000000000000000000000000600052604160045260246000fd5b61365c826132eb565b810181811067ffffffffffffffff8211171561367b5761367a613624565b5b80604052505050565b600061368e6131cd565b905061369a8282613653565b919050565b600067ffffffffffffffff8211156136ba576136b9613624565b5b6136c3826132eb565b9050602081019050919050565b82818337600083830152505050565b60006136f26136ed8461369f565b613684565b90508281526020810184848401111561370e5761370d61361f565b5b6137198482856136d0565b509392505050565b600082601f8301126137365761373561361a565b5b81356137468482602086016136df565b91505092915050565b600060208284031215613765576137646131d7565b5b600082013567ffffffffffffffff811115613783576137826131dc565b5b61378f84828501613721565b91505092915050565b60006020820190506137ad60008301846135a2565b92915050565b6000602082840312156137c9576137c86131d7565b5b60006137d78482850161342d565b91505092915050565b6137e981613266565b81146137f457600080fd5b50565b600081359050613806816137e0565b92915050565b60008060408385031215613823576138226131d7565b5b60006138318582860161342d565b9250506020613842858286016137f7565b9150509250929050565b600067ffffffffffffffff82111561386757613866613624565b5b613870826132eb565b9050602081019050919050565b600061389061388b8461384c565b613684565b9050828152602081018484840111156138ac576138ab61361f565b5b6138b78482856136d0565b509392505050565b600082601f8301126138d4576138d361361a565b5b81356138e484826020860161387d565b91505092915050565b60008060008060808587031215613907576139066131d7565b5b60006139158782880161342d565b94505060206139268782880161342d565b935050604061393787828801613378565b925050606085013567ffffffffffffffff811115613958576139576131dc565b5b613964878288016138bf565b91505092959194509250565b600060608201905061398560008301866135a2565b61399260208301856133ec565b81810360408301526139a481846132fc565b9050949350505050565b600080604083850312156139c5576139c46131d7565b5b60006139d38582860161342d565b92505060206139e48582860161342d565b9150509250929050565b7f4e487b7100000000000000000000000000000000000000000000000000000000600052602260045260246000fd5b60006002820490506001821680613a3557607f821691505b602082108103613a4857613a476139ee565b5b50919050565b7f4552433732313a20617070726f76656420717565727920666f72206e6f6e657860008201527f697374656e7420746f6b656e0000000000000000000000000000000000000000602082015250565b6000613aaa602c836132a7565b9150613ab582613a4e565b604082019050919050565b60006020820190508181036000830152613ad981613a9d565b9050919050565b7f4552433732313a20617070726f76616c20746f2063757272656e74206f776e6560008201527f7200000000000000000000000000000000000000000000000000000000000000602082015250565b6000613b3c6021836132a7565b9150613b4782613ae0565b604082019050919050565b60006020820190508181036000830152613b6b81613b2f565b9050919050565b7f4552433732313a20617070726f76652063616c6c6572206973206e6f74206f7760008201527f6e6572206e6f7220617070726f76656420666f7220616c6c0000000000000000602082015250565b6000613bce6038836132a7565b9150613bd982613b72565b604082019050919050565b60006020820190508181036000830152613bfd81613bc1565b9050919050565b7f4552433732313a207472616e736665722063616c6c6572206973206e6f74206f60008201527f776e6572206e6f7220617070726f766564000000000000000000000000000000602082015250565b6000613c606031836132a7565b9150613c6b82613c04565b604082019050919050565b60006020820190508181036000830152613c8f81613c53565b9050919050565b7f4e487b7100000000000000000000000000000000000000000000000000000000600052601160045260246000fd5b6000613cd082613357565b9150613cdb83613357565b9250817fffffffffffffffffffffffffffffffffffffffffffffffffffffffffffffffff0483118215151615613d1457613d13613c96565b5b828202905092915050565b7f4e487b7100000000000000000000000000000000000000000000000000000000600052601260045260246000fd5b6000613d5982613357565b9150613d6483613357565b925082613d7457613d73613d1f565b5b828204905092915050565b7f416363657373436f6e74726f6c3a2063616e206f6e6c792072656e6f756e636560008201527f20726f6c657320666f722073656c660000000000000000000000000000000000602082015250565b6000613ddb602f836132a7565b9150613de682613d7f565b604082019050919050565b60006020820190508181036000830152613e0a81613dce565b9050919050565b7f4f776e61626c653a2063616c6c6572206973206e6f7420746865206f776e6572600082015250565b6000613e476020836132a7565b9150613e5282613e11565b602082019050919050565b60006020820190508181036000830152613e7681613e3a565b9050919050565b600081905092915050565b50565b6000613e98600083613e7d565b9150613ea382613e88565b600082019050919050565b6000613eb982613e8b565b9150819050919050565b7f5061757361626c653a2070617573656400000000000000000000000000000000600082015250565b6000613ef96010836132a7565b9150613f0482613ec3565b602082019050919050565b60006020820190508181036000830152613f2881613eec565b9050919050565b7f426c6f636b4e6577734d65646961546f6b656e56323a204e6f20546f6b656e2060008201527f55524920737570706c6965640000000000000000000000000000000000000000602082015250565b6000613f8b602c836132a7565b9150613f9682613f2f565b604082019050919050565b60006020820190508181036000830152613fba81613f7e565b9050919050565b7f506c65617365207061792031204d617469630000000000000000000000000000600082015250565b6000613ff76012836132a7565b915061400282613fc1565b602082019050919050565b6000602082019050818103600083015261402681613fea565b9050919050565b60008190508160005260206000209050919050565b60006020601f8301049050919050565b600082821b905092915050565b60006008830261408f7fffffffffffffffffffffffffffffffffffffffffffffffffffffffffffffffff82614052565b6140998683614052565b95508019841693508086168417925050509392505050565b6000819050919050565b60006140d66140d16140cc84613357565b6140b1565b613357565b9050919050565b6000819050919050565b6140f0836140bb565b6141046140fc826140dd565b84845461405f565b825550505050565b600090565b61411961410c565b6141248184846140e7565b505050565b5b818110156141485761413d600082614111565b60018101905061412a565b5050565b601f82111561418d5761415e8161402d565b61416784614042565b81016020851015614176578190505b61418a61418285614042565b830182614129565b50505b505050565b600082821c905092915050565b60006141b060001984600802614192565b1980831691505092915050565b60006141c9838361419f565b9150826002028217905092915050565b6141e28261329c565b67ffffffffffffffff8111156141fb576141fa613624565b5b6142058254613a1d565b61421082828561414c565b600060209050601f8311600181146142435760008415614231578287015190505b61423b85826141bd565b8655506142a3565b601f1984166142518661402d565b60005b8281101561427957848901518255600182019150602085019450602081019050614254565b868310156142965784890151614292601f89168261419f565b8355505b6001600288020188555050505b505050505050565b60006040820190506142c060008301856133ec565b81810360208301526142d281846132fc565b90509392505050565b7f4552433732314275726e61626c653a2063616c6c6572206973206e6f74206f7760008201527f6e6572206e6f7220617070726f76656400000000000000000000000000000000602082015250565b60006143376030836132a7565b9150614342826142db565b604082019050919050565b600060208201905081810360008301526143668161432a565b9050919050565b7f4552433732313a206f776e657220717565727920666f72206e6f6e657869737460008201527f656e7420746f6b656e0000000000000000000000000000000000000000000000602082015250565b60006143c96029836132a7565b91506143d48261436d565b604082019050919050565b600060208201905081810360008301526143f8816143bc565b9050919050565b7f4552433732313a2062616c616e636520717565727920666f7220746865207a6560008201527f726f206164647265737300000000000000000000000000000000000000000000602082015250565b600061445b602a836132a7565b9150614466826143ff565b604082019050919050565b6000602082019050818103600083015261448a8161444e565b9050919050565b7f4552433732314d657461646174613a2055524920717565727920666f72206e6f60008201527f6e6578697374656e7420746f6b656e0000000000000000000000000000000000602082015250565b60006144ed602f836132a7565b91506144f882614491565b604082019050919050565b6000602082019050818103600083015261451c816144e0565b9050919050565b7f426c6f636b4e6577734d65646961546f6b656e3a204275726e20666f72206e6f60008201527f6e6578697374656e7420746f6b656e0000000000000000000000000000000000602082015250565b600061457f602f836132a7565b915061458a82614523565b604082019050919050565b600060208201905081810360008301526145ae81614572565b9050919050565b7f4f776e61626c653a206e6577206f776e657220697320746865207a65726f206160008201527f6464726573730000000000000000000000000000000000000000000000000000602082015250565b60006146116026836132a7565b915061461c826145b5565b604082019050919050565b6000602082019050818103600083015261464081614604565b9050919050565b7f4552433732313a206f70657261746f7220717565727920666f72206e6f6e657860008201527f697374656e7420746f6b656e0000000000000000000000000000000000000000602082015250565b60006146a3602c836132a7565b91506146ae82614647565b604082019050919050565b600060208201905081810360008301526146d281614696565b9050919050565b7f4552433732313a207472616e736665722066726f6d20696e636f72726563742060008201527f6f776e6572000000000000000000000000000000000000000000000000000000602082015250565b60006147356025836132a7565b9150614740826146d9565b604082019050919050565b6000602082019050818103600083015261476481614728565b9050919050565b7f4552433732313a207472616e7366657220746f20746865207a65726f2061646460008201527f7265737300000000000000000000000000000000000000000000000000000000602082015250565b60006147c76024836132a7565b91506147d28261476b565b604082019050919050565b600060208201905081810360008301526147f6816147ba565b9050919050565b600061480882613357565b915061481383613357565b92508282101561482657614825613c96565b5b828203905092915050565b600061483c82613357565b915061484783613357565b9250827fffffffffffffffffffffffffffffffffffffffffffffffffffffffffffffffff0382111561487c5761487b613c96565b5b828201905092915050565b7f45524337323155524953746f726167653a2055524920736574206f66206e6f6e60008201527f6578697374656e7420746f6b656e000000000000000000000000000000000000602082015250565b60006148e3602e836132a7565b91506148ee82614887565b604082019050919050565b60006020820190508181036000830152614912816148d6565b9050919050565b7f5061757361626c653a206e6f7420706175736564000000000000000000000000600082015250565b600061494f6014836132a7565b915061495a82614919565b602082019050919050565b6000602082019050818103600083015261497e81614942565b9050919050565b7f45524332393831526f79616c746965733a20546f6f2068696768000000000000600082015250565b60006149bb601a836132a7565b91506149c682614985565b602082019050919050565b600060208201905081810360008301526149ea816149ae565b9050919050565b7f4552433732313a20617070726f766520746f2063616c6c657200000000000000600082015250565b6000614a276019836132a7565b9150614a32826149f1565b602082019050919050565b60006020820190508181036000830152614a5681614a1a565b9050919050565b7f4552433732313a207472616e7366657220746f206e6f6e20455243373231526560008201527f63656976657220696d706c656d656e7465720000000000000000000000000000602082015250565b6000614ab96032836132a7565b9150614ac482614a5d565b604082019050919050565b60006020820190508181036000830152614ae881614aac565b9050919050565b7f45524337323155524953746f726167653a2055524920717565727920666f722060008201527f6e6f6e6578697374656e7420746f6b656e000000000000000000000000000000602082015250565b6000614b4b6031836132a7565b9150614b5682614aef565b604082019050919050565b60006020820190508181036000830152614b7a81614b3e565b9050919050565b600081905092915050565b6000614b978261329c565b614ba18185614b81565b9350614bb18185602086016132b8565b80840191505092915050565b6000614bc98285614b8c565b9150614bd58284614b8c565b91508190509392505050565b7f416363657373436f6e74726f6c3a206163636f756e7420000000000000000000600082015250565b6000614c17601783614b81565b9150614c2282614be1565b601782019050919050565b7f206973206d697373696e6720726f6c6520000000000000000000000000000000600082015250565b6000614c63601183614b81565b9150614c6e82614c2d565b601182019050919050565b6000614c8482614c0a565b9150614c908285614b8c565b9150614c9b82614c56565b9150614ca78284614b8c565b91508190509392505050565b600081519050919050565b600082825260208201905092915050565b6000614cda82614cb3565b614ce48185614cbe565b9350614cf48185602086016132b8565b614cfd816132eb565b840191505092915050565b6000608082019050614d1d60008301876133ec565b614d2a60208301866133ec565b614d3760408301856135a2565b8181036060830152614d498184614ccf565b905095945050505050565b600081519050614d638161320d565b92915050565b600060208284031215614d7f57614d7e6131d7565b5b6000614d8d84828501614d54565b91505092915050565b7f4e487b7100000000000000000000000000000000000000000000000000000000600052603260045260246000fd5b6000614dd082613357565b915060008203614de357614de2613c96565b5b600182039050919050565b7f537472696e67733a20686578206c656e67746820696e73756666696369656e74600082015250565b6000614e246020836132a7565b9150614e2f82614dee565b602082019050919050565b60006020820190508181036000830152614e5381614e17565b9050919050565b7f4552433732313a206d696e7420746f20746865207a65726f2061646472657373600082015250565b6000614e906020836132a7565b9150614e9b82614e5a565b602082019050919050565b60006020820190508181036000830152614ebf81614e83565b9050919050565b7f4552433732313a20746f6b656e20616c7265616479206d696e74656400000000600082015250565b6000614efc601c836132a7565b9150614f0782614ec6565b602082019050919050565b60006020820190508181036000830152614f2b81614eef565b9050919050565b6000614f3d82613357565b91507fffffffffffffffffffffffffffffffffffffffffffffffffffffffffffffffff8203614f6f57614f6e613c96565b5b600182019050919050565b6000614f8582613357565b9150614f9083613357565b925082614fa057614f9f613d1f565b5b82820690509291505056fea264697066735822122089e087c873b0ea48d34c9f92c1e538142b0f1331dfaa488c3628fc4ad81ad23964736f6c634300080f0033",
  "immutableReferences": {},
  "source": "// SPDX-License-Identifier: CPL\npragma solidity 0.8.15;\n\nimport \"@openzeppelin/contracts/token/ERC721/ERC721.sol\";\nimport \"@openzeppelin/contracts/token/ERC721/extensions/ERC721URIStorage.sol\";\nimport \"@openzeppelin/contracts/security/Pausable.sol\";\nimport \"@openzeppelin/contracts/access/AccessControl.sol\";\nimport \"@openzeppelin/contracts/token/ERC721/extensions/ERC721Burnable.sol\";\nimport \"@openzeppelin/contracts/utils/Counters.sol\";\nimport \"@openzeppelin/contracts/access/Ownable.sol\";\n\n// NFT Token Royalties Interface\nimport \"./ERC2981/IERC2981Royalties.sol\";\n\n/// @title NFT Contract to mint news articles as NFTs\n/// @author Bryce Palichuk & Lukas Knutti <hello@rootine.ch>\n/// @notice To mint/buy/sell articles, music, and videos as NFTs, please head to blocknewsmedia.us\n/// @custom:security-contact hello@rootine.ch\ncontract BlockNewsMediaTokenV2 is\n    ERC721,\n    ERC721URIStorage,\n    Pausable,\n    AccessControl,\n    ERC721Burnable,\n    Ownable\n{\n    using Counters for Counters.Counter;\n\n    mapping(uint256 => Item) public items;\n\n    struct Item {\n        uint256 id;\n        address creator;\n        string uri;\n    }\n\n    struct RoyaltyInfo {\n        address recipient;\n        uint24 amount;\n    }\n\n    event TokenMinted(address _from, string _uri);\n\n    ///@dev address to receive all royalty payments\n    address private constant ROYALTIES_RECEIVER =\n        0x45b58919A70BFdA15d4bb0A8df752A671a318d7E;\n\n    Counters.Counter private _tokenIds;\n    RoyaltyInfo private _royalties;\n\n    bytes32 public constant PAUSER_ROLE = keccak256(\"PAUSER_ROLE\");\n\n    constructor() ERC721(\"BlockNewsMediaV2\", \"BNM2\") {\n        ///@dev grant default roles to contract owner\n        _grantRole(DEFAULT_ADMIN_ROLE, msg.sender);\n        _grantRole(PAUSER_ROLE, msg.sender);\n\n        ///@dev set royalties to 1.75%\n        _setRoyalties(ROYALTIES_RECEIVER, 175);\n    }\n\n    function pause() public onlyRole(PAUSER_ROLE) {\n        _pause();\n    }\n\n    function unpause() public onlyRole(PAUSER_ROLE) {\n        _unpause();\n    }\n\n    /// @notice Called with the uri of the token metadata to mint a new token\n    /// @param uriOfToken - the uri to the ipfs hosted token metadata\n    /// @return tokenId - the ID of the token minted\n    function createItem(string memory uriOfToken)\n        public\n        payable\n        whenNotPaused\n        returns (uint256)\n    {\n        require(\n            bytes(uriOfToken).length > 0,\n            \"BlockNewsMediaTokenV2: No Token URI supplied\"\n        );\n        require(\n            msg.value == (1000000000000000000 wei), \"Please pay 1 Matic\" \n        );\n\n        _tokenIds.increment();\n\n        uint256 newItemId = _tokenIds.current();\n\n        _safeMint(msg.sender, newItemId);\n\n        items[newItemId] = Item(newItemId, msg.sender, uriOfToken);\n\n        _setTokenURI(newItemId, uriOfToken);\n\n        emit TokenMinted(msg.sender, uriOfToken);\n\n        return newItemId;\n    }\n\n    /// @notice Called with the ID of the token to burn the token\n    /// @param tokenId - token ID of the token to burn\n    /// @return success - a bool to indicate the burn success\n    function destoryItem(uint256 tokenId) public whenNotPaused returns (bool) {\n        require(\n            _exists(tokenId),\n            \"BlockNewsMediaToken: Burn for nonexistent token\"\n        );\n        delete items[tokenId];\n        burn(tokenId);\n        return true;\n    }\n\n    /// @notice Implements the EIP-2981 standard into this contract\n    /// @param salesPrice - Price of the token sell on the marketplace\n    /// @return receiver - Returns royalty receiver address\n    /// @return royaltyAmount - Returns royalty amount in the same unit that was used on the marketplace which has to be paid to the royaltyReceiver\n    /// @dev As we use contract-wide royalties this is not used here\n    function royaltyInfo(uint256, uint256 salesPrice)\n        external\n        view\n        returns (address receiver, uint256 royaltyAmount)\n    {\n        RoyaltyInfo memory royalties = _royalties;\n        receiver = royalties.recipient;\n        royaltyAmount = (salesPrice * royalties.amount) / 10000;\n        return (receiver, royaltyAmount);\n    }\n\n    /// @notice Allows to set the royalties on the contract\n    /// @param recipient - the royalties recipient\n    /// @param value - royalties value (between 0 and 10000)\n    function setRoyalties(address recipient, uint256 value)\n        public\n        onlyRole(DEFAULT_ADMIN_ROLE)\n    {\n        _setRoyalties(recipient, value);\n    }\n\n    /// @notice Implements the ERC721 standard into this contract so marketplaces can get the metadata for a token\n    /// @param tokenId - token ID to get the metadata url from\n    /// @return uri - returns uri to the token metadata\n    function tokenURI(uint256 tokenId)\n        public\n        view\n        override(ERC721, ERC721URIStorage)\n        returns (string memory)\n    {\n        require(\n            _exists(tokenId),\n            \"ERC721Metadata: URI query for nonexistent token\"\n        );\n        return super.tokenURI(tokenId);\n    }\n\n    /// @notice Implements the EIP-165 standard into this contract for other contracts to identify interfaes\n    /// @param interfaceId - interface ID to check or support\n    /// @return bool - returns if the interface is supported\n    function supportsInterface(bytes4 interfaceId)\n        public\n        view\n        override(ERC721, AccessControl)\n        returns (bool)\n    {\n        return\n            interfaceId == type(IERC2981Royalties).interfaceId ||\n            super.supportsInterface(interfaceId);\n    }\n\n    // Internal Functions\n\n    /// @dev Sets token royalties\n    /// @param recipient recipient of the royalties\n    /// @param value percentage (using 2 decimals - 10000 = 100, 0 = 0)\n    function _setRoyalties(address recipient, uint256 value) internal {\n        require(value <= 10000, \"ERC2981Royalties: Too high\");\n        _royalties = RoyaltyInfo(recipient, uint24(value));\n    }\n\n    function _beforeTokenTransfer(\n        address from,\n        address to,\n        uint256 tokenId\n    ) internal override whenNotPaused {\n        super._beforeTokenTransfer(from, to, tokenId);\n    }\n\n    // The following functions are overrides required by Solidity.\n\n    function _burn(uint256 tokenId)\n        internal\n        override(ERC721, ERC721URIStorage)\n    {\n        super._burn(tokenId);\n    }\n\n    function withdraw() public payable onlyOwner {\n        (bool success, ) = payable(msg.sender).call{\n            value: address(this).balance\n        }(\"\");\n        require(success);\n    }\n}\n",
  "sourcePath": "/Users/bryce_palichuk/Documents/GitHub/BNM/contracts/contracts/BlockNewsMediaTokenV2.sol",
  "compiler": {
    "name": "solc",
    "version": "0.8.15+commit.e14f2714.Emscripten.clang"
  },
  "schemaVersion": "3.4.7",
  "updatedAt": "2022-07-01T22:04:49.517Z",
  "devdoc": {
    "author": "Bryce Palichuk & Lukas Knutti <hello@rootine.ch>",
    "custom:security-contact": "hello@rootine.ch",
    "kind": "dev",
    "methods": {
      "approve(address,uint256)": {
        "details": "See {IERC721-approve}."
      },
      "balanceOf(address)": {
        "details": "See {IERC721-balanceOf}."
      },
      "burn(uint256)": {
        "details": "Burns `tokenId`. See {ERC721-_burn}. Requirements: - The caller must own `tokenId` or be an approved operator."
      },
      "createItem(string)": {
        "params": {
          "uriOfToken": "- the uri to the ipfs hosted token metadata"
        },
        "returns": {
          "_0": "tokenId - the ID of the token minted"
        }
      },
      "destoryItem(uint256)": {
        "params": {
          "tokenId": "- token ID of the token to burn"
        },
        "returns": {
          "_0": "success - a bool to indicate the burn success"
        }
      },
      "getApproved(uint256)": {
        "details": "See {IERC721-getApproved}."
      },
      "getRoleAdmin(bytes32)": {
        "details": "Returns the admin role that controls `role`. See {grantRole} and {revokeRole}. To change a role's admin, use {_setRoleAdmin}."
      },
      "grantRole(bytes32,address)": {
        "details": "Grants `role` to `account`. If `account` had not been already granted `role`, emits a {RoleGranted} event. Requirements: - the caller must have ``role``'s admin role."
      },
      "hasRole(bytes32,address)": {
        "details": "Returns `true` if `account` has been granted `role`."
      },
      "isApprovedForAll(address,address)": {
        "details": "See {IERC721-isApprovedForAll}."
      },
      "name()": {
        "details": "See {IERC721Metadata-name}."
      },
      "owner()": {
        "details": "Returns the address of the current owner."
      },
      "ownerOf(uint256)": {
        "details": "See {IERC721-ownerOf}."
      },
      "paused()": {
        "details": "Returns true if the contract is paused, and false otherwise."
      },
      "renounceOwnership()": {
        "details": "Leaves the contract without owner. It will not be possible to call `onlyOwner` functions anymore. Can only be called by the current owner. NOTE: Renouncing ownership will leave the contract without an owner, thereby removing any functionality that is only available to the owner."
      },
      "renounceRole(bytes32,address)": {
        "details": "Revokes `role` from the calling account. Roles are often managed via {grantRole} and {revokeRole}: this function's purpose is to provide a mechanism for accounts to lose their privileges if they are compromised (such as when a trusted device is misplaced). If the calling account had been revoked `role`, emits a {RoleRevoked} event. Requirements: - the caller must be `account`."
      },
      "revokeRole(bytes32,address)": {
        "details": "Revokes `role` from `account`. If `account` had been granted `role`, emits a {RoleRevoked} event. Requirements: - the caller must have ``role``'s admin role."
      },
      "royaltyInfo(uint256,uint256)": {
        "details": "As we use contract-wide royalties this is not used here",
        "params": {
          "salesPrice": "- Price of the token sell on the marketplace"
        },
        "returns": {
          "receiver": "- Returns royalty receiver address",
          "royaltyAmount": "- Returns royalty amount in the same unit that was used on the marketplace which has to be paid to the royaltyReceiver"
        }
      },
      "safeTransferFrom(address,address,uint256)": {
        "details": "See {IERC721-safeTransferFrom}."
      },
      "safeTransferFrom(address,address,uint256,bytes)": {
        "details": "See {IERC721-safeTransferFrom}."
      },
      "setApprovalForAll(address,bool)": {
        "details": "See {IERC721-setApprovalForAll}."
      },
      "setRoyalties(address,uint256)": {
        "params": {
          "recipient": "- the royalties recipient",
          "value": "- royalties value (between 0 and 10000)"
        }
      },
      "supportsInterface(bytes4)": {
        "params": {
          "interfaceId": "- interface ID to check or support"
        },
        "returns": {
          "_0": "bool - returns if the interface is supported"
        }
      },
      "symbol()": {
        "details": "See {IERC721Metadata-symbol}."
      },
      "tokenURI(uint256)": {
        "params": {
          "tokenId": "- token ID to get the metadata url from"
        },
        "returns": {
          "_0": "uri - returns uri to the token metadata"
        }
      },
      "transferFrom(address,address,uint256)": {
        "details": "See {IERC721-transferFrom}."
      },
      "transferOwnership(address)": {
        "details": "Transfers ownership of the contract to a new account (`newOwner`). Can only be called by the current owner."
      }
    },
    "stateVariables": {
      "ROYALTIES_RECEIVER": {
        "details": "address to receive all royalty payments"
      }
    },
    "title": "NFT Contract to mint news articles as NFTs",
    "version": 1
  },
  "userdoc": {
    "kind": "user",
    "methods": {
      "createItem(string)": {
        "notice": "Called with the uri of the token metadata to mint a new token"
      },
      "destoryItem(uint256)": {
        "notice": "Called with the ID of the token to burn the token"
      },
      "royaltyInfo(uint256,uint256)": {
        "notice": "Implements the EIP-2981 standard into this contract"
      },
      "setRoyalties(address,uint256)": {
        "notice": "Allows to set the royalties on the contract"
      },
      "supportsInterface(bytes4)": {
        "notice": "Implements the EIP-165 standard into this contract for other contracts to identify interfaes"
      },
      "tokenURI(uint256)": {
        "notice": "Implements the ERC721 standard into this contract so marketplaces can get the metadata for a token"
      }
    },
    "notice": "To mint/buy/sell articles, music, and videos as NFTs, please head to blocknewsmedia.us",
    "version": 1
  }
}