{
  "_format": "hh-sol-artifact-1",
  "contractName": "BlockNewsMediaToken",
  "sourceName": "contracts/BlockNewsMediaToken.sol",
  "abi": [
    {
      "inputs": [],
      "stateMutability": "nonpayable",
      "type": "constructor"
    },
    {
      "anonymous": false,
      "inputs": [
        {
          "indexed": true,
          "internalType": "address",
          "name": "owner",
          "type": "address"
        },
        {
          "indexed": true,
          "internalType": "address",
          "name": "approved",
          "type": "address"
        },
        {
          "indexed": true,
          "internalType": "uint256",
          "name": "tokenId",
          "type": "uint256"
        }
      ],
      "name": "Approval",
      "type": "event"
    },
    {
      "anonymous": false,
      "inputs": [
        {
          "indexed": true,
          "internalType": "address",
          "name": "owner",
          "type": "address"
        },
        {
          "indexed": true,
          "internalType": "address",
          "name": "operator",
          "type": "address"
        },
        {
          "indexed": false,
          "internalType": "bool",
          "name": "approved",
          "type": "bool"
        }
      ],
      "name": "ApprovalForAll",
      "type": "event"
    },
    {
      "anonymous": false,
      "inputs": [
        {
          "indexed": false,
          "internalType": "address",
          "name": "account",
          "type": "address"
        }
      ],
      "name": "Paused",
      "type": "event"
    },
    {
      "anonymous": false,
      "inputs": [
        {
          "indexed": true,
          "internalType": "bytes32",
          "name": "role",
          "type": "bytes32"
        },
        {
          "indexed": true,
          "internalType": "bytes32",
          "name": "previousAdminRole",
          "type": "bytes32"
        },
        {
          "indexed": true,
          "internalType": "bytes32",
          "name": "newAdminRole",
          "type": "bytes32"
        }
      ],
      "name": "RoleAdminChanged",
      "type": "event"
    },
    {
      "anonymous": false,
      "inputs": [
        {
          "indexed": true,
          "internalType": "bytes32",
          "name": "role",
          "type": "bytes32"
        },
        {
          "indexed": true,
          "internalType": "address",
          "name": "account",
          "type": "address"
        },
        {
          "indexed": true,
          "internalType": "address",
          "name": "sender",
          "type": "address"
        }
      ],
      "name": "RoleGranted",
      "type": "event"
    },
    {
      "anonymous": false,
      "inputs": [
        {
          "indexed": true,
          "internalType": "bytes32",
          "name": "role",
          "type": "bytes32"
        },
        {
          "indexed": true,
          "internalType": "address",
          "name": "account",
          "type": "address"
        },
        {
          "indexed": true,
          "internalType": "address",
          "name": "sender",
          "type": "address"
        }
      ],
      "name": "RoleRevoked",
      "type": "event"
    },
    {
      "anonymous": false,
      "inputs": [
        {
          "indexed": false,
          "internalType": "address",
          "name": "_from",
          "type": "address"
        },
        {
          "indexed": false,
          "internalType": "string",
          "name": "_uri",
          "type": "string"
        }
      ],
      "name": "TokenMinted",
      "type": "event"
    },
    {
      "anonymous": false,
      "inputs": [
        {
          "indexed": true,
          "internalType": "address",
          "name": "from",
          "type": "address"
        },
        {
          "indexed": true,
          "internalType": "address",
          "name": "to",
          "type": "address"
        },
        {
          "indexed": true,
          "internalType": "uint256",
          "name": "tokenId",
          "type": "uint256"
        }
      ],
      "name": "Transfer",
      "type": "event"
    },
    {
      "anonymous": false,
      "inputs": [
        {
          "indexed": false,
          "internalType": "address",
          "name": "account",
          "type": "address"
        }
      ],
      "name": "Unpaused",
      "type": "event"
    },
    {
      "inputs": [],
      "name": "DEFAULT_ADMIN_ROLE",
      "outputs": [
        {
          "internalType": "bytes32",
          "name": "",
          "type": "bytes32"
        }
      ],
      "stateMutability": "view",
      "type": "function"
    },
    {
      "inputs": [],
      "name": "PAUSER_ROLE",
      "outputs": [
        {
          "internalType": "bytes32",
          "name": "",
          "type": "bytes32"
        }
      ],
      "stateMutability": "view",
      "type": "function"
    },
    {
      "inputs": [
        {
          "internalType": "address",
          "name": "to",
          "type": "address"
        },
        {
          "internalType": "uint256",
          "name": "tokenId",
          "type": "uint256"
        }
      ],
      "name": "approve",
      "outputs": [],
      "stateMutability": "nonpayable",
      "type": "function"
    },
    {
      "inputs": [
        {
          "internalType": "address",
          "name": "owner",
          "type": "address"
        }
      ],
      "name": "balanceOf",
      "outputs": [
        {
          "internalType": "uint256",
          "name": "",
          "type": "uint256"
        }
      ],
      "stateMutability": "view",
      "type": "function"
    },
    {
      "inputs": [
        {
          "internalType": "uint256",
          "name": "tokenId",
          "type": "uint256"
        }
      ],
      "name": "burn",
      "outputs": [],
      "stateMutability": "nonpayable",
      "type": "function"
    },
    {
      "inputs": [
        {
          "internalType": "string",
          "name": "uriOfToken",
          "type": "string"
        }
      ],
      "name": "createItem",
      "outputs": [
        {
          "internalType": "uint256",
          "name": "",
          "type": "uint256"
        }
      ],
      "stateMutability": "nonpayable",
      "type": "function"
    },
    {
      "inputs": [
        {
          "internalType": "uint256",
          "name": "tokenId",
          "type": "uint256"
        }
      ],
      "name": "destoryItem",
      "outputs": [
        {
          "internalType": "bool",
          "name": "",
          "type": "bool"
        }
      ],
      "stateMutability": "nonpayable",
      "type": "function"
    },
    {
      "inputs": [
        {
          "internalType": "uint256",
          "name": "tokenId",
          "type": "uint256"
        }
      ],
      "name": "getApproved",
      "outputs": [
        {
          "internalType": "address",
          "name": "",
          "type": "address"
        }
      ],
      "stateMutability": "view",
      "type": "function"
    },
    {
      "inputs": [
        {
          "internalType": "bytes32",
          "name": "role",
          "type": "bytes32"
        }
      ],
      "name": "getRoleAdmin",
      "outputs": [
        {
          "internalType": "bytes32",
          "name": "",
          "type": "bytes32"
        }
      ],
      "stateMutability": "view",
      "type": "function"
    },
    {
      "inputs": [
        {
          "internalType": "bytes32",
          "name": "role",
          "type": "bytes32"
        },
        {
          "internalType": "address",
          "name": "account",
          "type": "address"
        }
      ],
      "name": "grantRole",
      "outputs": [],
      "stateMutability": "nonpayable",
      "type": "function"
    },
    {
      "inputs": [
        {
          "internalType": "bytes32",
          "name": "role",
          "type": "bytes32"
        },
        {
          "internalType": "address",
          "name": "account",
          "type": "address"
        }
      ],
      "name": "hasRole",
      "outputs": [
        {
          "internalType": "bool",
          "name": "",
          "type": "bool"
        }
      ],
      "stateMutability": "view",
      "type": "function"
    },
    {
      "inputs": [
        {
          "internalType": "address",
          "name": "owner",
          "type": "address"
        },
        {
          "internalType": "address",
          "name": "operator",
          "type": "address"
        }
      ],
      "name": "isApprovedForAll",
      "outputs": [
        {
          "internalType": "bool",
          "name": "",
          "type": "bool"
        }
      ],
      "stateMutability": "view",
      "type": "function"
    },
    {
      "inputs": [
        {
          "internalType": "uint256",
          "name": "",
          "type": "uint256"
        }
      ],
      "name": "items",
      "outputs": [
        {
          "internalType": "uint256",
          "name": "id",
          "type": "uint256"
        },
        {
          "internalType": "address",
          "name": "creator",
          "type": "address"
        },
        {
          "internalType": "string",
          "name": "uri",
          "type": "string"
        }
      ],
      "stateMutability": "view",
      "type": "function"
    },
    {
      "inputs": [],
      "name": "name",
      "outputs": [
        {
          "internalType": "string",
          "name": "",
          "type": "string"
        }
      ],
      "stateMutability": "view",
      "type": "function"
    },
    {
      "inputs": [
        {
          "internalType": "uint256",
          "name": "tokenId",
          "type": "uint256"
        }
      ],
      "name": "ownerOf",
      "outputs": [
        {
          "internalType": "address",
          "name": "",
          "type": "address"
        }
      ],
      "stateMutability": "view",
      "type": "function"
    },
    {
      "inputs": [],
      "name": "pause",
      "outputs": [],
      "stateMutability": "nonpayable",
      "type": "function"
    },
    {
      "inputs": [],
      "name": "paused",
      "outputs": [
        {
          "internalType": "bool",
          "name": "",
          "type": "bool"
        }
      ],
      "stateMutability": "view",
      "type": "function"
    },
    {
      "inputs": [
        {
          "internalType": "bytes32",
          "name": "role",
          "type": "bytes32"
        },
        {
          "internalType": "address",
          "name": "account",
          "type": "address"
        }
      ],
      "name": "renounceRole",
      "outputs": [],
      "stateMutability": "nonpayable",
      "type": "function"
    },
    {
      "inputs": [
        {
          "internalType": "bytes32",
          "name": "role",
          "type": "bytes32"
        },
        {
          "internalType": "address",
          "name": "account",
          "type": "address"
        }
      ],
      "name": "revokeRole",
      "outputs": [],
      "stateMutability": "nonpayable",
      "type": "function"
    },
    {
      "inputs": [
        {
          "internalType": "uint256",
          "name": "",
          "type": "uint256"
        },
        {
          "internalType": "uint256",
          "name": "salesPrice",
          "type": "uint256"
        }
      ],
      "name": "royaltyInfo",
      "outputs": [
        {
          "internalType": "address",
          "name": "receiver",
          "type": "address"
        },
        {
          "internalType": "uint256",
          "name": "royaltyAmount",
          "type": "uint256"
        }
      ],
      "stateMutability": "view",
      "type": "function"
    },
    {
      "inputs": [
        {
          "internalType": "address",
          "name": "from",
          "type": "address"
        },
        {
          "internalType": "address",
          "name": "to",
          "type": "address"
        },
        {
          "internalType": "uint256",
          "name": "tokenId",
          "type": "uint256"
        }
      ],
      "name": "safeTransferFrom",
      "outputs": [],
      "stateMutability": "nonpayable",
      "type": "function"
    },
    {
      "inputs": [
        {
          "internalType": "address",
          "name": "from",
          "type": "address"
        },
        {
          "internalType": "address",
          "name": "to",
          "type": "address"
        },
        {
          "internalType": "uint256",
          "name": "tokenId",
          "type": "uint256"
        },
        {
          "internalType": "bytes",
          "name": "_data",
          "type": "bytes"
        }
      ],
      "name": "safeTransferFrom",
      "outputs": [],
      "stateMutability": "nonpayable",
      "type": "function"
    },
    {
      "inputs": [
        {
          "internalType": "address",
          "name": "operator",
          "type": "address"
        },
        {
          "internalType": "bool",
          "name": "approved",
          "type": "bool"
        }
      ],
      "name": "setApprovalForAll",
      "outputs": [],
      "stateMutability": "nonpayable",
      "type": "function"
    },
    {
      "inputs": [
        {
          "internalType": "address",
          "name": "recipient",
          "type": "address"
        },
        {
          "internalType": "uint256",
          "name": "value",
          "type": "uint256"
        }
      ],
      "name": "setRoyalties",
      "outputs": [],
      "stateMutability": "nonpayable",
      "type": "function"
    },
    {
      "inputs": [
        {
          "internalType": "bytes4",
          "name": "interfaceId",
          "type": "bytes4"
        }
      ],
      "name": "supportsInterface",
      "outputs": [
        {
          "internalType": "bool",
          "name": "",
          "type": "bool"
        }
      ],
      "stateMutability": "view",
      "type": "function"
    },
    {
      "inputs": [],
      "name": "symbol",
      "outputs": [
        {
          "internalType": "string",
          "name": "",
          "type": "string"
        }
      ],
      "stateMutability": "view",
      "type": "function"
    },
    {
      "inputs": [
        {
          "internalType": "uint256",
          "name": "tokenId",
          "type": "uint256"
        }
      ],
      "name": "tokenURI",
      "outputs": [
        {
          "internalType": "string",
          "name": "",
          "type": "string"
        }
      ],
      "stateMutability": "view",
      "type": "function"
    },
    {
      "inputs": [
        {
          "internalType": "address",
          "name": "from",
          "type": "address"
        },
        {
          "internalType": "address",
          "name": "to",
          "type": "address"
        },
        {
          "internalType": "uint256",
          "name": "tokenId",
          "type": "uint256"
        }
      ],
      "name": "transferFrom",
      "outputs": [],
      "stateMutability": "nonpayable",
      "type": "function"
    },
    {
      "inputs": [],
      "name": "unpause",
      "outputs": [],
      "stateMutability": "nonpayable",
      "type": "function"
    }
  ],
  "bytecode": "0x60806040523480156200001157600080fd5b506040518060400160405280600e81526020017f426c6f636b4e6577734d656469610000000000000000000000000000000000008152506040518060400160405280600381526020017f424e4d000000000000000000000000000000000000000000000000000000000081525081600090816200008f9190620005ff565b508060019081620000a19190620005ff565b5050506000600760006101000a81548160ff021916908315150217905550620000d46000801b336200013360201b60201c565b620001067f65d7a28e3265b37a6474929f336521b332c1681b933f6cb9f3376673440d862a336200013360201b60201c565b6200012d7345b58919a70bfda15d4bb0a8df752a671a318d7e60af6200022560201b60201c565b62000769565b6200014582826200031260201b60201c565b620002215760016008600084815260200190815260200160002060000160008373ffffffffffffffffffffffffffffffffffffffff1673ffffffffffffffffffffffffffffffffffffffff16815260200190815260200160002060006101000a81548160ff021916908315150217905550620001c66200037d60201b60201c565b73ffffffffffffffffffffffffffffffffffffffff168173ffffffffffffffffffffffffffffffffffffffff16837f2f8788117e7eff1d82e926ec794901d17c78024a50270940304540a733656f0d60405160405180910390a45b5050565b6127108111156200026d576040517f08c379a0000000000000000000000000000000000000000000000000000000008152600401620002649062000747565b60405180910390fd5b60405180604001604052808373ffffffffffffffffffffffffffffffffffffffff1681526020018262ffffff16815250600b60008201518160000160006101000a81548173ffffffffffffffffffffffffffffffffffffffff021916908373ffffffffffffffffffffffffffffffffffffffff16021790555060208201518160000160146101000a81548162ffffff021916908362ffffff1602179055509050505050565b60006008600084815260200190815260200160002060000160008373ffffffffffffffffffffffffffffffffffffffff1673ffffffffffffffffffffffffffffffffffffffff16815260200190815260200160002060009054906101000a900460ff16905092915050565b600033905090565b600081519050919050565b7f4e487b7100000000000000000000000000000000000000000000000000000000600052604160045260246000fd5b7f4e487b7100000000000000000000000000000000000000000000000000000000600052602260045260246000fd5b600060028204905060018216806200040757607f821691505b6020821081036200041d576200041c620003bf565b5b50919050565b60008190508160005260206000209050919050565b60006020601f8301049050919050565b600082821b905092915050565b600060088302620004877fffffffffffffffffffffffffffffffffffffffffffffffffffffffffffffffff8262000448565b62000493868362000448565b95508019841693508086168417925050509392505050565b6000819050919050565b6000819050919050565b6000620004e0620004da620004d484620004ab565b620004b5565b620004ab565b9050919050565b6000819050919050565b620004fc83620004bf565b620005146200050b82620004e7565b84845462000455565b825550505050565b600090565b6200052b6200051c565b62000538818484620004f1565b505050565b5b8181101562000560576200055460008262000521565b6001810190506200053e565b5050565b601f821115620005af57620005798162000423565b620005848462000438565b8101602085101562000594578190505b620005ac620005a38562000438565b8301826200053d565b50505b505050565b600082821c905092915050565b6000620005d460001984600802620005b4565b1980831691505092915050565b6000620005ef8383620005c1565b9150826002028217905092915050565b6200060a8262000385565b67ffffffffffffffff81111562000626576200062562000390565b5b620006328254620003ee565b6200063f82828562000564565b600060209050601f83116001811462000677576000841562000662578287015190505b6200066e8582620005e1565b865550620006de565b601f198416620006878662000423565b60005b82811015620006b1578489015182556001820191506020850194506020810190506200068a565b86831015620006d15784890151620006cd601f891682620005c1565b8355505b6001600288020188555050505b505050505050565b600082825260208201905092915050565b7f45524332393831526f79616c746965733a20546f6f2068696768000000000000600082015250565b60006200072f601a83620006e6565b91506200073c82620006f7565b602082019050919050565b60006020820190508181036000830152620007628162000720565b9050919050565b61484080620007796000396000f3fe608060405234801561001057600080fd5b50600436106101cf5760003560e01c80636352211e11610104578063a22cb465116100a2578063d547741f11610071578063d547741f1461053f578063e63ab1e91461055b578063e985e9c514610579578063e9f3d5a7146105a9576101cf565b8063a22cb465146104a5578063b88d4fde146104c1578063bfb231d2146104dd578063c87b56dd1461050f576101cf565b80638c7ea24b116100de5780638c7ea24b1461041d57806391d148541461043957806395d89b4114610469578063a217fddf14610487576101cf565b80636352211e146103b357806370a08231146103e35780638456cb5914610413576101cf565b80632f2ff15d116101715780633f4ba83a1161014b5780633f4ba83a1461035357806342842e0e1461035d57806342966c68146103795780635c975abb14610395576101cf565b80632f2ff15d146102eb57806336568abe146103075780633d54eebb14610323576101cf565b8063095ea7b3116101ad578063095ea7b31461025257806323b872dd1461026e578063248a9ca31461028a5780632a55205a146102ba576101cf565b806301ffc9a7146101d457806306fdde0314610204578063081812fc14610222575b600080fd5b6101ee60048036038101906101e99190612c8b565b6105d9565b6040516101fb9190612cd3565b60405180910390f35b61020c610653565b6040516102199190612d7e565b60405180910390f35b61023c60048036038101906102379190612dd6565b6106e5565b6040516102499190612e44565b60405180910390f35b61026c60048036038101906102679190612e8b565b61076a565b005b61028860048036038101906102839190612ecb565b610881565b005b6102a4600480360381019061029f9190612f54565b6108e1565b6040516102b19190612f90565b60405180910390f35b6102d460048036038101906102cf9190612fab565b610901565b6040516102e2929190612ffa565b60405180910390f35b61030560048036038101906103009190613023565b6109c1565b005b610321600480360381019061031c9190613023565b6109e2565b005b61033d60048036038101906103389190613198565b610a65565b60405161034a91906131e1565b60405180910390f35b61035b610c0f565b005b61037760048036038101906103729190612ecb565b610c44565b005b610393600480360381019061038e9190612dd6565b610c64565b005b61039d610cc0565b6040516103aa9190612cd3565b60405180910390f35b6103cd60048036038101906103c89190612dd6565b610cd7565b6040516103da9190612e44565b60405180910390f35b6103fd60048036038101906103f891906131fc565b610d88565b60405161040a91906131e1565b60405180910390f35b61041b610e3f565b005b61043760048036038101906104329190612e8b565b610e74565b005b610453600480360381019061044e9190613023565b610e90565b6040516104609190612cd3565b60405180910390f35b610471610efb565b60405161047e9190612d7e565b60405180910390f35b61048f610f8d565b60405161049c9190612f90565b60405180910390f35b6104bf60048036038101906104ba9190613255565b610f94565b005b6104db60048036038101906104d69190613336565b610faa565b005b6104f760048036038101906104f29190612dd6565b61100c565b604051610506939291906133b9565b60405180910390f35b61052960048036038101906105249190612dd6565b6110de565b6040516105369190612d7e565b60405180910390f35b61055960048036038101906105549190613023565b611138565b005b610563611159565b6040516105709190612f90565b60405180910390f35b610593600480360381019061058e91906133f7565b61117d565b6040516105a09190612cd3565b60405180910390f35b6105c360048036038101906105be9190612dd6565b611211565b6040516105d09190612cd3565b60405180910390f35b60007f2a55205a000000000000000000000000000000000000000000000000000000007bffffffffffffffffffffffffffffffffffffffffffffffffffffffff1916827bffffffffffffffffffffffffffffffffffffffffffffffffffffffff1916148061064c575061064b8261130a565b5b9050919050565b60606000805461066290613466565b80601f016020809104026020016040519081016040528092919081815260200182805461068e90613466565b80156106db5780601f106106b0576101008083540402835291602001916106db565b820191906000526020600020905b8154815290600101906020018083116106be57829003601f168201915b5050505050905090565b60006106f082611384565b61072f576040517f08c379a000000000000000000000000000000000000000000000000000000000815260040161072690613509565b60405180910390fd5b6004600083815260200190815260200160002060009054906101000a900473ffffffffffffffffffffffffffffffffffffffff169050919050565b600061077582610cd7565b90508073ffffffffffffffffffffffffffffffffffffffff168373ffffffffffffffffffffffffffffffffffffffff16036107e5576040517f08c379a00000000000000000000000000000000000000000000000000000000081526004016107dc9061359b565b60405180910390fd5b8073ffffffffffffffffffffffffffffffffffffffff166108046113f0565b73ffffffffffffffffffffffffffffffffffffffff16148061083357506108328161082d6113f0565b61117d565b5b610872576040517f08c379a00000000000000000000000000000000000000000000000000000000081526004016108699061362d565b60405180910390fd5b61087c83836113f8565b505050565b61089261088c6113f0565b826114b1565b6108d1576040517f08c379a00000000000000000000000000000000000000000000000000000000081526004016108c8906136bf565b60405180910390fd5b6108dc83838361158f565b505050565b600060086000838152602001908152602001600020600101549050919050565b6000806000600b6040518060400160405290816000820160009054906101000a900473ffffffffffffffffffffffffffffffffffffffff1673ffffffffffffffffffffffffffffffffffffffff1673ffffffffffffffffffffffffffffffffffffffff1681526020016000820160149054906101000a900462ffffff1662ffffff1662ffffff1681525050905080600001519250612710816020015162ffffff16856109ad919061370e565b6109b7919061377f565b9150509250929050565b6109ca826108e1565b6109d3816117f5565b6109dd8383611809565b505050565b6109ea6113f0565b73ffffffffffffffffffffffffffffffffffffffff168173ffffffffffffffffffffffffffffffffffffffff1614610a57576040517f08c379a0000000000000000000000000000000000000000000000000000000008152600401610a4e90613822565b60405180910390fd5b610a6182826118ea565b5050565b6000610a6f610cc0565b15610aaf576040517f08c379a0000000000000000000000000000000000000000000000000000000008152600401610aa69061388e565b60405180910390fd5b6000825111610af3576040517f08c379a0000000000000000000000000000000000000000000000000000000008152600401610aea90613920565b60405180910390fd5b610afd600a6119cc565b6000610b09600a6119e2565b9050610b1533826119f0565b60405180606001604052808281526020013373ffffffffffffffffffffffffffffffffffffffff16815260200184815250600960008381526020019081526020016000206000820151816000015560208201518160010160006101000a81548173ffffffffffffffffffffffffffffffffffffffff021916908373ffffffffffffffffffffffffffffffffffffffff1602179055506040820151816002019081610bbf9190613aec565b50905050610bcd8184611a0e565b7fb1fdd3f41eb81d0019cfe7749e6ad19e36fd3652c4ee0be5533ddbab487f1e023384604051610bfe929190613bbe565b60405180910390a180915050919050565b7f65d7a28e3265b37a6474929f336521b332c1681b933f6cb9f3376673440d862a610c39816117f5565b610c41611a7b565b50565b610c5f83838360405180602001604052806000815250610faa565b505050565b610c75610c6f6113f0565b826114b1565b610cb4576040517f08c379a0000000000000000000000000000000000000000000000000000000008152600401610cab90613c60565b60405180910390fd5b610cbd81611b1d565b50565b6000600760009054906101000a900460ff16905090565b6000806002600084815260200190815260200160002060009054906101000a900473ffffffffffffffffffffffffffffffffffffffff169050600073ffffffffffffffffffffffffffffffffffffffff168173ffffffffffffffffffffffffffffffffffffffff1603610d7f576040517f08c379a0000000000000000000000000000000000000000000000000000000008152600401610d7690613cf2565b60405180910390fd5b80915050919050565b60008073ffffffffffffffffffffffffffffffffffffffff168273ffffffffffffffffffffffffffffffffffffffff1603610df8576040517f08c379a0000000000000000000000000000000000000000000000000000000008152600401610def90613d84565b60405180910390fd5b600360008373ffffffffffffffffffffffffffffffffffffffff1673ffffffffffffffffffffffffffffffffffffffff168152602001908152602001600020549050919050565b7f65d7a28e3265b37a6474929f336521b332c1681b933f6cb9f3376673440d862a610e69816117f5565b610e71611b29565b50565b6000801b610e81816117f5565b610e8b8383611bcc565b505050565b60006008600084815260200190815260200160002060000160008373ffffffffffffffffffffffffffffffffffffffff1673ffffffffffffffffffffffffffffffffffffffff16815260200190815260200160002060009054906101000a900460ff16905092915050565b606060018054610f0a90613466565b80601f0160208091040260200160405190810160405280929190818152602001828054610f3690613466565b8015610f835780601f10610f5857610100808354040283529160200191610f83565b820191906000526020600020905b815481529060010190602001808311610f6657829003601f168201915b5050505050905090565b6000801b81565b610fa6610f9f6113f0565b8383611cb6565b5050565b610fbb610fb56113f0565b836114b1565b610ffa576040517f08c379a0000000000000000000000000000000000000000000000000000000008152600401610ff1906136bf565b60405180910390fd5b61100684848484611e22565b50505050565b60096020528060005260406000206000915090508060000154908060010160009054906101000a900473ffffffffffffffffffffffffffffffffffffffff169080600201805461105b90613466565b80601f016020809104026020016040519081016040528092919081815260200182805461108790613466565b80156110d45780601f106110a9576101008083540402835291602001916110d4565b820191906000526020600020905b8154815290600101906020018083116110b757829003601f168201915b5050505050905083565b60606110e982611384565b611128576040517f08c379a000000000000000000000000000000000000000000000000000000000815260040161111f90613e16565b60405180910390fd5b61113182611e7e565b9050919050565b611141826108e1565b61114a816117f5565b61115483836118ea565b505050565b7f65d7a28e3265b37a6474929f336521b332c1681b933f6cb9f3376673440d862a81565b6000600560008473ffffffffffffffffffffffffffffffffffffffff1673ffffffffffffffffffffffffffffffffffffffff16815260200190815260200160002060008373ffffffffffffffffffffffffffffffffffffffff1673ffffffffffffffffffffffffffffffffffffffff16815260200190815260200160002060009054906101000a900460ff16905092915050565b600061121b610cc0565b1561125b576040517f08c379a00000000000000000000000000000000000000000000000000000000081526004016112529061388e565b60405180910390fd5b61126482611384565b6112a3576040517f08c379a000000000000000000000000000000000000000000000000000000000815260040161129a90613ea8565b60405180910390fd5b600960008381526020019081526020016000206000808201600090556001820160006101000a81549073ffffffffffffffffffffffffffffffffffffffff02191690556002820160006112f69190612bc2565b505061130182610c64565b60019050919050565b60007f7965db0b000000000000000000000000000000000000000000000000000000007bffffffffffffffffffffffffffffffffffffffffffffffffffffffff1916827bffffffffffffffffffffffffffffffffffffffffffffffffffffffff1916148061137d575061137c82611fcf565b5b9050919050565b60008073ffffffffffffffffffffffffffffffffffffffff166002600084815260200190815260200160002060009054906101000a900473ffffffffffffffffffffffffffffffffffffffff1673ffffffffffffffffffffffffffffffffffffffff1614159050919050565b600033905090565b816004600083815260200190815260200160002060006101000a81548173ffffffffffffffffffffffffffffffffffffffff021916908373ffffffffffffffffffffffffffffffffffffffff160217905550808273ffffffffffffffffffffffffffffffffffffffff1661146b83610cd7565b73ffffffffffffffffffffffffffffffffffffffff167f8c5be1e5ebec7d5bd14f71427d1e84f3dd0314c0f7b2291e5b200ac8c7c3b92560405160405180910390a45050565b60006114bc82611384565b6114fb576040517f08c379a00000000000000000000000000000000000000000000000000000000081526004016114f290613f3a565b60405180910390fd5b600061150683610cd7565b90508073ffffffffffffffffffffffffffffffffffffffff168473ffffffffffffffffffffffffffffffffffffffff1614806115485750611547818561117d565b5b8061158657508373ffffffffffffffffffffffffffffffffffffffff1661156e846106e5565b73ffffffffffffffffffffffffffffffffffffffff16145b91505092915050565b8273ffffffffffffffffffffffffffffffffffffffff166115af82610cd7565b73ffffffffffffffffffffffffffffffffffffffff1614611605576040517f08c379a00000000000000000000000000000000000000000000000000000000081526004016115fc90613fcc565b60405180910390fd5b600073ffffffffffffffffffffffffffffffffffffffff168273ffffffffffffffffffffffffffffffffffffffff1603611674576040517f08c379a000000000000000000000000000000000000000000000000000000000815260040161166b9061405e565b60405180910390fd5b61167f8383836120b1565b61168a6000826113f8565b6001600360008573ffffffffffffffffffffffffffffffffffffffff1673ffffffffffffffffffffffffffffffffffffffff16815260200190815260200160002060008282546116da919061407e565b925050819055506001600360008473ffffffffffffffffffffffffffffffffffffffff1673ffffffffffffffffffffffffffffffffffffffff168152602001908152602001600020600082825461173191906140b2565b92505081905550816002600083815260200190815260200160002060006101000a81548173ffffffffffffffffffffffffffffffffffffffff021916908373ffffffffffffffffffffffffffffffffffffffff160217905550808273ffffffffffffffffffffffffffffffffffffffff168473ffffffffffffffffffffffffffffffffffffffff167fddf252ad1be2c89b69c2b068fc378daa952ba7f163c4a11628f55a4df523b3ef60405160405180910390a46117f0838383612109565b505050565b611806816118016113f0565b61210e565b50565b6118138282610e90565b6118e65760016008600084815260200190815260200160002060000160008373ffffffffffffffffffffffffffffffffffffffff1673ffffffffffffffffffffffffffffffffffffffff16815260200190815260200160002060006101000a81548160ff02191690831515021790555061188b6113f0565b73ffffffffffffffffffffffffffffffffffffffff168173ffffffffffffffffffffffffffffffffffffffff16837f2f8788117e7eff1d82e926ec794901d17c78024a50270940304540a733656f0d60405160405180910390a45b5050565b6118f48282610e90565b156119c85760006008600084815260200190815260200160002060000160008373ffffffffffffffffffffffffffffffffffffffff1673ffffffffffffffffffffffffffffffffffffffff16815260200190815260200160002060006101000a81548160ff02191690831515021790555061196d6113f0565b73ffffffffffffffffffffffffffffffffffffffff168173ffffffffffffffffffffffffffffffffffffffff16837ff6391f5c32d9c69d2a47ea670b442974b53935d1edc7fd64eb21e047a839171b60405160405180910390a45b5050565b6001816000016000828254019250508190555050565b600081600001549050919050565b611a0a8282604051806020016040528060008152506121ab565b5050565b611a1782611384565b611a56576040517f08c379a0000000000000000000000000000000000000000000000000000000008152600401611a4d90614158565b60405180910390fd5b80600660008481526020019081526020016000209081611a769190613aec565b505050565b611a83610cc0565b611ac2576040517f08c379a0000000000000000000000000000000000000000000000000000000008152600401611ab9906141c4565b60405180910390fd5b6000600760006101000a81548160ff0219169083151502179055507f5db9ee0a495bf2e6ff9c91a7834c1ba4fdd244a5e8aa4e537bd38aeae4b073aa611b066113f0565b604051611b139190612e44565b60405180910390a1565b611b2681612206565b50565b611b31610cc0565b15611b71576040517f08c379a0000000000000000000000000000000000000000000000000000000008152600401611b689061388e565b60405180910390fd5b6001600760006101000a81548160ff0219169083151502179055507f62e78cea01bee320cd4e420270b5ea74000d11b0c9f74754ebdbfc544b05a258611bb56113f0565b604051611bc29190612e44565b60405180910390a1565b612710811115611c11576040517f08c379a0000000000000000000000000000000000000000000000000000000008152600401611c0890614230565b60405180910390fd5b60405180604001604052808373ffffffffffffffffffffffffffffffffffffffff1681526020018262ffffff16815250600b60008201518160000160006101000a81548173ffffffffffffffffffffffffffffffffffffffff021916908373ffffffffffffffffffffffffffffffffffffffff16021790555060208201518160000160146101000a81548162ffffff021916908362ffffff1602179055509050505050565b8173ffffffffffffffffffffffffffffffffffffffff168373ffffffffffffffffffffffffffffffffffffffff1603611d24576040517f08c379a0000000000000000000000000000000000000000000000000000000008152600401611d1b9061429c565b60405180910390fd5b80600560008573ffffffffffffffffffffffffffffffffffffffff1673ffffffffffffffffffffffffffffffffffffffff16815260200190815260200160002060008473ffffffffffffffffffffffffffffffffffffffff1673ffffffffffffffffffffffffffffffffffffffff16815260200190815260200160002060006101000a81548160ff0219169083151502179055508173ffffffffffffffffffffffffffffffffffffffff168373ffffffffffffffffffffffffffffffffffffffff167f17307eab39ab6107e8899845ad3d59bd9653f200f220920489ca2b5937696c3183604051611e159190612cd3565b60405180910390a3505050565b611e2d84848461158f565b611e3984848484612259565b611e78576040517f08c379a0000000000000000000000000000000000000000000000000000000008152600401611e6f9061432e565b60405180910390fd5b50505050565b6060611e8982611384565b611ec8576040517f08c379a0000000000000000000000000000000000000000000000000000000008152600401611ebf906143c0565b60405180910390fd5b6000600660008481526020019081526020016000208054611ee890613466565b80601f0160208091040260200160405190810160405280929190818152602001828054611f1490613466565b8015611f615780601f10611f3657610100808354040283529160200191611f61565b820191906000526020600020905b815481529060010190602001808311611f4457829003601f168201915b505050505090506000611f726123e0565b90506000815103611f87578192505050611fca565b600082511115611fbc578082604051602001611fa492919061441c565b60405160208183030381529060405292505050611fca565b611fc5846123f7565b925050505b919050565b60007f80ac58cd000000000000000000000000000000000000000000000000000000007bffffffffffffffffffffffffffffffffffffffffffffffffffffffff1916827bffffffffffffffffffffffffffffffffffffffffffffffffffffffff1916148061209a57507f5b5e139f000000000000000000000000000000000000000000000000000000007bffffffffffffffffffffffffffffffffffffffffffffffffffffffff1916827bffffffffffffffffffffffffffffffffffffffffffffffffffffffff1916145b806120aa57506120a98261249e565b5b9050919050565b6120b9610cc0565b156120f9576040517f08c379a00000000000000000000000000000000000000000000000000000000081526004016120f09061388e565b60405180910390fd5b612104838383612508565b505050565b505050565b6121188282610e90565b6121a75761213d8173ffffffffffffffffffffffffffffffffffffffff16601461250d565b61214b8360001c602061250d565b60405160200161215c9291906144d8565b6040516020818303038152906040526040517f08c379a000000000000000000000000000000000000000000000000000000000815260040161219e9190612d7e565b60405180910390fd5b5050565b6121b58383612749565b6121c26000848484612259565b612201576040517f08c379a00000000000000000000000000000000000000000000000000000000081526004016121f89061432e565b60405180910390fd5b505050565b61220f81612922565b600060066000838152602001908152602001600020805461222f90613466565b905014612256576006600082815260200190815260200160002060006122559190612bc2565b5b50565b600061227a8473ffffffffffffffffffffffffffffffffffffffff16612a3f565b156123d3578373ffffffffffffffffffffffffffffffffffffffff1663150b7a026122a36113f0565b8786866040518563ffffffff1660e01b81526004016122c59493929190614567565b6020604051808303816000875af192505050801561230157506040513d601f19601f820116820180604052508101906122fe91906145c8565b60015b612383573d8060008114612331576040519150601f19603f3d011682016040523d82523d6000602084013e612336565b606091505b50600081510361237b576040517f08c379a00000000000000000000000000000000000000000000000000000000081526004016123729061432e565b60405180910390fd5b805181602001fd5b63150b7a0260e01b7bffffffffffffffffffffffffffffffffffffffffffffffffffffffff1916817bffffffffffffffffffffffffffffffffffffffffffffffffffffffff1916149150506123d8565b600190505b949350505050565b606060405180602001604052806000815250905090565b606061240282611384565b612441576040517f08c379a000000000000000000000000000000000000000000000000000000000815260040161243890613e16565b60405180910390fd5b600061244b6123e0565b9050600081511161246b5760405180602001604052806000815250612496565b8061247584612a62565b60405160200161248692919061441c565b6040516020818303038152906040525b915050919050565b60007f01ffc9a7000000000000000000000000000000000000000000000000000000007bffffffffffffffffffffffffffffffffffffffffffffffffffffffff1916827bffffffffffffffffffffffffffffffffffffffffffffffffffffffff1916149050919050565b505050565b606060006002836002612520919061370e565b61252a91906140b2565b67ffffffffffffffff8111156125435761254261306d565b5b6040519080825280601f01601f1916602001820160405280156125755781602001600182028036833780820191505090505b5090507f3000000000000000000000000000000000000000000000000000000000000000816000815181106125ad576125ac6145f5565b5b60200101907effffffffffffffffffffffffffffffffffffffffffffffffffffffffffffff1916908160001a9053507f780000000000000000000000000000000000000000000000000000000000000081600181518110612611576126106145f5565b5b60200101907effffffffffffffffffffffffffffffffffffffffffffffffffffffffffffff1916908160001a90535060006001846002612651919061370e565b61265b91906140b2565b90505b60018111156126fb577f3031323334353637383961626364656600000000000000000000000000000000600f86166010811061269d5761269c6145f5565b5b1a60f81b8282815181106126b4576126b36145f5565b5b60200101907effffffffffffffffffffffffffffffffffffffffffffffffffffffffffffff1916908160001a905350600485901c9450806126f490614624565b905061265e565b506000841461273f576040517f08c379a000000000000000000000000000000000000000000000000000000000815260040161273690614699565b60405180910390fd5b8091505092915050565b600073ffffffffffffffffffffffffffffffffffffffff168273ffffffffffffffffffffffffffffffffffffffff16036127b8576040517f08c379a00000000000000000000000000000000000000000000000000000000081526004016127af90614705565b60405180910390fd5b6127c181611384565b15612801576040517f08c379a00000000000000000000000000000000000000000000000000000000081526004016127f890614771565b60405180910390fd5b61280d600083836120b1565b6001600360008473ffffffffffffffffffffffffffffffffffffffff1673ffffffffffffffffffffffffffffffffffffffff168152602001908152602001600020600082825461285d91906140b2565b92505081905550816002600083815260200190815260200160002060006101000a81548173ffffffffffffffffffffffffffffffffffffffff021916908373ffffffffffffffffffffffffffffffffffffffff160217905550808273ffffffffffffffffffffffffffffffffffffffff16600073ffffffffffffffffffffffffffffffffffffffff167fddf252ad1be2c89b69c2b068fc378daa952ba7f163c4a11628f55a4df523b3ef60405160405180910390a461291e60008383612109565b5050565b600061292d82610cd7565b905061293b816000846120b1565b6129466000836113f8565b6001600360008373ffffffffffffffffffffffffffffffffffffffff1673ffffffffffffffffffffffffffffffffffffffff1681526020019081526020016000206000828254612996919061407e565b925050819055506002600083815260200190815260200160002060006101000a81549073ffffffffffffffffffffffffffffffffffffffff021916905581600073ffffffffffffffffffffffffffffffffffffffff168273ffffffffffffffffffffffffffffffffffffffff167fddf252ad1be2c89b69c2b068fc378daa952ba7f163c4a11628f55a4df523b3ef60405160405180910390a4612a3b81600084612109565b5050565b6000808273ffffffffffffffffffffffffffffffffffffffff163b119050919050565b606060008203612aa9576040518060400160405280600181526020017f30000000000000000000000000000000000000000000000000000000000000008152509050612bbd565b600082905060005b60008214612adb578080612ac490614791565b915050600a82612ad4919061377f565b9150612ab1565b60008167ffffffffffffffff811115612af757612af661306d565b5b6040519080825280601f01601f191660200182016040528015612b295781602001600182028036833780820191505090505b5090505b60008514612bb657600182612b42919061407e565b9150600a85612b5191906147d9565b6030612b5d91906140b2565b60f81b818381518110612b7357612b726145f5565b5b60200101907effffffffffffffffffffffffffffffffffffffffffffffffffffffffffffff1916908160001a905350600a85612baf919061377f565b9450612b2d565b8093505050505b919050565b508054612bce90613466565b6000825580601f10612be05750612bff565b601f016020900490600052602060002090810190612bfe9190612c02565b5b50565b5b80821115612c1b576000816000905550600101612c03565b5090565b6000604051905090565b600080fd5b600080fd5b60007fffffffff0000000000000000000000000000000000000000000000000000000082169050919050565b612c6881612c33565b8114612c7357600080fd5b50565b600081359050612c8581612c5f565b92915050565b600060208284031215612ca157612ca0612c29565b5b6000612caf84828501612c76565b91505092915050565b60008115159050919050565b612ccd81612cb8565b82525050565b6000602082019050612ce86000830184612cc4565b92915050565b600081519050919050565b600082825260208201905092915050565b60005b83811015612d28578082015181840152602081019050612d0d565b60008484015250505050565b6000601f19601f8301169050919050565b6000612d5082612cee565b612d5a8185612cf9565b9350612d6a818560208601612d0a565b612d7381612d34565b840191505092915050565b60006020820190508181036000830152612d988184612d45565b905092915050565b6000819050919050565b612db381612da0565b8114612dbe57600080fd5b50565b600081359050612dd081612daa565b92915050565b600060208284031215612dec57612deb612c29565b5b6000612dfa84828501612dc1565b91505092915050565b600073ffffffffffffffffffffffffffffffffffffffff82169050919050565b6000612e2e82612e03565b9050919050565b612e3e81612e23565b82525050565b6000602082019050612e596000830184612e35565b92915050565b612e6881612e23565b8114612e7357600080fd5b50565b600081359050612e8581612e5f565b92915050565b60008060408385031215612ea257612ea1612c29565b5b6000612eb085828601612e76565b9250506020612ec185828601612dc1565b9150509250929050565b600080600060608486031215612ee457612ee3612c29565b5b6000612ef286828701612e76565b9350506020612f0386828701612e76565b9250506040612f1486828701612dc1565b9150509250925092565b6000819050919050565b612f3181612f1e565b8114612f3c57600080fd5b50565b600081359050612f4e81612f28565b92915050565b600060208284031215612f6a57612f69612c29565b5b6000612f7884828501612f3f565b91505092915050565b612f8a81612f1e565b82525050565b6000602082019050612fa56000830184612f81565b92915050565b60008060408385031215612fc257612fc1612c29565b5b6000612fd085828601612dc1565b9250506020612fe185828601612dc1565b9150509250929050565b612ff481612da0565b82525050565b600060408201905061300f6000830185612e35565b61301c6020830184612feb565b9392505050565b6000806040838503121561303a57613039612c29565b5b600061304885828601612f3f565b925050602061305985828601612e76565b9150509250929050565b600080fd5b600080fd5b7f4e487b7100000000000000000000000000000000000000000000000000000000600052604160045260246000fd5b6130a582612d34565b810181811067ffffffffffffffff821117156130c4576130c361306d565b5b80604052505050565b60006130d7612c1f565b90506130e3828261309c565b919050565b600067ffffffffffffffff8211156131035761310261306d565b5b61310c82612d34565b9050602081019050919050565b82818337600083830152505050565b600061313b613136846130e8565b6130cd565b90508281526020810184848401111561315757613156613068565b5b613162848285613119565b509392505050565b600082601f83011261317f5761317e613063565b5b813561318f848260208601613128565b91505092915050565b6000602082840312156131ae576131ad612c29565b5b600082013567ffffffffffffffff8111156131cc576131cb612c2e565b5b6131d88482850161316a565b91505092915050565b60006020820190506131f66000830184612feb565b92915050565b60006020828403121561321257613211612c29565b5b600061322084828501612e76565b91505092915050565b61323281612cb8565b811461323d57600080fd5b50565b60008135905061324f81613229565b92915050565b6000806040838503121561326c5761326b612c29565b5b600061327a85828601612e76565b925050602061328b85828601613240565b9150509250929050565b600067ffffffffffffffff8211156132b0576132af61306d565b5b6132b982612d34565b9050602081019050919050565b60006132d96132d484613295565b6130cd565b9050828152602081018484840111156132f5576132f4613068565b5b613300848285613119565b509392505050565b600082601f83011261331d5761331c613063565b5b813561332d8482602086016132c6565b91505092915050565b600080600080608085870312156133505761334f612c29565b5b600061335e87828801612e76565b945050602061336f87828801612e76565b935050604061338087828801612dc1565b925050606085013567ffffffffffffffff8111156133a1576133a0612c2e565b5b6133ad87828801613308565b91505092959194509250565b60006060820190506133ce6000830186612feb565b6133db6020830185612e35565b81810360408301526133ed8184612d45565b9050949350505050565b6000806040838503121561340e5761340d612c29565b5b600061341c85828601612e76565b925050602061342d85828601612e76565b9150509250929050565b7f4e487b7100000000000000000000000000000000000000000000000000000000600052602260045260246000fd5b6000600282049050600182168061347e57607f821691505b60208210810361349157613490613437565b5b50919050565b7f4552433732313a20617070726f76656420717565727920666f72206e6f6e657860008201527f697374656e7420746f6b656e0000000000000000000000000000000000000000602082015250565b60006134f3602c83612cf9565b91506134fe82613497565b604082019050919050565b60006020820190508181036000830152613522816134e6565b9050919050565b7f4552433732313a20617070726f76616c20746f2063757272656e74206f776e6560008201527f7200000000000000000000000000000000000000000000000000000000000000602082015250565b6000613585602183612cf9565b915061359082613529565b604082019050919050565b600060208201905081810360008301526135b481613578565b9050919050565b7f4552433732313a20617070726f76652063616c6c6572206973206e6f74206f7760008201527f6e6572206e6f7220617070726f76656420666f7220616c6c0000000000000000602082015250565b6000613617603883612cf9565b9150613622826135bb565b604082019050919050565b600060208201905081810360008301526136468161360a565b9050919050565b7f4552433732313a207472616e736665722063616c6c6572206973206e6f74206f60008201527f776e6572206e6f7220617070726f766564000000000000000000000000000000602082015250565b60006136a9603183612cf9565b91506136b48261364d565b604082019050919050565b600060208201905081810360008301526136d88161369c565b9050919050565b7f4e487b7100000000000000000000000000000000000000000000000000000000600052601160045260246000fd5b600061371982612da0565b915061372483612da0565b925082820261373281612da0565b91508282048414831517613749576137486136df565b5b5092915050565b7f4e487b7100000000000000000000000000000000000000000000000000000000600052601260045260246000fd5b600061378a82612da0565b915061379583612da0565b9250826137a5576137a4613750565b5b828204905092915050565b7f416363657373436f6e74726f6c3a2063616e206f6e6c792072656e6f756e636560008201527f20726f6c657320666f722073656c660000000000000000000000000000000000602082015250565b600061380c602f83612cf9565b9150613817826137b0565b604082019050919050565b6000602082019050818103600083015261383b816137ff565b9050919050565b7f5061757361626c653a2070617573656400000000000000000000000000000000600082015250565b6000613878601083612cf9565b915061388382613842565b602082019050919050565b600060208201905081810360008301526138a78161386b565b9050919050565b7f426c6f636b4e6577734d65646961546f6b656e3a204e6f20546f6b656e20555260008201527f4920737570706c69656400000000000000000000000000000000000000000000602082015250565b600061390a602a83612cf9565b9150613915826138ae565b604082019050919050565b60006020820190508181036000830152613939816138fd565b9050919050565b60008190508160005260206000209050919050565b60006020601f8301049050919050565b600082821b905092915050565b6000600883026139a27fffffffffffffffffffffffffffffffffffffffffffffffffffffffffffffffff82613965565b6139ac8683613965565b95508019841693508086168417925050509392505050565b6000819050919050565b60006139e96139e46139df84612da0565b6139c4565b612da0565b9050919050565b6000819050919050565b613a03836139ce565b613a17613a0f826139f0565b848454613972565b825550505050565b600090565b613a2c613a1f565b613a378184846139fa565b505050565b5b81811015613a5b57613a50600082613a24565b600181019050613a3d565b5050565b601f821115613aa057613a7181613940565b613a7a84613955565b81016020851015613a89578190505b613a9d613a9585613955565b830182613a3c565b50505b505050565b600082821c905092915050565b6000613ac360001984600802613aa5565b1980831691505092915050565b6000613adc8383613ab2565b9150826002028217905092915050565b613af582612cee565b67ffffffffffffffff811115613b0e57613b0d61306d565b5b613b188254613466565b613b23828285613a5f565b600060209050601f831160018114613b565760008415613b44578287015190505b613b4e8582613ad0565b865550613bb6565b601f198416613b6486613940565b60005b82811015613b8c57848901518255600182019150602085019450602081019050613b67565b86831015613ba95784890151613ba5601f891682613ab2565b8355505b6001600288020188555050505b505050505050565b6000604082019050613bd36000830185612e35565b8181036020830152613be58184612d45565b90509392505050565b7f4552433732314275726e61626c653a2063616c6c6572206973206e6f74206f7760008201527f6e6572206e6f7220617070726f76656400000000000000000000000000000000602082015250565b6000613c4a603083612cf9565b9150613c5582613bee565b604082019050919050565b60006020820190508181036000830152613c7981613c3d565b9050919050565b7f4552433732313a206f776e657220717565727920666f72206e6f6e657869737460008201527f656e7420746f6b656e0000000000000000000000000000000000000000000000602082015250565b6000613cdc602983612cf9565b9150613ce782613c80565b604082019050919050565b60006020820190508181036000830152613d0b81613ccf565b9050919050565b7f4552433732313a2062616c616e636520717565727920666f7220746865207a6560008201527f726f206164647265737300000000000000000000000000000000000000000000602082015250565b6000613d6e602a83612cf9565b9150613d7982613d12565b604082019050919050565b60006020820190508181036000830152613d9d81613d61565b9050919050565b7f4552433732314d657461646174613a2055524920717565727920666f72206e6f60008201527f6e6578697374656e7420746f6b656e0000000000000000000000000000000000602082015250565b6000613e00602f83612cf9565b9150613e0b82613da4565b604082019050919050565b60006020820190508181036000830152613e2f81613df3565b9050919050565b7f426c6f636b4e6577734d65646961546f6b656e3a204275726e20666f72206e6f60008201527f6e6578697374656e7420746f6b656e0000000000000000000000000000000000602082015250565b6000613e92602f83612cf9565b9150613e9d82613e36565b604082019050919050565b60006020820190508181036000830152613ec181613e85565b9050919050565b7f4552433732313a206f70657261746f7220717565727920666f72206e6f6e657860008201527f697374656e7420746f6b656e0000000000000000000000000000000000000000602082015250565b6000613f24602c83612cf9565b9150613f2f82613ec8565b604082019050919050565b60006020820190508181036000830152613f5381613f17565b9050919050565b7f4552433732313a207472616e736665722066726f6d20696e636f72726563742060008201527f6f776e6572000000000000000000000000000000000000000000000000000000602082015250565b6000613fb6602583612cf9565b9150613fc182613f5a565b604082019050919050565b60006020820190508181036000830152613fe581613fa9565b9050919050565b7f4552433732313a207472616e7366657220746f20746865207a65726f2061646460008201527f7265737300000000000000000000000000000000000000000000000000000000602082015250565b6000614048602483612cf9565b915061405382613fec565b604082019050919050565b600060208201905081810360008301526140778161403b565b9050919050565b600061408982612da0565b915061409483612da0565b92508282039050818111156140ac576140ab6136df565b5b92915050565b60006140bd82612da0565b91506140c883612da0565b92508282019050808211156140e0576140df6136df565b5b92915050565b7f45524337323155524953746f726167653a2055524920736574206f66206e6f6e60008201527f6578697374656e7420746f6b656e000000000000000000000000000000000000602082015250565b6000614142602e83612cf9565b915061414d826140e6565b604082019050919050565b6000602082019050818103600083015261417181614135565b9050919050565b7f5061757361626c653a206e6f7420706175736564000000000000000000000000600082015250565b60006141ae601483612cf9565b91506141b982614178565b602082019050919050565b600060208201905081810360008301526141dd816141a1565b9050919050565b7f45524332393831526f79616c746965733a20546f6f2068696768000000000000600082015250565b600061421a601a83612cf9565b9150614225826141e4565b602082019050919050565b600060208201905081810360008301526142498161420d565b9050919050565b7f4552433732313a20617070726f766520746f2063616c6c657200000000000000600082015250565b6000614286601983612cf9565b915061429182614250565b602082019050919050565b600060208201905081810360008301526142b581614279565b9050919050565b7f4552433732313a207472616e7366657220746f206e6f6e20455243373231526560008201527f63656976657220696d706c656d656e7465720000000000000000000000000000602082015250565b6000614318603283612cf9565b9150614323826142bc565b604082019050919050565b600060208201905081810360008301526143478161430b565b9050919050565b7f45524337323155524953746f726167653a2055524920717565727920666f722060008201527f6e6f6e6578697374656e7420746f6b656e000000000000000000000000000000602082015250565b60006143aa603183612cf9565b91506143b58261434e565b604082019050919050565b600060208201905081810360008301526143d98161439d565b9050919050565b600081905092915050565b60006143f682612cee565b61440081856143e0565b9350614410818560208601612d0a565b80840191505092915050565b600061442882856143eb565b915061443482846143eb565b91508190509392505050565b7f416363657373436f6e74726f6c3a206163636f756e7420000000000000000000600082015250565b60006144766017836143e0565b915061448182614440565b601782019050919050565b7f206973206d697373696e6720726f6c6520000000000000000000000000000000600082015250565b60006144c26011836143e0565b91506144cd8261448c565b601182019050919050565b60006144e382614469565b91506144ef82856143eb565b91506144fa826144b5565b915061450682846143eb565b91508190509392505050565b600081519050919050565b600082825260208201905092915050565b600061453982614512565b614543818561451d565b9350614553818560208601612d0a565b61455c81612d34565b840191505092915050565b600060808201905061457c6000830187612e35565b6145896020830186612e35565b6145966040830185612feb565b81810360608301526145a8818461452e565b905095945050505050565b6000815190506145c281612c5f565b92915050565b6000602082840312156145de576145dd612c29565b5b60006145ec848285016145b3565b91505092915050565b7f4e487b7100000000000000000000000000000000000000000000000000000000600052603260045260246000fd5b600061462f82612da0565b915060008203614642576146416136df565b5b600182039050919050565b7f537472696e67733a20686578206c656e67746820696e73756666696369656e74600082015250565b6000614683602083612cf9565b915061468e8261464d565b602082019050919050565b600060208201905081810360008301526146b281614676565b9050919050565b7f4552433732313a206d696e7420746f20746865207a65726f2061646472657373600082015250565b60006146ef602083612cf9565b91506146fa826146b9565b602082019050919050565b6000602082019050818103600083015261471e816146e2565b9050919050565b7f4552433732313a20746f6b656e20616c7265616479206d696e74656400000000600082015250565b600061475b601c83612cf9565b915061476682614725565b602082019050919050565b6000602082019050818103600083015261478a8161474e565b9050919050565b600061479c82612da0565b91507fffffffffffffffffffffffffffffffffffffffffffffffffffffffffffffffff82036147ce576147cd6136df565b5b600182019050919050565b60006147e482612da0565b91506147ef83612da0565b9250826147ff576147fe613750565b5b82820690509291505056fea2646970667358221220ca7e7d54696647200b18d91ec39e2fa53473f8a8660baef8fa22970293d885f964736f6c63430008110033",
  "linkReferences": {},
  "deployedLinkReferences": {}
}