{
  "_format": "hh-sol-artifact-1",
  "contractName": "FractionalizedNFT",
  "sourceName": "contracts/BlockNewsMediaFractionalizeNFTs.sol",
  "abi": [
    {
      "inputs": [
        {
          "internalType": "string",
          "name": "_fractionalizeName",
          "type": "string"
        },
        {
          "internalType": "string",
          "name": "_fractionalizeSymbol",
          "type": "string"
        }
      ],
      "stateMutability": "nonpayable",
      "type": "constructor"
    },
    {
      "anonymous": false,
      "inputs": [
        {
          "indexed": true,
          "internalType": "address",
          "name": "owner",
          "type": "address"
        },
        {
          "indexed": true,
          "internalType": "address",
          "name": "spender",
          "type": "address"
        },
        {
          "indexed": false,
          "internalType": "uint256",
          "name": "value",
          "type": "uint256"
        }
      ],
      "name": "Approval",
      "type": "event"
    },
    {
      "anonymous": false,
      "inputs": [
        {
          "indexed": true,
          "internalType": "address",
          "name": "previousOwner",
          "type": "address"
        },
        {
          "indexed": true,
          "internalType": "address",
          "name": "newOwner",
          "type": "address"
        }
      ],
      "name": "OwnershipTransferred",
      "type": "event"
    },
    {
      "anonymous": false,
      "inputs": [
        {
          "indexed": true,
          "internalType": "address",
          "name": "from",
          "type": "address"
        },
        {
          "indexed": true,
          "internalType": "address",
          "name": "to",
          "type": "address"
        },
        {
          "indexed": false,
          "internalType": "uint256",
          "name": "value",
          "type": "uint256"
        }
      ],
      "name": "Transfer",
      "type": "event"
    },
    {
      "inputs": [],
      "name": "DOMAIN_SEPARATOR",
      "outputs": [
        {
          "internalType": "bytes32",
          "name": "",
          "type": "bytes32"
        }
      ],
      "stateMutability": "view",
      "type": "function"
    },
    {
      "inputs": [
        {
          "internalType": "address",
          "name": "owner",
          "type": "address"
        },
        {
          "internalType": "address",
          "name": "spender",
          "type": "address"
        }
      ],
      "name": "allowance",
      "outputs": [
        {
          "internalType": "uint256",
          "name": "",
          "type": "uint256"
        }
      ],
      "stateMutability": "view",
      "type": "function"
    },
    {
      "inputs": [
        {
          "internalType": "address",
          "name": "spender",
          "type": "address"
        },
        {
          "internalType": "uint256",
          "name": "amount",
          "type": "uint256"
        }
      ],
      "name": "approve",
      "outputs": [
        {
          "internalType": "bool",
          "name": "",
          "type": "bool"
        }
      ],
      "stateMutability": "nonpayable",
      "type": "function"
    },
    {
      "inputs": [
        {
          "internalType": "address",
          "name": "account",
          "type": "address"
        }
      ],
      "name": "balanceOf",
      "outputs": [
        {
          "internalType": "uint256",
          "name": "",
          "type": "uint256"
        }
      ],
      "stateMutability": "view",
      "type": "function"
    },
    {
      "inputs": [],
      "name": "canRedeem",
      "outputs": [
        {
          "internalType": "bool",
          "name": "",
          "type": "bool"
        }
      ],
      "stateMutability": "view",
      "type": "function"
    },
    {
      "inputs": [],
      "name": "collection",
      "outputs": [
        {
          "internalType": "contract IERC721",
          "name": "",
          "type": "address"
        }
      ],
      "stateMutability": "view",
      "type": "function"
    },
    {
      "inputs": [],
      "name": "decimals",
      "outputs": [
        {
          "internalType": "uint8",
          "name": "",
          "type": "uint8"
        }
      ],
      "stateMutability": "view",
      "type": "function"
    },
    {
      "inputs": [
        {
          "internalType": "address",
          "name": "spender",
          "type": "address"
        },
        {
          "internalType": "uint256",
          "name": "subtractedValue",
          "type": "uint256"
        }
      ],
      "name": "decreaseAllowance",
      "outputs": [
        {
          "internalType": "bool",
          "name": "",
          "type": "bool"
        }
      ],
      "stateMutability": "nonpayable",
      "type": "function"
    },
    {
      "inputs": [],
      "name": "forSale",
      "outputs": [
        {
          "internalType": "bool",
          "name": "",
          "type": "bool"
        }
      ],
      "stateMutability": "view",
      "type": "function"
    },
    {
      "inputs": [],
      "name": "fractionalizeName",
      "outputs": [
        {
          "internalType": "string",
          "name": "",
          "type": "string"
        }
      ],
      "stateMutability": "view",
      "type": "function"
    },
    {
      "inputs": [],
      "name": "fractionalizeSymbol",
      "outputs": [
        {
          "internalType": "string",
          "name": "",
          "type": "string"
        }
      ],
      "stateMutability": "view",
      "type": "function"
    },
    {
      "inputs": [
        {
          "internalType": "address",
          "name": "spender",
          "type": "address"
        },
        {
          "internalType": "uint256",
          "name": "addedValue",
          "type": "uint256"
        }
      ],
      "name": "increaseAllowance",
      "outputs": [
        {
          "internalType": "bool",
          "name": "",
          "type": "bool"
        }
      ],
      "stateMutability": "nonpayable",
      "type": "function"
    },
    {
      "inputs": [
        {
          "internalType": "address",
          "name": "_collection",
          "type": "address"
        },
        {
          "internalType": "uint256",
          "name": "_tokenId",
          "type": "uint256"
        },
        {
          "internalType": "uint256",
          "name": "_amount",
          "type": "uint256"
        }
      ],
      "name": "initialize",
      "outputs": [],
      "stateMutability": "nonpayable",
      "type": "function"
    },
    {
      "inputs": [],
      "name": "initialized",
      "outputs": [
        {
          "internalType": "bool",
          "name": "",
          "type": "bool"
        }
      ],
      "stateMutability": "view",
      "type": "function"
    },
    {
      "inputs": [],
      "name": "name",
      "outputs": [
        {
          "internalType": "string",
          "name": "",
          "type": "string"
        }
      ],
      "stateMutability": "view",
      "type": "function"
    },
    {
      "inputs": [
        {
          "internalType": "address",
          "name": "owner",
          "type": "address"
        }
      ],
      "name": "nonces",
      "outputs": [
        {
          "internalType": "uint256",
          "name": "",
          "type": "uint256"
        }
      ],
      "stateMutability": "view",
      "type": "function"
    },
    {
      "inputs": [
        {
          "internalType": "address",
          "name": "",
          "type": "address"
        },
        {
          "internalType": "address",
          "name": "",
          "type": "address"
        },
        {
          "internalType": "uint256",
          "name": "",
          "type": "uint256"
        },
        {
          "internalType": "bytes",
          "name": "",
          "type": "bytes"
        }
      ],
      "name": "onERC721Received",
      "outputs": [
        {
          "internalType": "bytes4",
          "name": "",
          "type": "bytes4"
        }
      ],
      "stateMutability": "nonpayable",
      "type": "function"
    },
    {
      "inputs": [],
      "name": "owner",
      "outputs": [
        {
          "internalType": "address",
          "name": "",
          "type": "address"
        }
      ],
      "stateMutability": "view",
      "type": "function"
    },
    {
      "inputs": [
        {
          "internalType": "address",
          "name": "owner",
          "type": "address"
        },
        {
          "internalType": "address",
          "name": "spender",
          "type": "address"
        },
        {
          "internalType": "uint256",
          "name": "value",
          "type": "uint256"
        },
        {
          "internalType": "uint256",
          "name": "deadline",
          "type": "uint256"
        },
        {
          "internalType": "uint8",
          "name": "v",
          "type": "uint8"
        },
        {
          "internalType": "bytes32",
          "name": "r",
          "type": "bytes32"
        },
        {
          "internalType": "bytes32",
          "name": "s",
          "type": "bytes32"
        }
      ],
      "name": "permit",
      "outputs": [],
      "stateMutability": "nonpayable",
      "type": "function"
    },
    {
      "inputs": [],
      "name": "purchase",
      "outputs": [],
      "stateMutability": "payable",
      "type": "function"
    },
    {
      "inputs": [
        {
          "internalType": "uint256",
          "name": "price",
          "type": "uint256"
        }
      ],
      "name": "putForSale",
      "outputs": [],
      "stateMutability": "nonpayable",
      "type": "function"
    },
    {
      "inputs": [
        {
          "internalType": "uint256",
          "name": "_amount",
          "type": "uint256"
        }
      ],
      "name": "redeem",
      "outputs": [],
      "stateMutability": "nonpayable",
      "type": "function"
    },
    {
      "inputs": [],
      "name": "renounceOwnership",
      "outputs": [],
      "stateMutability": "nonpayable",
      "type": "function"
    },
    {
      "inputs": [],
      "name": "salePrice",
      "outputs": [
        {
          "internalType": "uint256",
          "name": "",
          "type": "uint256"
        }
      ],
      "stateMutability": "view",
      "type": "function"
    },
    {
      "inputs": [],
      "name": "symbol",
      "outputs": [
        {
          "internalType": "string",
          "name": "",
          "type": "string"
        }
      ],
      "stateMutability": "view",
      "type": "function"
    },
    {
      "inputs": [],
      "name": "tokenId",
      "outputs": [
        {
          "internalType": "uint256",
          "name": "",
          "type": "uint256"
        }
      ],
      "stateMutability": "view",
      "type": "function"
    },
    {
      "inputs": [],
      "name": "totalSupply",
      "outputs": [
        {
          "internalType": "uint256",
          "name": "",
          "type": "uint256"
        }
      ],
      "stateMutability": "view",
      "type": "function"
    },
    {
      "inputs": [
        {
          "internalType": "address",
          "name": "to",
          "type": "address"
        },
        {
          "internalType": "uint256",
          "name": "amount",
          "type": "uint256"
        }
      ],
      "name": "transfer",
      "outputs": [
        {
          "internalType": "bool",
          "name": "",
          "type": "bool"
        }
      ],
      "stateMutability": "nonpayable",
      "type": "function"
    },
    {
      "inputs": [
        {
          "internalType": "address",
          "name": "from",
          "type": "address"
        },
        {
          "internalType": "address",
          "name": "to",
          "type": "address"
        },
        {
          "internalType": "uint256",
          "name": "amount",
          "type": "uint256"
        }
      ],
      "name": "transferFrom",
      "outputs": [
        {
          "internalType": "bool",
          "name": "",
          "type": "bool"
        }
      ],
      "stateMutability": "nonpayable",
      "type": "function"
    },
    {
      "inputs": [
        {
          "internalType": "address",
          "name": "newOwner",
          "type": "address"
        }
      ],
      "name": "transferOwnership",
      "outputs": [],
      "stateMutability": "nonpayable",
      "type": "function"
    }
  ],
  "bytecode": "0x6101406040526000600a60006101000a81548160ff0219169083151502179055506000600a60016101000a81548160ff0219169083151502179055506000600c60006101000a81548160ff0219169083151502179055503480156200006357600080fd5b506040516200421038038062004210833981810160405281019062000089919062000485565b81806040518060400160405280600181526020017f310000000000000000000000000000000000000000000000000000000000000081525084848160039081620000d4919062000755565b508060049081620000e6919062000755565b50505062000109620000fd620001e860201b60201c565b620001f060201b60201c565b60008280519060200120905060008280519060200120905060007f8b73c3c69bb8fe3d512ecc4cf759cc79239f7b179b0ffacaa9a75d522b39400f90508260e081815250508161010081815250504660a0818152505062000172818484620002b660201b60201c565b608081815250503073ffffffffffffffffffffffffffffffffffffffff1660c08173ffffffffffffffffffffffffffffffffffffffff168152505080610120818152505050505050505081600d9081620001cd919062000755565b5080600e9081620001df919062000755565b5050506200090a565b600033905090565b6000600560009054906101000a900473ffffffffffffffffffffffffffffffffffffffff16905081600560006101000a81548173ffffffffffffffffffffffffffffffffffffffff021916908373ffffffffffffffffffffffffffffffffffffffff1602179055508173ffffffffffffffffffffffffffffffffffffffff168173ffffffffffffffffffffffffffffffffffffffff167f8be0079c531659141344cd1fd0a4f28419497f9722a3daafe3b4186f6b6457e060405160405180910390a35050565b60008383834630604051602001620002d3959493929190620008ad565b6040516020818303038152906040528051906020012090509392505050565b6000604051905090565b600080fd5b600080fd5b600080fd5b600080fd5b6000601f19601f8301169050919050565b7f4e487b7100000000000000000000000000000000000000000000000000000000600052604160045260246000fd5b6200035b8262000310565b810181811067ffffffffffffffff821117156200037d576200037c62000321565b5b80604052505050565b600062000392620002f2565b9050620003a0828262000350565b919050565b600067ffffffffffffffff821115620003c357620003c262000321565b5b620003ce8262000310565b9050602081019050919050565b60005b83811015620003fb578082015181840152602081019050620003de565b60008484015250505050565b60006200041e6200041884620003a5565b62000386565b9050828152602081018484840111156200043d576200043c6200030b565b5b6200044a848285620003db565b509392505050565b600082601f8301126200046a576200046962000306565b5b81516200047c84826020860162000407565b91505092915050565b600080604083850312156200049f576200049e620002fc565b5b600083015167ffffffffffffffff811115620004c057620004bf62000301565b5b620004ce8582860162000452565b925050602083015167ffffffffffffffff811115620004f257620004f162000301565b5b620005008582860162000452565b9150509250929050565b600081519050919050565b7f4e487b7100000000000000000000000000000000000000000000000000000000600052602260045260246000fd5b600060028204905060018216806200055d57607f821691505b60208210810362000573576200057262000515565b5b50919050565b60008190508160005260206000209050919050565b60006020601f8301049050919050565b600082821b905092915050565b600060088302620005dd7fffffffffffffffffffffffffffffffffffffffffffffffffffffffffffffffff826200059e565b620005e986836200059e565b95508019841693508086168417925050509392505050565b6000819050919050565b6000819050919050565b600062000636620006306200062a8462000601565b6200060b565b62000601565b9050919050565b6000819050919050565b620006528362000615565b6200066a62000661826200063d565b848454620005ab565b825550505050565b600090565b6200068162000672565b6200068e81848462000647565b505050565b5b81811015620006b657620006aa60008262000677565b60018101905062000694565b5050565b601f8211156200070557620006cf8162000579565b620006da846200058e565b81016020851015620006ea578190505b62000702620006f9856200058e565b83018262000693565b50505b505050565b600082821c905092915050565b60006200072a600019846008026200070a565b1980831691505092915050565b600062000745838362000717565b9150826002028217905092915050565b62000760826200050a565b67ffffffffffffffff8111156200077c576200077b62000321565b5b62000788825462000544565b62000795828285620006ba565b600060209050601f831160018114620007cd5760008415620007b8578287015190505b620007c4858262000737565b86555062000834565b601f198416620007dd8662000579565b60005b828110156200080757848901518255600182019150602085019450602081019050620007e0565b8683101562000827578489015162000823601f89168262000717565b8355505b6001600288020188555050505b505050505050565b6000819050919050565b62000851816200083c565b82525050565b620008628162000601565b82525050565b600073ffffffffffffffffffffffffffffffffffffffff82169050919050565b6000620008958262000868565b9050919050565b620008a78162000888565b82525050565b600060a082019050620008c4600083018862000846565b620008d3602083018762000846565b620008e2604083018662000846565b620008f1606083018562000857565b6200090060808301846200089c565b9695505050505050565b60805160a05160c05160e05161010051610120516138b66200095a60003960006119b5015260006119f7015260006119d60152600061190b015260006119610152600061198a01526138b66000f3fe6080604052600436106101cd5760003560e01c8063715018a6116100f7578063a9059cbb11610095578063f17fe8a011610064578063f17fe8a014610695578063f2fde38b146106c0578063f51f96dd146106e9578063f97ed50914610714576101cd565b8063a9059cbb146105c9578063d505accf14610606578063db006a751461062f578063dd62ed3e14610658576101cd565b80637ecebe00116100d15780637ecebe00146104f95780638da5cb5b1461053657806395d89b4114610561578063a457c2d71461058c576101cd565b8063715018a61461048e5780637a1ac61e146104a55780637de1e536146104ce576101cd565b80631f078ced1161016f578063395093511161013e57806339509351146103df578063466ccac01461041c57806364edfbf01461044757806370a0823114610451576101cd565b80631f078ced1461032357806323b872dd1461034c578063313ce567146103895780633644e515146103b4576101cd565b8063150b7a02116101ab578063150b7a0214610265578063158ef93e146102a257806317d70f7c146102cd57806318160ddd146102f8576101cd565b806306fdde03146101d2578063075217bb146101fd578063095ea7b314610228575b600080fd5b3480156101de57600080fd5b506101e761073f565b6040516101f491906122c2565b60405180910390f35b34801561020957600080fd5b506102126107d1565b60405161021f91906122c2565b60405180910390f35b34801561023457600080fd5b5061024f600480360381019061024a919061238c565b61085f565b60405161025c91906123e7565b60405180910390f35b34801561027157600080fd5b5061028c60048036038101906102879190612537565b610882565b60405161029991906125f5565b60405180910390f35b3480156102ae57600080fd5b506102b7610896565b6040516102c491906123e7565b60405180910390f35b3480156102d957600080fd5b506102e26108a9565b6040516102ef919061261f565b60405180910390f35b34801561030457600080fd5b5061030d6108af565b60405161031a919061261f565b60405180910390f35b34801561032f57600080fd5b5061034a6004803603810190610345919061263a565b6108b9565b005b34801561035857600080fd5b50610373600480360381019061036e9190612667565b61095a565b60405161038091906123e7565b60405180910390f35b34801561039557600080fd5b5061039e610989565b6040516103ab91906126d6565b60405180910390f35b3480156103c057600080fd5b506103c9610992565b6040516103d6919061270a565b60405180910390f35b3480156103eb57600080fd5b506104066004803603810190610401919061238c565b6109a1565b60405161041391906123e7565b60405180910390f35b34801561042857600080fd5b506104316109d8565b60405161043e91906123e7565b60405180910390f35b61044f6109eb565b005b34801561045d57600080fd5b5061047860048036038101906104739190612725565b610b4a565b604051610485919061261f565b60405180910390f35b34801561049a57600080fd5b506104a3610b92565b005b3480156104b157600080fd5b506104cc60048036038101906104c79190612752565b610c1a565b005b3480156104da57600080fd5b506104e3610e2c565b6040516104f09190612804565b60405180910390f35b34801561050557600080fd5b50610520600480360381019061051b9190612725565b610e52565b60405161052d919061261f565b60405180910390f35b34801561054257600080fd5b5061054b610ea2565b604051610558919061282e565b60405180910390f35b34801561056d57600080fd5b50610576610ecc565b60405161058391906122c2565b60405180910390f35b34801561059857600080fd5b506105b360048036038101906105ae919061238c565b610f5e565b6040516105c091906123e7565b60405180910390f35b3480156105d557600080fd5b506105f060048036038101906105eb919061238c565b610fd5565b6040516105fd91906123e7565b60405180910390f35b34801561061257600080fd5b5061062d600480360381019061062891906128a1565b610ff8565b005b34801561063b57600080fd5b506106566004803603810190610651919061263a565b61113a565b005b34801561066457600080fd5b5061067f600480360381019061067a9190612943565b611206565b60405161068c919061261f565b60405180910390f35b3480156106a157600080fd5b506106aa61128d565b6040516106b791906122c2565b60405180910390f35b3480156106cc57600080fd5b506106e760048036038101906106e29190612725565b61131b565b005b3480156106f557600080fd5b506106fe611412565b60405161070b919061261f565b60405180910390f35b34801561072057600080fd5b50610729611418565b60405161073691906123e7565b60405180910390f35b60606003805461074e906129b2565b80601f016020809104026020016040519081016040528092919081815260200182805461077a906129b2565b80156107c75780601f1061079c576101008083540402835291602001916107c7565b820191906000526020600020905b8154815290600101906020018083116107aa57829003601f168201915b5050505050905090565b600e80546107de906129b2565b80601f016020809104026020016040519081016040528092919081815260200182805461080a906129b2565b80156108575780601f1061082c57610100808354040283529160200191610857565b820191906000526020600020905b81548152906001019060200180831161083a57829003601f168201915b505050505081565b60008061086a61142b565b9050610877818585611433565b600191505092915050565b600063150b7a0260e01b9050949350505050565b600a60009054906101000a900460ff1681565b60095481565b6000600254905090565b6108c161142b565b73ffffffffffffffffffffffffffffffffffffffff166108df610ea2565b73ffffffffffffffffffffffffffffffffffffffff1614610935576040517f08c379a000000000000000000000000000000000000000000000000000000000815260040161092c90612a2f565b60405180910390fd5b80600b819055506001600a60016101000a81548160ff02191690831515021790555050565b60008061096561142b565b90506109728582856115fc565b61097d858585611688565b60019150509392505050565b60006012905090565b600061099c611907565b905090565b6000806109ac61142b565b90506109cd8185856109be8589611206565b6109c89190612a7e565b611433565b600191505092915050565b600a60019054906101000a900460ff1681565b600a60019054906101000a900460ff16610a3a576040517f08c379a0000000000000000000000000000000000000000000000000000000008152600401610a3190612afe565b60405180910390fd5b600b54341015610a7f576040517f08c379a0000000000000000000000000000000000000000000000000000000008152600401610a7690612b6a565b60405180910390fd5b600860009054906101000a900473ffffffffffffffffffffffffffffffffffffffff1673ffffffffffffffffffffffffffffffffffffffff166323b872dd30336009546040518463ffffffff1660e01b8152600401610ae093929190612b8a565b600060405180830381600087803b158015610afa57600080fd5b505af1158015610b0e573d6000803e3d6000fd5b505050506000600a60016101000a81548160ff0219169083151502179055506001600c60006101000a81548160ff021916908315150217905550565b60008060008373ffffffffffffffffffffffffffffffffffffffff1673ffffffffffffffffffffffffffffffffffffffff168152602001908152602001600020549050919050565b610b9a61142b565b73ffffffffffffffffffffffffffffffffffffffff16610bb8610ea2565b73ffffffffffffffffffffffffffffffffffffffff1614610c0e576040517f08c379a0000000000000000000000000000000000000000000000000000000008152600401610c0590612a2f565b60405180910390fd5b610c186000611a21565b565b610c2261142b565b73ffffffffffffffffffffffffffffffffffffffff16610c40610ea2565b73ffffffffffffffffffffffffffffffffffffffff1614610c96576040517f08c379a0000000000000000000000000000000000000000000000000000000008152600401610c8d90612a2f565b60405180910390fd5b600a60009054906101000a900460ff1615610ce6576040517f08c379a0000000000000000000000000000000000000000000000000000000008152600401610cdd90612c0d565b60405180910390fd5b60008111610d29576040517f08c379a0000000000000000000000000000000000000000000000000000000008152600401610d2090612c79565b60405180910390fd5b82600860006101000a81548173ffffffffffffffffffffffffffffffffffffffff021916908373ffffffffffffffffffffffffffffffffffffffff160217905550600860009054906101000a900473ffffffffffffffffffffffffffffffffffffffff1673ffffffffffffffffffffffffffffffffffffffff166342842e0e3330856040518463ffffffff1660e01b8152600401610dc993929190612b8a565b600060405180830381600087803b158015610de357600080fd5b505af1158015610df7573d6000803e3d6000fd5b50505050816009819055506001600a60006101000a81548160ff021916908315150217905550610e273382611ae7565b505050565b600860009054906101000a900473ffffffffffffffffffffffffffffffffffffffff1681565b6000610e9b600660008473ffffffffffffffffffffffffffffffffffffffff1673ffffffffffffffffffffffffffffffffffffffff168152602001908152602001600020611c46565b9050919050565b6000600560009054906101000a900473ffffffffffffffffffffffffffffffffffffffff16905090565b606060048054610edb906129b2565b80601f0160208091040260200160405190810160405280929190818152602001828054610f07906129b2565b8015610f545780601f10610f2957610100808354040283529160200191610f54565b820191906000526020600020905b815481529060010190602001808311610f3757829003601f168201915b5050505050905090565b600080610f6961142b565b90506000610f778286611206565b905083811015610fbc576040517f08c379a0000000000000000000000000000000000000000000000000000000008152600401610fb390612d0b565b60405180910390fd5b610fc98286868403611433565b60019250505092915050565b600080610fe061142b565b9050610fed818585611688565b600191505092915050565b8342111561103b576040517f08c379a000000000000000000000000000000000000000000000000000000000815260040161103290612d77565b60405180910390fd5b60007f6e71edae12b1b97f4d1f60370fef10105fa2faae0126114a169c64845d6126c988888861106a8c611c54565b8960405160200161108096959493929190612d97565b60405160208183030381529060405280519060200120905060006110a382611cb2565b905060006110b382878787611ccc565b90508973ffffffffffffffffffffffffffffffffffffffff168173ffffffffffffffffffffffffffffffffffffffff1614611123576040517f08c379a000000000000000000000000000000000000000000000000000000000815260040161111a90612e44565b60405180910390fd5b61112e8a8a8a611433565b50505050505050505050565b600c60009054906101000a900460ff16611189576040517f08c379a000000000000000000000000000000000000000000000000000000000815260040161118090612eb0565b60405180910390fd5b600047905060006111986108af565b82846111a49190612ed0565b6111ae9190612f41565b90506111ba3384611cf7565b3373ffffffffffffffffffffffffffffffffffffffff166108fc829081150290604051600060405180830381858888f19350505050158015611200573d6000803e3d6000fd5b50505050565b6000600160008473ffffffffffffffffffffffffffffffffffffffff1673ffffffffffffffffffffffffffffffffffffffff16815260200190815260200160002060008373ffffffffffffffffffffffffffffffffffffffff1673ffffffffffffffffffffffffffffffffffffffff16815260200190815260200160002054905092915050565b600d805461129a906129b2565b80601f01602080910402602001604051908101604052809291908181526020018280546112c6906129b2565b80156113135780601f106112e857610100808354040283529160200191611313565b820191906000526020600020905b8154815290600101906020018083116112f657829003601f168201915b505050505081565b61132361142b565b73ffffffffffffffffffffffffffffffffffffffff16611341610ea2565b73ffffffffffffffffffffffffffffffffffffffff1614611397576040517f08c379a000000000000000000000000000000000000000000000000000000000815260040161138e90612a2f565b60405180910390fd5b600073ffffffffffffffffffffffffffffffffffffffff168173ffffffffffffffffffffffffffffffffffffffff1603611406576040517f08c379a00000000000000000000000000000000000000000000000000000000081526004016113fd90612fe4565b60405180910390fd5b61140f81611a21565b50565b600b5481565b600c60009054906101000a900460ff1681565b600033905090565b600073ffffffffffffffffffffffffffffffffffffffff168373ffffffffffffffffffffffffffffffffffffffff16036114a2576040517f08c379a000000000000000000000000000000000000000000000000000000000815260040161149990613076565b60405180910390fd5b600073ffffffffffffffffffffffffffffffffffffffff168273ffffffffffffffffffffffffffffffffffffffff1603611511576040517f08c379a000000000000000000000000000000000000000000000000000000000815260040161150890613108565b60405180910390fd5b80600160008573ffffffffffffffffffffffffffffffffffffffff1673ffffffffffffffffffffffffffffffffffffffff16815260200190815260200160002060008473ffffffffffffffffffffffffffffffffffffffff1673ffffffffffffffffffffffffffffffffffffffff168152602001908152602001600020819055508173ffffffffffffffffffffffffffffffffffffffff168373ffffffffffffffffffffffffffffffffffffffff167f8c5be1e5ebec7d5bd14f71427d1e84f3dd0314c0f7b2291e5b200ac8c7c3b925836040516115ef919061261f565b60405180910390a3505050565b60006116088484611206565b90507fffffffffffffffffffffffffffffffffffffffffffffffffffffffffffffffff81146116825781811015611674576040517f08c379a000000000000000000000000000000000000000000000000000000000815260040161166b90613174565b60405180910390fd5b6116818484848403611433565b5b50505050565b600073ffffffffffffffffffffffffffffffffffffffff168373ffffffffffffffffffffffffffffffffffffffff16036116f7576040517f08c379a00000000000000000000000000000000000000000000000000000000081526004016116ee90613206565b60405180910390fd5b600073ffffffffffffffffffffffffffffffffffffffff168273ffffffffffffffffffffffffffffffffffffffff1603611766576040517f08c379a000000000000000000000000000000000000000000000000000000000815260040161175d90613298565b60405180910390fd5b611771838383611ecd565b60008060008573ffffffffffffffffffffffffffffffffffffffff1673ffffffffffffffffffffffffffffffffffffffff168152602001908152602001600020549050818110156117f7576040517f08c379a00000000000000000000000000000000000000000000000000000000081526004016117ee9061332a565b60405180910390fd5b8181036000808673ffffffffffffffffffffffffffffffffffffffff1673ffffffffffffffffffffffffffffffffffffffff16815260200190815260200160002081905550816000808573ffffffffffffffffffffffffffffffffffffffff1673ffffffffffffffffffffffffffffffffffffffff168152602001908152602001600020600082825461188a9190612a7e565b925050819055508273ffffffffffffffffffffffffffffffffffffffff168473ffffffffffffffffffffffffffffffffffffffff167fddf252ad1be2c89b69c2b068fc378daa952ba7f163c4a11628f55a4df523b3ef846040516118ee919061261f565b60405180910390a3611901848484611ed2565b50505050565b60007f000000000000000000000000000000000000000000000000000000000000000073ffffffffffffffffffffffffffffffffffffffff163073ffffffffffffffffffffffffffffffffffffffff1614801561198357507f000000000000000000000000000000000000000000000000000000000000000046145b156119b0577f00000000000000000000000000000000000000000000000000000000000000009050611a1e565b611a1b7f00000000000000000000000000000000000000000000000000000000000000007f00000000000000000000000000000000000000000000000000000000000000007f0000000000000000000000000000000000000000000000000000000000000000611ed7565b90505b90565b6000600560009054906101000a900473ffffffffffffffffffffffffffffffffffffffff16905081600560006101000a81548173ffffffffffffffffffffffffffffffffffffffff021916908373ffffffffffffffffffffffffffffffffffffffff1602179055508173ffffffffffffffffffffffffffffffffffffffff168173ffffffffffffffffffffffffffffffffffffffff167f8be0079c531659141344cd1fd0a4f28419497f9722a3daafe3b4186f6b6457e060405160405180910390a35050565b600073ffffffffffffffffffffffffffffffffffffffff168273ffffffffffffffffffffffffffffffffffffffff1603611b56576040517f08c379a0000000000000000000000000000000000000000000000000000000008152600401611b4d90613396565b60405180910390fd5b611b6260008383611ecd565b8060026000828254611b749190612a7e565b92505081905550806000808473ffffffffffffffffffffffffffffffffffffffff1673ffffffffffffffffffffffffffffffffffffffff1681526020019081526020016000206000828254611bc99190612a7e565b925050819055508173ffffffffffffffffffffffffffffffffffffffff16600073ffffffffffffffffffffffffffffffffffffffff167fddf252ad1be2c89b69c2b068fc378daa952ba7f163c4a11628f55a4df523b3ef83604051611c2e919061261f565b60405180910390a3611c4260008383611ed2565b5050565b600081600001549050919050565b600080600660008473ffffffffffffffffffffffffffffffffffffffff1673ffffffffffffffffffffffffffffffffffffffff1681526020019081526020016000209050611ca181611c46565b9150611cac81611f11565b50919050565b6000611cc5611cbf611907565b83611f27565b9050919050565b6000806000611cdd87878787611f5a565b91509150611cea81612066565b8192505050949350505050565b600073ffffffffffffffffffffffffffffffffffffffff168273ffffffffffffffffffffffffffffffffffffffff1603611d66576040517f08c379a0000000000000000000000000000000000000000000000000000000008152600401611d5d90613428565b60405180910390fd5b611d7282600083611ecd565b60008060008473ffffffffffffffffffffffffffffffffffffffff1673ffffffffffffffffffffffffffffffffffffffff16815260200190815260200160002054905081811015611df8576040517f08c379a0000000000000000000000000000000000000000000000000000000008152600401611def906134ba565b60405180910390fd5b8181036000808573ffffffffffffffffffffffffffffffffffffffff1673ffffffffffffffffffffffffffffffffffffffff168152602001908152602001600020819055508160026000828254611e4f91906134da565b92505081905550600073ffffffffffffffffffffffffffffffffffffffff168373ffffffffffffffffffffffffffffffffffffffff167fddf252ad1be2c89b69c2b068fc378daa952ba7f163c4a11628f55a4df523b3ef84604051611eb4919061261f565b60405180910390a3611ec883600084611ed2565b505050565b505050565b505050565b60008383834630604051602001611ef295949392919061350e565b6040516020818303038152906040528051906020012090509392505050565b6001816000016000828254019250508190555050565b60008282604051602001611f3c9291906135d9565b60405160208183030381529060405280519060200120905092915050565b6000807f7fffffffffffffffffffffffffffffff5d576e7357a4501ddfe92f46681b20a08360001c1115611f9557600060039150915061205d565b601b8560ff1614158015611fad5750601c8560ff1614155b15611fbf57600060049150915061205d565b600060018787878760405160008152602001604052604051611fe49493929190613610565b6020604051602081039080840390855afa158015612006573d6000803e3d6000fd5b505050602060405103519050600073ffffffffffffffffffffffffffffffffffffffff168173ffffffffffffffffffffffffffffffffffffffff16036120545760006001925092505061205d565b80600092509250505b94509492505050565b6000600481111561207a57612079613655565b5b81600481111561208d5761208c613655565b5b031561222f57600160048111156120a7576120a6613655565b5b8160048111156120ba576120b9613655565b5b036120fa576040517f08c379a00000000000000000000000000000000000000000000000000000000081526004016120f1906136d0565b60405180910390fd5b6002600481111561210e5761210d613655565b5b81600481111561212157612120613655565b5b03612161576040517f08c379a00000000000000000000000000000000000000000000000000000000081526004016121589061373c565b60405180910390fd5b6003600481111561217557612174613655565b5b81600481111561218857612187613655565b5b036121c8576040517f08c379a00000000000000000000000000000000000000000000000000000000081526004016121bf906137ce565b60405180910390fd5b6004808111156121db576121da613655565b5b8160048111156121ee576121ed613655565b5b0361222e576040517f08c379a000000000000000000000000000000000000000000000000000000000815260040161222590613860565b60405180910390fd5b5b50565b600081519050919050565b600082825260208201905092915050565b60005b8381101561226c578082015181840152602081019050612251565b60008484015250505050565b6000601f19601f8301169050919050565b600061229482612232565b61229e818561223d565b93506122ae81856020860161224e565b6122b781612278565b840191505092915050565b600060208201905081810360008301526122dc8184612289565b905092915050565b6000604051905090565b600080fd5b600080fd5b600073ffffffffffffffffffffffffffffffffffffffff82169050919050565b6000612323826122f8565b9050919050565b61233381612318565b811461233e57600080fd5b50565b6000813590506123508161232a565b92915050565b6000819050919050565b61236981612356565b811461237457600080fd5b50565b60008135905061238681612360565b92915050565b600080604083850312156123a3576123a26122ee565b5b60006123b185828601612341565b92505060206123c285828601612377565b9150509250929050565b60008115159050919050565b6123e1816123cc565b82525050565b60006020820190506123fc60008301846123d8565b92915050565b600080fd5b600080fd5b7f4e487b7100000000000000000000000000000000000000000000000000000000600052604160045260246000fd5b61244482612278565b810181811067ffffffffffffffff821117156124635761246261240c565b5b80604052505050565b60006124766122e4565b9050612482828261243b565b919050565b600067ffffffffffffffff8211156124a2576124a161240c565b5b6124ab82612278565b9050602081019050919050565b82818337600083830152505050565b60006124da6124d584612487565b61246c565b9050828152602081018484840111156124f6576124f5612407565b5b6125018482856124b8565b509392505050565b600082601f83011261251e5761251d612402565b5b813561252e8482602086016124c7565b91505092915050565b60008060008060808587031215612551576125506122ee565b5b600061255f87828801612341565b945050602061257087828801612341565b935050604061258187828801612377565b925050606085013567ffffffffffffffff8111156125a2576125a16122f3565b5b6125ae87828801612509565b91505092959194509250565b60007fffffffff0000000000000000000000000000000000000000000000000000000082169050919050565b6125ef816125ba565b82525050565b600060208201905061260a60008301846125e6565b92915050565b61261981612356565b82525050565b60006020820190506126346000830184612610565b92915050565b6000602082840312156126505761264f6122ee565b5b600061265e84828501612377565b91505092915050565b6000806000606084860312156126805761267f6122ee565b5b600061268e86828701612341565b935050602061269f86828701612341565b92505060406126b086828701612377565b9150509250925092565b600060ff82169050919050565b6126d0816126ba565b82525050565b60006020820190506126eb60008301846126c7565b92915050565b6000819050919050565b612704816126f1565b82525050565b600060208201905061271f60008301846126fb565b92915050565b60006020828403121561273b5761273a6122ee565b5b600061274984828501612341565b91505092915050565b60008060006060848603121561276b5761276a6122ee565b5b600061277986828701612341565b935050602061278a86828701612377565b925050604061279b86828701612377565b9150509250925092565b6000819050919050565b60006127ca6127c56127c0846122f8565b6127a5565b6122f8565b9050919050565b60006127dc826127af565b9050919050565b60006127ee826127d1565b9050919050565b6127fe816127e3565b82525050565b600060208201905061281960008301846127f5565b92915050565b61282881612318565b82525050565b6000602082019050612843600083018461281f565b92915050565b612852816126ba565b811461285d57600080fd5b50565b60008135905061286f81612849565b92915050565b61287e816126f1565b811461288957600080fd5b50565b60008135905061289b81612875565b92915050565b600080600080600080600060e0888a0312156128c0576128bf6122ee565b5b60006128ce8a828b01612341565b97505060206128df8a828b01612341565b96505060406128f08a828b01612377565b95505060606129018a828b01612377565b94505060806129128a828b01612860565b93505060a06129238a828b0161288c565b92505060c06129348a828b0161288c565b91505092959891949750929550565b6000806040838503121561295a576129596122ee565b5b600061296885828601612341565b925050602061297985828601612341565b9150509250929050565b7f4e487b7100000000000000000000000000000000000000000000000000000000600052602260045260246000fd5b600060028204905060018216806129ca57607f821691505b6020821081036129dd576129dc612983565b5b50919050565b7f4f776e61626c653a2063616c6c6572206973206e6f7420746865206f776e6572600082015250565b6000612a1960208361223d565b9150612a24826129e3565b602082019050919050565b60006020820190508181036000830152612a4881612a0c565b9050919050565b7f4e487b7100000000000000000000000000000000000000000000000000000000600052601160045260246000fd5b6000612a8982612356565b9150612a9483612356565b9250828201905080821115612aac57612aab612a4f565b5b92915050565b7f4e6f7420666f722073616c650000000000000000000000000000000000000000600082015250565b6000612ae8600c8361223d565b9150612af382612ab2565b602082019050919050565b60006020820190508181036000830152612b1781612adb565b9050919050565b7f4e6f7420656e6f7567682065746865722073656e740000000000000000000000600082015250565b6000612b5460158361223d565b9150612b5f82612b1e565b602082019050919050565b60006020820190508181036000830152612b8381612b47565b9050919050565b6000606082019050612b9f600083018661281f565b612bac602083018561281f565b612bb96040830184612610565b949350505050565b7f416c726561647920696e697469616c697a656400000000000000000000000000600082015250565b6000612bf760138361223d565b9150612c0282612bc1565b602082019050919050565b60006020820190508181036000830152612c2681612bea565b9050919050565b7f416d6f756e74206e6565647320746f206265206d6f7265207468616e20300000600082015250565b6000612c63601e8361223d565b9150612c6e82612c2d565b602082019050919050565b60006020820190508181036000830152612c9281612c56565b9050919050565b7f45524332303a2064656372656173656420616c6c6f77616e63652062656c6f7760008201527f207a65726f000000000000000000000000000000000000000000000000000000602082015250565b6000612cf560258361223d565b9150612d0082612c99565b604082019050919050565b60006020820190508181036000830152612d2481612ce8565b9050919050565b7f45524332305065726d69743a206578706972656420646561646c696e65000000600082015250565b6000612d61601d8361223d565b9150612d6c82612d2b565b602082019050919050565b60006020820190508181036000830152612d9081612d54565b9050919050565b600060c082019050612dac60008301896126fb565b612db9602083018861281f565b612dc6604083018761281f565b612dd36060830186612610565b612de06080830185612610565b612ded60a0830184612610565b979650505050505050565b7f45524332305065726d69743a20696e76616c6964207369676e61747572650000600082015250565b6000612e2e601e8361223d565b9150612e3982612df8565b602082019050919050565b60006020820190508181036000830152612e5d81612e21565b9050919050565b7f526564656d7074696f6e206e6f7420617661696c61626c650000000000000000600082015250565b6000612e9a60188361223d565b9150612ea582612e64565b602082019050919050565b60006020820190508181036000830152612ec981612e8d565b9050919050565b6000612edb82612356565b9150612ee683612356565b9250828202612ef481612356565b91508282048414831517612f0b57612f0a612a4f565b5b5092915050565b7f4e487b7100000000000000000000000000000000000000000000000000000000600052601260045260246000fd5b6000612f4c82612356565b9150612f5783612356565b925082612f6757612f66612f12565b5b828204905092915050565b7f4f776e61626c653a206e6577206f776e657220697320746865207a65726f206160008201527f6464726573730000000000000000000000000000000000000000000000000000602082015250565b6000612fce60268361223d565b9150612fd982612f72565b604082019050919050565b60006020820190508181036000830152612ffd81612fc1565b9050919050565b7f45524332303a20617070726f76652066726f6d20746865207a65726f2061646460008201527f7265737300000000000000000000000000000000000000000000000000000000602082015250565b600061306060248361223d565b915061306b82613004565b604082019050919050565b6000602082019050818103600083015261308f81613053565b9050919050565b7f45524332303a20617070726f766520746f20746865207a65726f20616464726560008201527f7373000000000000000000000000000000000000000000000000000000000000602082015250565b60006130f260228361223d565b91506130fd82613096565b604082019050919050565b60006020820190508181036000830152613121816130e5565b9050919050565b7f45524332303a20696e73756666696369656e7420616c6c6f77616e6365000000600082015250565b600061315e601d8361223d565b915061316982613128565b602082019050919050565b6000602082019050818103600083015261318d81613151565b9050919050565b7f45524332303a207472616e736665722066726f6d20746865207a65726f20616460008201527f6472657373000000000000000000000000000000000000000000000000000000602082015250565b60006131f060258361223d565b91506131fb82613194565b604082019050919050565b6000602082019050818103600083015261321f816131e3565b9050919050565b7f45524332303a207472616e7366657220746f20746865207a65726f206164647260008201527f6573730000000000000000000000000000000000000000000000000000000000602082015250565b600061328260238361223d565b915061328d82613226565b604082019050919050565b600060208201905081810360008301526132b181613275565b9050919050565b7f45524332303a207472616e7366657220616d6f756e742065786365656473206260008201527f616c616e63650000000000000000000000000000000000000000000000000000602082015250565b600061331460268361223d565b915061331f826132b8565b604082019050919050565b6000602082019050818103600083015261334381613307565b9050919050565b7f45524332303a206d696e7420746f20746865207a65726f206164647265737300600082015250565b6000613380601f8361223d565b915061338b8261334a565b602082019050919050565b600060208201905081810360008301526133af81613373565b9050919050565b7f45524332303a206275726e2066726f6d20746865207a65726f2061646472657360008201527f7300000000000000000000000000000000000000000000000000000000000000602082015250565b600061341260218361223d565b915061341d826133b6565b604082019050919050565b6000602082019050818103600083015261344181613405565b9050919050565b7f45524332303a206275726e20616d6f756e7420657863656564732062616c616e60008201527f6365000000000000000000000000000000000000000000000000000000000000602082015250565b60006134a460228361223d565b91506134af82613448565b604082019050919050565b600060208201905081810360008301526134d381613497565b9050919050565b60006134e582612356565b91506134f083612356565b925082820390508181111561350857613507612a4f565b5b92915050565b600060a08201905061352360008301886126fb565b61353060208301876126fb565b61353d60408301866126fb565b61354a6060830185612610565b613557608083018461281f565b9695505050505050565b600081905092915050565b7f1901000000000000000000000000000000000000000000000000000000000000600082015250565b60006135a2600283613561565b91506135ad8261356c565b600282019050919050565b6000819050919050565b6135d36135ce826126f1565b6135b8565b82525050565b60006135e482613595565b91506135f082856135c2565b60208201915061360082846135c2565b6020820191508190509392505050565b600060808201905061362560008301876126fb565b61363260208301866126c7565b61363f60408301856126fb565b61364c60608301846126fb565b95945050505050565b7f4e487b7100000000000000000000000000000000000000000000000000000000600052602160045260246000fd5b7f45434453413a20696e76616c6964207369676e61747572650000000000000000600082015250565b60006136ba60188361223d565b91506136c582613684565b602082019050919050565b600060208201905081810360008301526136e9816136ad565b9050919050565b7f45434453413a20696e76616c6964207369676e6174757265206c656e67746800600082015250565b6000613726601f8361223d565b9150613731826136f0565b602082019050919050565b6000602082019050818103600083015261375581613719565b9050919050565b7f45434453413a20696e76616c6964207369676e6174757265202773272076616c60008201527f7565000000000000000000000000000000000000000000000000000000000000602082015250565b60006137b860228361223d565b91506137c38261375c565b604082019050919050565b600060208201905081810360008301526137e7816137ab565b9050919050565b7f45434453413a20696e76616c6964207369676e6174757265202776272076616c60008201527f7565000000000000000000000000000000000000000000000000000000000000602082015250565b600061384a60228361223d565b9150613855826137ee565b604082019050919050565b600060208201905081810360008301526138798161383d565b905091905056fea2646970667358221220a2f38748aab922812928f56ddf3204049b627e85e185be489b07407f0d3b878a64736f6c63430008110033",
  "linkReferences": {},
  "deployedLinkReferences": {}
}